:020000040800F2
:1000000060070020B501000831190008291900080F
:100010002D190008710200085119000800000000A5
:100020000000000000000000000000003919000876
:100030007502000800000000351900083D1900088D
:10004000CF010008CF010008CF010008CF01000850
:10005000CF010008CF010008CF010008CF01000840
:10006000CF010008CF010008CF010008CF01000830
:10007000CF010008CF010008CF010008CF01000820
:10008000CF010008CF010008CF010008CF01000810
:10009000CF010008CF010008CF010008CF01000800
:1000A000CF010008CF010008CF010008CF010008F0
:1000B000CF01000845190008CF010008CF01000852
:1000C000CF010008CF010008CF010008CF010008D0
:1000D000CF010008CF010008CF010008CF010008C0
:1000E000CF010008CF010008CF01000800F002F89E
:1000F00000F050F814A696E8000CB244B344DA4578
:1001000001D100F047F8BAE80F000FA696E83000DA
:10011000A5EB040504EB0607AAEB0704A7F101070A
:100120004FEA15154FEA3414A4F10104AC4201D38F
:1001300000F030F813F0010F18BFFB1A43F0010371
:1001400000F001F8DBE718470C1D00002C1D000033
:10015000103A24BF78C878C1FAD8520724BF30C8F3
:1001600030C144BF04680C60704700007047000055
:100170000023002400250026103A28BF78C1FBD8B0
:10018000520728BF30C148BF0B6070471FB51FBD65
:1001900010B510BD00F031F81146FFF7F7FF01F080
:1001A000D9FB00F04FF803B4FFF7F2FF03BC00F0F7
:1001B00057F800000948804709480047FEE7FEE776
:1001C000FEE7FEE7FEE7FEE7FEE7FEE7FEE7FEE707
:1001D00004480549054A064B7047000041190008CC
:1001E000ED0000086001002060070020600300208F
:1001F00060030020704770477047754600F02CF888
:10020000AE4605006946534620F00700854618B003
:1002100020B5FFF7DDFFBDE820404FF000064FF0AE
:1002200000074FF000084FF0000BAC46ACE8C009E7
:10023000ACE8C009ACE8C009ACE8C00921F007018E
:100240008D46704710B50446AFF300802046BDE8E8
:100250001040FFF7A8BF00000048704718000020BA
:1002600001491820ABBEFEE72600020070470000DF
:10027000FEE7000070470000B0B5044600F01EF92C
:10028000054640F20800C2F200000078611C18BF69
:10029000044400BF00F012F9401BA042FAD3B0BDE5
:1002A0002DE9F04F82B00E68002E00F0FD8041F283
:1002B0000042C4F20102042340F2004E904208BF03
:1002C00003234FF6FF7CC4F2010E009300240123A8
:1002D000C1F2100C4FF0000A4FF000094BE000BFD4
:1002E00041F20002C4F20102009F904208BF0227BF
:1002F00004F00C030F229A402BEA020207FA03F3E0
:100300004FEA9A051A4346F825204E6840F20C45FC
:10031000F202DEF8082054BF22EA080242EA08028C
:10032000C4F20105CEF808202A68B30254BF22EABD
:10033000080242EA08022A60B303DEF8042054BF30
:1003400022EA080242EA0802F303CEF80420DEF8AB
:1003500000204FF0010354BF22EA080242EA0802DB
:10036000CEF800200E680AF1010A36FA0AF204F10A
:10037000040400F0998003FA0AFB16EA0B08F1D096
:100380004E68664512DC122E56D8DFE806F0350BB3
:100390004D49555555555555555555555555554531
:1003A000510000BFD1F80C9046E000BF4FF6FF723D
:1003B000C1F2210296420FDC0022C1F211029642E4
:1003C0001AD00022C1F21202964215D00022C1F2C8
:1003D0002102964210D02FE00022C1F22202964262
:1003E0000AD00022C1F23102964205D00022C1F2A9
:1003F0003202964220D100BF8A684AB1012A14BF56
:10040000C0F814B0C0F810B04FF0080914E000BFF5
:100410004FF0040910E000BFCA6802F104090BE0C4
:100420004FF0000908E000BFCA6802F1080903E0C4
:10043000CA6802F10C0900BF02462646B8F5807F63
:1004400024BF0432203E17680F25B54027EA050572
:1004500009FA06F635431560CA79D2067FF582AFF0
:1004600041F21803C4F202031A68AEF57E7642F038
:1004700001021A601A6802F001020192019A2AF040
:10048000030256F802B040F60002C4F201029042A4
:1004900008D040F60042C4F2010290427FF420AF3F
:1004A000012725E7002723E702B0BDE8F08F000011
:1004B000002A08BF090401617047000040F258108B
:1004C000C2F200000068704740F2080040F2581184
:1004D000C2F20000C2F2000100780A68104408600D
:1004E0007047000080B542F20000C4F202000168CB
:1004F00041F010010160032000F08CF80F2000F0A3
:1005000005F800F027F8002080BD000070B540F22B
:100510000806C2F2000640F210013278C2F2000171
:100520004FF47A730968B3FBF2F20446B1FBF2F1BF
:10053000084600F05DFB0F2C4FF0010508D838B9D4
:100540004FF0FF3021460022002500F037F874609C
:10055000284670BD82B041F21800C4F20200016862
:10056000022241F001010160016801F001010191E5
:100570000199416841F080514160406800F080502D
:10058000009000980420C4F20100016862F31A612F
:10059000016002B070470000002848BF704700F0BB
:1005A0001F01012202FA01F11C2202EAD0004EF2E0
:1005B0000012CEF2000281507047000010B54EF6D6
:1005C0000C5CCEF2000CDCF80030C3F3022E8EF08F
:1005D0000704042C28BF0424BEF103034FF0FF3EA0
:1005E0000EFA04F438BF0023A14399400EFA03F336
:1005F0009A43114300F00F0200F160430901043AED
:1006000003F564436244002848BF02F10C031970EB
:1006100010BD00004EF60C51CEF200010A684FF6F4
:10062000FF031A4060F30A2242F0806040F0FD7040
:1006300008607047002804BF012070472DE9F0438F
:1006400081B042F20008C4F202080446D8F8000063
:100650000D4600F0070088420CD2D8F8000020F0C8
:1006600007002843C8F80000D8F8000000F0070091
:10067000A8426CD1206841F204098107C4F2020942
:1006800017D5410705D5D9F8001041F4E061C9F844
:100690000010010705D5D9F8001041F46051C9F8E0
:1006A0000010D9F80010A26821F0F0011143C9F838
:1006B0000010C00742D1D8F8000000F00700A8429F
:1006C0000CD9D8F8000020F007002843C8F8000033
:1006D000D8F8000000F00700A84238D12068410790
:1006E00007D5D9F80010E26821F4E0611143C9F898
:1006F0000010000708D5D9F80000216920F46050E7
:1007000040EAC100C9F80000D9F8002002F00C004E
:10071000082841F20020C0F27A004DD141F6426330
:10072000C2F38341C0F60003595CD20338D440F6CB
:100730000010C0F23D0048433EE000BF606859F839
:10074000041C022808D0012826D1890306D40120E0
:1007500001B0BDE8F08300BF8901F8D5D9F80010D9
:1007600021F003010843C9F80000FFF7A7FE064681
:1007700041F28837D9F80000616800F00C00B0EB56
:10078000810F98D0FFF79AFE801BB842F2D9032060
:1007900001B0BDE8F08300BF8907D8D5DEE700BF10
:1007A000D9F8002041F64063C2F34042C0F600038E
:1007B0009A5C4843B0FBF2F0D9F8001041F6306281
:1007C000C1F30311C0F60002515C40F2100220FA9E
:1007D00001F140F20C00C2F200000068C2F2000217
:1007E0001160FFF793FE002001B0BDE8F083000028
:1007F000002804BF012070472DE9F04182B0044673
:10080000007841F20006C007C4F202060CD07068FE
:1008100000F00C00042840F081803068800303D58C
:100820006068002800F04681207880071BD570683A
:1008300010F00C0F09D0706800F00C00082840F090
:1008400087807068C00300F183803068800703D51B
:100850002069012840F02E813068616920F0F8009D
:1008600040EAC10030602078000713D420784007A8
:100870002CD4E569002D00F01881706800F00C00A0
:10088000082840F0A780012D40F00481012002B02B
:10089000BDE8F081A069002800F084800020C4F247
:1008A00042200121C0F88014FFF708FE054600BF72
:1008B000706A800700F1B280FFF700FE401B02283B
:1008C000F6D9032002B0BDE8F08100BFF0695FEA0D
:1008D000C00808D4F06940F08050F061F06900F081
:1008E00080500090009847F20007C4F20007386873
:1008F000C00549D4386840F480703860FFF7DEFDE9
:10090000054600BF3868C0053ED4FFF7D7FD401B41
:100910006428F7D9032002B0BDE8F081706800F0C8
:100920000C00082803D17068C0033FF576AF6168FA
:100930003068002900F00C81B1F5A02F00F0008193
:10094000B1F5803F40F01A8140F480301CE100BFD7
:100950002069002840F20000C4F2422000F08880A4
:1009600001210160FFF7AAFD054600BF306880073E
:100970003FF572AFFFF7A2FD401B0228F6D9032016
:1009800002B0BDE8F08100BFE168306A002900F0E4
:100990009D80052900F09280012940F0AF8040F051
:1009A0000100B1E00020C4F242200021C0F8801410
:1009B000FFF784FD054600BF706A80077FF556AFDC
:1009C000FFF77CFD401B0228F6D9032002B0BDE8EA
:1009D000F08100BF0027C4F2422700203866FFF7ED
:1009E0006DFD022D05460DD13068800140F1DE809D
:1009F000FFF764FD401B02284FF00300F4D902B05A
:100A0000BDE8F081306880014FD5FFF757FD401BEE
:100A100002284FF00300F5D9F1E700BF40F21000C3
:100A2000C2F20000006844F6D351C1F26201A0FB9B
:100A30000101480A019000BF00BF0198411E002833
:100A400001913FF413AF00BF0198411E00280191AE
:100A50003FF40CAF00BF0198411E002801913FF404
:100A600005AF00BF0198411E00280191E4D1FDE6C9
:100A700000210160FFF722FD054600BF30688007B6
:100A80007FF5F1AEFFF71AFD401B02284FF003007F
:100A9000F4D9B4E77068216A00F480328A4209D13F
:100AA000616A00F47010884204D1002002B0BDE8F1
:100AB000F08100BF012002B0BDE8F08140F00400E9
:100AC0003062306A40F001001EE000BF20F00100FB
:100AD0003062306A20F004003062FFF7EFFC054618
:100AE00041F28837306A800720D5FFF7E7FC401BCA
:100AF000B8424FF00300F5D981E700BF20F00100B4
:100B00003062306A20F004003062FFF7D7FC0546FF
:100B100041F28837306A800708D4FFF7CFFC401BCA
:100B2000B842F7D9032002B0BDE8F081B8F1000F58
:100B30003FF59FAEF06920F08050F06199E600BF6C
:100B400040F480203060306840F480301CE000BF0A
:100B500020F480303060306820F480203060FFF76F
:100B6000ADFC0546306880037FF55EAEFFF7A6FC5E
:100B7000401B64284FF00300F4D940E720F4803094
:100B80003060306820F480203060FFF797FC054625
:100B9000306880033FF548AEFFF790FC401B6428A7
:100BA000F6D9032002B0BDE8F08100BF206AB0F59D
:100BB000803F05D17168A26821F400311143716052
:100BC0007168626A21F47411114308437060012056
:100BD0003866FFF773FC0446306880013FF565AF67
:100BE000FFF76CFC001B02284FF00300F4D906E766
:100BF000411E0020B0EB116F1CBF012070474EF268
:100C00001002CEF2000251604EF62351CEF20001E6
:100C1000F0230B700721906011607047704700004F
:100C20007047000090F83C20012A04BF0220704762
:100C3000B0B501F108053CCDD1E900CE23F47C53D9
:100C400022F470521A432EF4F0431A432CF4E0437A
:100C50001A4324F4C0431A432A43C96922F4804248
:100C6000036811435964002180F83C100020B0BD96
:100C700090F83C20012A4FF0020236D010B580F8DF
:100C80003D200268D2F804E0D2F808C00C682EF0CB
:100C90007003234340F2FF74C4F20004A242536085
:100CA0000ADCB2F1804F13D040F20043C4F20003DB
:100CB0009A420DD011E000BF42F60043C4F2010396
:100CC0009A4205D040F60003C4F200039A4204D1D0
:100CD00049682CF08003194391600121002280F8BB
:100CE0003D1080F83C20BDE81040104670470000E1
:100CF000002804BF0120704710B590F83D1031B9AD
:100D0000002180F83C10044600F070F820460221D3
:100D100080F83D10016840F2FF740B68C4F20004D3
:100D200042F6004CA142C4F2010C15DCB1F1804F37
:100D30001AD040F20042C4F20002914214D0A14203
:100D400018DCB1F1804F1DD040F20042C4F2000225
:100D5000914217D01AE000BF614505D040F600026D
:100D6000C4F200029142EAD1826823F07003134377
:100D7000A142E6DD614505D040F60002C4F2000262
:100D8000914203D1026923F440731343846923F031
:100D90008002D0F804E0C368224361450A60CB6258
:100DA000C1F828E002D14269CCF8302001224A6122
:100DB0000B69DB0703D00B6923F001030B6180F89B
:100DC000462080F83E2080F83F2080F8402080F8C0
:100DD000412080F8422080F8432080F8442080F8A9
:100DE000452080F83D20002010BD0000006840F242
:100DF0000041C4F20001884218BF704780B582B03C
:100E000041F21C00C4F202000168002241F002011C
:100E100001600068002100F00200019001981D208F
:100E2000FFF7CCFB1D2002B0BDE88040FFF7B4BB4C
:100E300090F83D1001291CBF01207047022180F865
:100E40003D10006840F2FF72C168C4F20002904297
:100E500041F00101C16009DCB0F1804F12D040F2D5
:100E60000041C4F2000188420CD012E042F6004179
:100E7000C4F20101884205D040F60001C4F200012D
:100E8000884206D1816801F00701062904BF0020CD
:100E90007047016841F001010160002070470000C7
:100EA00090F83C20012A4FF002026CD080B580F807
:100EB0003D20D0F800C04FF67772DCF8083023EA06
:100EC0000202CCF808200B684F2B29DC1F2B45DDD4
:100ED000202B46D0302B44D0402B40F0AF80D1F8AF
:100EE00004E0C968DCF82030DCF8202022F00102A0
:100EF000CCF82020DCF8182022F0F00242EA0111A0
:100F000023F00A0242EA0E02CCF81810CCF8202096
:100F1000DCF8081041F0470121F0300128E000BF63
:100F20006F2B33DDB3F5005F74D0B3F5805F21D054
:100F3000702B40F08380D1E901E3C968DCF8082018
:100F400043EA0E0322F47F4243EA01211143CCF825
:100F50000810DCF8081041F0770109E00BB1102B04
:100F60006CD1DCF8081021F07001194341F0070141
:100F7000CCF808100022012180F83D10002180F8F3
:100F80003C10BDE880401046704700BF502B21D078
:100F9000602B53D1D1F804E0C968DCF82030DCF8CC
:100FA000202022F01002CCF82020DCF8182022F4B7
:100FB000704242EA013123F0A00242EA0E12CCF85C
:100FC0001810CCF82020DCF8081041F0670121F05F
:100FD0001001CDE7D1F804E0C968DCF82030DCF876
:100FE000202022F00102CCF82020DCF8182022F08A
:100FF000F00242EA011123F00A0242EA0E02CCF8A2
:101000001810CCF82020DCF8081041F0570121F02E
:101010002001ADE7D1E901E3C968DCF8082043EA23
:101020000E0322F47F4243EA01211143CCF8081059
:10103000DCF8081041F480419AE700BF01229AE7EA
:10104000002804BF012070472DE9F04F81B090F8CF
:101050003D2042B9002280F83C2004460D4600F0B5
:101060009DF829462046022280F83D20026844F27D
:101070000705936842F6004CAB43936040F2FF7360
:101080001468C4F200039A42C4F2010C14DCB2F1F9
:10109000804F19D040F20045C4F20005AA4213D097
:1010A0009A4217DCB2F1804F1CD040F20043C4F2E8
:1010B00000039A4216D01AE0624505D040F60005BA
:1010C000C4F20005AA42EBD1856824F070042C43D9
:1010D0009A42E7DD624505D040F60003C4F2000302
:1010E0009A4204D1036924F4407543EA050424F0CC
:1010F00080038469D0F804E0C56823436245136027
:10110000D562C2F828E002D14369CCF830304FF004
:10111000010EC2F814E01569ED0703D0156925F03A
:101120000105156195689469D2F820C0D1E90038AD
:10113000D1E9027B43EA050A8D694FF6FF7924EA7B
:10114000090447EA05254FF6FC47BD43D1E9077678
:1011500044EA0B040B692C4344EA07242CF02207D1
:10116000496944EA031347EA080743EA063347EAB2
:101170000111C2F808A09361116280F846E080F87E
:101180003EE080F83FE080F842E080F843E080F8FD
:101190003DE0002001B0BDE8F08F000080B586B0D2
:1011A00000680021B0F1804FCDE904110391029154
:1011B00002D006B080BD00BF41F21800C4F20200A8
:1011C000426842F001024260426802F0010201926C
:1011D000019A026842F004020260006800F0040014
:1011E000019001980320CDE902010120049040F60E
:1011F0000000C4F2010002A9FFF752F806B080BD5A
:1012000080B590F83E2090F83F3090F842E090F89A
:1012100043C004290AD0B9B9012A4FF0010208BF1E
:10122000BEF1010F34D0104680BD00BF012B4FF03E
:10123000010208BFBCF1010FF5D1022180F83F1077
:1012400080F8431000681EE0012A4FF0010208BF39
:10125000012BE8D1BEF1010FE5D1BCF1010FE2D1C4
:10126000022280F83E2080F83F2080F8422080F85B
:10127000432091B10068016A21F001010162016A15
:1012800041F00101016210216FF0100209E000BF7E
:10129000022180F83E1080F84210006801216FF0B2
:1012A0000102036A1A400262026A11430162016884
:1012B000002241F001010160104680BD704700002E
:1012C00070B504460068C5680669B10716D515F003
:1012D000020113D06FF002010161012121778069C1
:1012E000800703D02046FFF7E9FF05E0204600F025
:1012F000BBF8204600F052FA00202077700719D57D
:1013000015F0040016D020686FF00401016102217D
:101310002177806910F4407F04D02046FFF7CEFF8C
:1013200006E000BF204600F09FF8204600F036FAA5
:1013300000202077300717D515F0080014D020685A
:101340006FF00801016104212177C069800703D093
:101350002046FFF7B3FF05E0204600F085F8204661
:1013600000F01CFA00202077F00619D515F01000C7
:1013700016D020686FF01001016108212177C06943
:1013800010F4407F04D02046FFF798FF06E000BF2E
:10139000204600F069F8204600F000FA002020778F
:1013A000F00718BF15F0010002D1300609D412E091
:1013B00020686FF001010161204600F05FFA3006FD
:1013C00009D515F0800006D020686FF0800101611A
:1013D0002046FFF723FC700609D515F0400006D023
:1013E00020686FF040010161204600F09BFAB006D2
:1013F00058BF70BD15F0200008D021686FF02002A2
:1014000020460A61BDE87040FFF70ABC70BD0000CD
:1014100080B586B0014640F60000C4F201000968BC
:1014200000F5105291424FF00001CDE90411CDE9D1
:10143000021101D006B080BD41F21801C4F20201D0
:101440000A6842F004020A60096801F0040101918F
:1014500001994FF48071029102210391059102A933
:10146000FEF71EFF06B080BD7047000090F83C30CC
:10147000012B04BF022070474FEAB202032A00F298
:10148000F1802DE9F043DFE802F003A53B7500BFD2
:10149000036842F600461D6A1A6AC4F2010622F089
:1014A00001021A621A465C6852F818CFB3428E687D
:1014B000D1F800E025F0020545EA06050CD1CE681A
:1014C000D1E9057824F4407425F00C0526F00406D3
:1014D0003C43354344EA08042CF0730747EA0E07FF
:1014E0005C609F614F6809695F631D629F6947F097
:1014F00008079F619F6927F004079F61A6E000BF6E
:10150000036842F600461D6A1A6AC4F2010622F414
:1015100080721A621A46D3F804C052F81CEFB34224
:101520008E680C6825F4007545EA06250FD1CE6853
:10153000D1E90598360240F2FF4725F44065BE43E5
:1015400035432CF4405748EA090647EA061C2EF0BA
:1015500073072743C3F804C0DF614F680969DF637D
:101560001D62DF6947F00807DF61DF6927F00407C4
:10157000DF616BE0036842F60047D3F820C01A6AC7
:10158000C4F2010722F480521A621A465C6852F8CB
:101590001C5FD1F800E08E68BB4204D14F6924F48F
:1015A000804444EA87142CF4005747EA063725F4B0
:1015B000E64646EA0E265C60DE614E6809691E64F6
:1015C0001F62DF6947F40067DF61DF6927F4806726
:1015D000DF613AE0036842F600461D6A1A6AC4F207
:1015E000010622F010021A621A46D3F804C052F81B
:1015F000184FB3428E68D1F800E025F0200545EA87
:1016000006150FD1CE68D1E905986FF0400725F097
:10161000C00507EA061635432CF4406748EA090678
:1016200047EA860C24F4E64444EA0E27C3F804C0D3
:101630009F614F6809699F631D629F6947F4006756
:101640009F619F6927F480679F61090213681943AE
:1016500011600021BDE8F043002280F83C200846DC
:10166000704700BF0121002280F83C2008467047E7
:10167000002804BF0120704710B590F83D1031B923
:10168000002180F83C10044600F070F8204602214A
:1016900080F83D10016840F2FF740B68C4F200044A
:1016A00042F6004CA142C4F2010C15DCB1F1804FAE
:1016B0001AD040F20042C4F20002914214D0A1427A
:1016C00018DCB1F1804F1DD040F20042C4F200029C
:1016D000914217D01AE000BF614505D040F60002E4
:1016E000C4F200029142EAD1826823F070031343EE
:1016F000A142E6DD614505D040F60002C4F20002D9
:10170000914203D1026923F440731343846923F0A7
:101710008002D0F804E0C368224361450A60CB62CE
:10172000C1F828E002D14269CCF8302001224A6198
:101730000B69DB0703D00B6923F001030B6180F811
:10174000462080F83E2080F83F2080F8402080F836
:10175000412080F8422080F8432080F8442080F81F
:10176000452080F83D20002010BD0000006842F6B2
:101770000041C4F20101884218BF704781B041F2B4
:101780001800C4F20200016841F4006101600068C1
:1017900000F400600090009801B0704770470000AE
:1017A000C1B1042908D0082914BF41224022825C1B
:1017B000012A05D016E000BF3F22825C012A11D128
:1017C0000222082910D0042914BF80F8412080F893
:1017D0003F200BE090F83E20012A03D1022280F83E
:1017E0003E2003E00120704780F84020006801F0AF
:1017F0001F010122036A8A4023EA02010162036A8F
:1018000042F64441C4F201011A43A1F14403984253
:1018100002620FD040F2FF71C4F20001884213DC73
:10182000B0F1804F1CD040F20041C4F20001884268
:1018300016D01CE00A6842F400420A6040F2FF71D0
:10184000C4F200018842EBDD42F60041C4F201011E
:10185000884205D040F60001C4F20001884206D15A
:10186000816801F00701062904BF00207047016864
:1018700041F001010160002070470000F0B581B027
:1018800040F27805C2F20005A88840F20006C2F2D4
:101890000006D0BBA868406A288030882988401A92
:1018A000708000B200F0E0F9716802460846114607
:1018B00000F0F2F900F0BCF901466328A8BF6321EB
:1018C00040F6004411F1630FD8BF6FF06201C4F21B
:1018D000010487B269800022B0F1FF3F20464FF03B
:1018E0000101C8BF0122FEF7E3FDFA0B20460221E9
:1018F000FEF7DEFD688840F2C80100B2C2F20001C6
:10190000002848BF404209684863708801B280EAF5
:10191000E130A0EBE13080B213289CBF0120A88009
:1019200001B0F0BD70470000FEE70000FEE70000D8
:10193000FEE700007047000070470000FEF7C4BDDE
:101940007047000040F21010C2F20000FFF7B8BC70
:10195000FEE7000094B0FEF7C5FD4FF48030002490
:10196000012501906846CDE90844CDE90644CDE95A
:101970000444CDE902440095FEF73AFF20B1EFF3AD
:10198000108072B6FEE700BF0F20CDE90A050AA855
:101990000021CDE90C440E94FEF74CFE20B1EFF38C
:1019A000108072B6FEE700BF002541F21800CDE9B5
:1019B0000255CDE90055C4F20200016840F600442A
:1019C00041F0200101600168C4F2010401F020012E
:1019D0000A910A990168002241F00401016001683E
:1019E000032601F004010A910A99016841F00801F7
:1019F00001600068032100F008000A900A98204660
:101A0000FEF756FD0120CDE901050220039069464D
:101A100020460096FEF744FC40F2C80004F5005151
:101A2000C2F2000040F21F33CDE912550695632241
:101A300080E82600C0E90335C0E90555FFF718FE28
:101A400020B1EFF3108072B6FEE700BF40F2C8008D
:101A5000C2F2000012A9FFF70BF928B1EFF31080D2
:101A600072B600BFFEE700BF60200A90C7200B904F
:101A700040F2C8000025C2F200000AA90022CDE908
:101A80000C55CDE90E551095FFF7F0FC20B1EFF3A2
:101A9000108072B6FEE700BF4FF40050059040F290
:101AA000C800C2F2000069460495CDE90255CDE9AF
:101AB00000550795FFF7B6F820B1EFF3108072B626
:101AC000FEE700BF40F2C800C2F20000FFF7A0FC32
:101AD00040F27806C2F200064FF080423046002104
:101AE00040F8082F4FF6FF72C0E903210322CDE929
:101AF00000210122CDE90A11C0E901118161CDE97E
:101B00000221CDE90411CDE9062108916946FFF7CC
:101B100097FA28B1EFF3108072B600BFFEE700BF5E
:101B200006F108050AA92846FFF7A2F820B1EFF34D
:101B3000108072B6FEE700BF40F210100021A4F53D
:101B40008432C2F20000632340F21F340391CDE9D6
:101B50000111CDE90A11C0E90023C0E902140161B5
:101B60008161FFF7C5F828B1EFF3108072B600BFAE
:101B7000FEE700BF4FF48050009040F21010C2F218
:101B800000006946FFF78CF920B1EFF3108072B6C0
:101B9000FEE700BF40F21010C2F200000AA9FFF7F2
:101BA00067F818B1EFF3108072B6FEE728460421FB
:101BB000FFF726FB40F2C800C2F20000002100241B
:101BC000FFF7EEFD40F21010C2F20000FFF730F90F
:101BD00040F20005C2F20005298809E04FF4FA70CE
:101BE000F280FEF749FB2888B48000F1E1012980EA
:101BF000B06809B2426A13B2CB1A48BF5B42142BD9
:101C0000ECD3426A13B2CB1A48BF5B42142BE5D324
:101C1000426A13B2CB1A48BF5B42142BDED3426A2E
:101C200013B2CB1A48BF5B42132BE3D8D6E70000B0
:101C300041000B0ED3F19E0208D950F400034FEA85
:101C4000032323FA02F048BF4042704710B500F06A
:101C5000A4F800BF49922480002070476FF0004232
:101C600082EA20007047000010F0004148BF404267
:101C7000B0FA80F310FA03F2C3F19D030BD051EADE
:101C8000C35101EB1220530638BF704700F1010029
:101C900008BF20F0010070474FF47F0C1CEAD012FF
:101CA0001EBF1CEAD11392EA0C0F93EA0C0F00F04E
:101CB000478090EA010F48BF42F480724FF0004C19
:101CC0004CEA00204CEA012102EB0302A0FB0113C5
:101CD000A2F50002002918BF43F001035B0028BFF2
:101CE0004FEA330342EB22425FEA132C4CEBC25023
:101CF0002EBFBCEB436FB2F57C0F70474FEA036C0D
:101D0000BCF1004F08BF20F00100B2F57C0F38BFD6
:101D100070470BD582F0FF0212F5803FC8BF7047B5
:101D200000F1C040D8BF00F00040704700F5000C43
:101D30005FEA4C0C48BF7047B0F1C04000F073B888
:101D40000CEAD11390EA010F48BF42F48072624559
:101D500038BF634504D280EA010000F000407047BC
:101D600010B500F01AF800BF8900013E00F007B876
:101D700000F009B85FEA410C5FEA1C6C08D080EA09
:101D8000010000F050B85FEA400C5FEA1C6CF6D12D
:101D90004FF00040A0F5800070470EF1020E2EF0CB
:101DA000030E5EF8044B244204D44FEA4102B2F120
:101DB0007F4F11D84FEA4003B3F17F4F0CD80ED1BB
:101DC0004FEAD07C0CEB4C0C0CF1020CB2F17F4FC3
:101DD00008BF4CEBD17C04E04FF0080C01E04FEA67
:101DE000D17C0CEB4C0324FA03F404F00704B4F1A7
:101DF000040C06D20EEB840CBDE810404CF0010C34
:101E00006047DFE80CF0070802024FF00040A0F541
:101E1000800010BD0846420018BFD2F1807288BF12
:101E200000F0004010BDFF2141EAD050C0057047CE
:101E3000000000000000000001020304060708097A
:101E4000010202030405060708090A0B0C0D0E0F18
:101E500010100000781E000800000020180000008C
:101E600050010008901E00081800002048070000DC
:101E70007001000800000000C201E1000000803F86
:101E8000010000001000000000127A0000000000B5
:04000005080000ED02
:00000001FF
