:020000040800F2
:10000000C0060020B501000801100008F90F000823
:10001000FD0F0008BD0200081510000800000000D8
:1000200000000000000000000000000009100008AF
:10003000C102000800000000051000080D100008B3
:10004000CF010008CF010008CF010008CF01000850
:10005000CF010008CF010008CF010008CF01000840
:10006000CF010008CF010008CF010008CF01000830
:10007000CF010008CF010008CF010008CF01000820
:10008000CF010008CF010008CF010008CF01000810
:10009000CF010008CF010008CF010008CF01000800
:1000A000CF010008CF010008CF010008CF010008F0
:1000B000CF010008CF010008CF010008CF010008E0
:1000C000CF010008CF010008CF010008CF010008D0
:1000D000CF010008CF010008CF010008CF010008C0
:1000E000CF010008CF010008CF01000800F002F89E
:1000F00000F050F814A696E8000CB244B344DA4578
:1001000001D100F047F8BAE80F000FA696E83000DA
:10011000A5EB040504EB0607AAEB0704A7F101070A
:100120004FEA15154FEA3414A4F10104AC4201D38F
:1001300000F030F813F0010F18BFFB1A43F0010371
:1001400000F001F8DBE71847FC0F00001C1000006E
:10015000103A24BF78C878C1FAD8520724BF30C8F3
:1001600030C144BF04680C60704700007047000055
:100170000023002400250026103A28BF78C1FBD8B0
:10018000520728BF30C148BF0B6070471FB51FBD65
:1001900010B510BD00F058F81146FFF7F7FF00F05A
:1001A0003BFF00F076F803B4FFF7F2FF03BC00F06A
:1001B0007DF800000948804709480047FEE7FEE750
:1001C000FEE7FEE7FEE7FEE7FEE7FEE7FEE7FEE707
:1001D00004480549054A064B704700001110000805
:1001E000ED000008C0000020C0060020C002002072
:1001F000C00200204FF0000200B513469446964618
:10020000203922BFA0E80C50A0E80C50B1F1200129
:10021000BFF4F7AF090728BFA0E80C5048BF0CC0D7
:100220005DF804EB890028BF40F8042B08BF704735
:1002300048BF20F8022B11F0804F18BF00F8012BA7
:100240007047704770477047754600F02BF8AE4610
:1002500005006946534620F00700854618B020B5D2
:10026000FFF7B6FFBDE820404FF000064FF0000753
:100270004FF000084FF0000BAC46ACE8C009ACE80A
:10028000C009ACE8C009ACE8C00921F007018D46FF
:10029000704710B50446AFF300802046BDE810401B
:1002A000FFF781BF00487047100000200149182067
:1002B000ABBEFEE72600020070470000FEE700002C
:1002C000704700002DE9F04F82B00E68002E00F05C
:1002D000FD8041F20042C4F20102042340F2004ECC
:1002E000904208BF03234FF6FF7CC4F2010E009337
:1002F00000240123C1F2100C4FF0000A4FF0000956
:100300004BE000BF41F20002C4F20102009F9042A4
:1003100008BF022704F00C030F229A402BEA0202C6
:1003200007FA03F34FEA9A051A4346F825204E6868
:1003300040F20C45F202DEF8082054BF22EA08021F
:1003400042EA0802C4F20105CEF808202A68B30286
:1003500054BF22EA080242EA08022A60B303DEF828
:10036000042054BF22EA080242EA0802F303CEF84E
:100370000420DEF800204FF0010354BF22EA0802F7
:1003800042EA0802CEF800200E680AF1010A36FAA5
:100390000AF204F1040400F0998003FA0AFB16EA59
:1003A0000B08F1D04E68664512DC122E56D8DFE8F5
:1003B00006F0350B4D49555555555555555555551F
:1003C00055555545510000BFD1F80C9046E000BF8F
:1003D0004FF6FF72C1F2210296420FDC0022C1F2F9
:1003E000110296421AD00022C1F21202964215D092
:1003F0000022C1F22102964210D02FE00022C1F269
:10040000220296420AD00022C1F23102964205D061
:100410000022C1F23202964220D100BF8A684AB15E
:10042000012A14BFC0F814B0C0F810B04FF008098A
:1004300014E000BF4FF0040910E000BFCA6802F1E9
:1004400004090BE04FF0000908E000BFCA6802F1A0
:10045000080903E0CA6802F10C0900BF02462646FB
:10046000B8F5807F24BF0432203E17680F25B540C1
:1004700027EA050509FA06F635431560CA79D2065A
:100480007FF582AF41F21803C4F202031A68AEF599
:100490007E7642F001021A601A6802F001020192AF
:1004A000019A2AF0030256F802B040F60002C4F2A4
:1004B0000102904208D040F60042C4F2010290428C
:1004C0007FF420AF012725E7002723E702B0BDE82E
:1004D000F08F000040F2BC00C2F2000000687047DC
:1004E00040F2000040F2BC01C2F20000C2F2000182
:1004F00000780A68104408607047000080B542F236
:100500000000C4F20200016841F010010160032004
:1005100000F07AF80F2000F005F800F027F800202E
:1005200080BD000070B540F20006C2F2000640F245
:1005300008013278C2F200014FF47A730968B3FB04
:10054000F2F20446B1FBF2F1084600F04BFB0F2C2F
:100550004FF0010508D838B94FF0FF30214600228E
:10056000002500F025F87460284670BD82B041F285
:100570001800C4F202000168022241F0010101608A
:10058000016801F0010101910199416841F0805138
:100590004160406800F08050009000980420C4F250
:1005A0000100016862F31A61016002B07047000047
:1005B00010B54EF60C5CCEF2000CDCF80030C3F344
:1005C000022E8EF00704042C28BF0424BEF103037E
:1005D0004FF0FF3E0EFA04F438BF0023A1439940C8
:1005E0000EFA03F39A43114300F00F0200F1604347
:1005F0000901043A03F564436244002848BF02F14C
:100600000C03197010BD00004EF60C51CEF2000123
:100610000A684FF6FF031A4060F30A2242F0806036
:1006200040F0FD7008607047002804BF012070474B
:100630002DE9F04381B042F20008C4F202080446FA
:10064000D8F800000D4600F0070088420CD2D8F818
:10065000000020F007002843C8F80000D8F8000088
:1006600000F00700A8426CD1206841F2040981071C
:10067000C4F2020917D5410705D5D9F8001041F495
:10068000E061C9F80010010705D5D9F8001041F460
:100690006051C9F80010D9F80010A26821F0F001EB
:1006A0001143C9F80010C00742D1D8F8000000F08B
:1006B0000700A8420CD9D8F8000020F00700284312
:1006C000C8F80000D8F8000000F00700A84238D1B0
:1006D0002068410707D5D9F80010E26821F4E061ED
:1006E0001143C9F80010000708D5D9F800002169A6
:1006F00020F4605040EAC100C9F80000D9F8002099
:1007000002F00C00082841F20020C0F27A004DD11E
:1007100041F23413C2F38341C0F60003595CD203A3
:1007200038D440F60010C0F23D0048433EE000BF20
:10073000606859F8041C022808D0012826D18903D2
:1007400006D4012001B0BDE8F08300BF8901F8D5CF
:10075000D9F8001021F003010843C9F80000FFF7A1
:10076000B9FE064641F28837D9F80000616800F00A
:100770000C00B0EB810F98D0FFF7ACFE801BB842A5
:10078000F2D9032001B0BDE8F08300BF8907D8D5B6
:10079000DEE700BFD9F8002041F23213C2F3404235
:1007A000C0F600039A5C4843B0FBF2F0D9F80010A1
:1007B00041F22212C1F30311C0F60002515C40F273
:1007C000080220FA01F140F20400C2F200000068C1
:1007D000C2F200021160FFF7A5FE002001B0BDE8E3
:1007E000F0830000002804BF012070472DE9F0418C
:1007F00082B00446007841F20006C007C4F2020647
:100800000CD0706800F00C00042840F08180306843
:10081000800303D56068002800F0468120788007B7
:100820001BD5706810F00C0F09D0706800F00C0038
:10083000082840F087807068C00300F1838030682A
:10084000800703D52069012840F02E813068616956
:1008500020F0F80040EAC10030602078000713D48F
:10086000207840072CD4E569002D00F018817068CD
:1008700000F00C00082840F0A780012D40F0048112
:10088000012002B0BDE8F081A069002800F084805A
:100890000020C4F242200121C0F88014FFF71AFEA4
:1008A000054600BF706A800700F1B280FFF712FEB4
:1008B000401B0228F6D9032002B0BDE8F08100BF3A
:1008C000F0695FEAC00808D4F06940F08050F06138
:1008D000F06900F080500090009847F20007C4F2E1
:1008E00000073868C00549D4386840F48070386023
:1008F000FFF7F0FD054600BF3868C0053ED4FFF79E
:10090000E9FD401B6428F7D9032002B0BDE8F0815F
:10091000706800F00C00082803D17068C0033FF530
:1009200076AF61683068002900F00C81B1F5A02F26
:1009300000F00081B1F5803F40F01A8140F4803032
:100940001CE100BF2069002840F20000C4F24220F0
:1009500000F0888001210160FFF7BCFD054600BF63
:10096000306880073FF572AFFFF7B4FD401B0228E7
:10097000F6D9032002B0BDE8F08100BFE168306A1B
:10098000002900F09D80052900F09280012940F0A7
:10099000AF8040F00100B1E00020C4F2422000210D
:1009A000C0F88014FFF796FD054600BF706A800707
:1009B0007FF556AFFFF78EFD401B0228F6D90320C6
:1009C00002B0BDE8F08100BF0027C4F2422700203A
:1009D0003866FFF77FFD022D05460DD13068800196
:1009E00040F1DE80FFF776FD401B02284FF0030048
:1009F000F4D902B0BDE8F081306880014FD5FFF72F
:100A000069FD401B02284FF00300F5D9F1E700BF54
:100A100040F20800C2F20000006844F6D351C1F26F
:100A20006201A0FB0101480A019000BF00BF0198CC
:100A3000411E002801913FF413AF00BF0198411EF1
:100A4000002801913FF40CAF00BF0198411E00281F
:100A500001913FF405AF00BF0198411E00280191AC
:100A6000E4D1FDE600210160FFF734FD054600BF3B
:100A7000306880077FF5F1AEFFF72CFD401B0228A0
:100A80004FF00300F4D9B4E77068216A00F48032B3
:100A90008A4209D1616A00F47010884204D10020B2
:100AA00002B0BDE8F08100BF012002B0BDE8F081D6
:100AB00040F004003062306A40F001001EE000BFE8
:100AC00020F001003062306A20F004003062FFF74D
:100AD00001FD054641F28837306A800720D5FFF7CF
:100AE000F9FC401BB8424FF00300F5D981E700BF85
:100AF00020F001003062306A20F004003062FFF71D
:100B0000E9FC054641F28837306A800708D4FFF7D0
:100B1000E1FC401BB842F7D9032002B0BDE8F081E8
:100B2000B8F1000F3FF59FAEF06920F08050F06102
:100B300099E600BF40F480203060306840F4803097
:100B40001CE000BF20F480303060306820F480204A
:100B50003060FFF7BFFC0546306880037FF55EAE6E
:100B6000FFF7B8FC401B64284FF00300F4D940E7BE
:100B700020F480303060306820F480203060FFF74F
:100B8000A9FC0546306880033FF548AEFFF7A2FC9C
:100B9000401B6428F6D9032002B0BDE8F08100BFF5
:100BA000206AB0F5803F05D17168A26821F4003158
:100BB000114371607168626A21F474111143084332
:100BC000706001203866FFF785FC044630688001BC
:100BD0003FF565AFFFF77EFC001B02284FF00300D6
:100BE000F4D906E7411E0020B0EB116F1CBF0120B5
:100BF00070474EF21002CEF2000251604EF62351C1
:100C0000CEF20001F0230B70072190601160704755
:100C100090F83C20012A4FF0020236D010B580F83F
:100C20003D200268D2F804E0D2F808C00C682EF02B
:100C30007003234340F2FF74C4F20004A2425360E5
:100C40000ADCB2F1804F13D040F20043C4F200033B
:100C50009A420DD011E000BF42F60043C4F20103F6
:100C60009A4205D040F60003C4F200039A4204D130
:100C700049682CF08003194391600121002280F81B
:100C80003D1080F83C20BDE8104010467047000041
:100C9000002804BF0120704710B590F83D1031B90D
:100CA000002180F83C10044600F070F82046022134
:100CB00080F83D10016840F2FF740B68C4F2000434
:100CC00042F6004CA142C4F2010C15DCB1F1804F98
:100CD0001AD040F20042C4F20002914214D0A14264
:100CE00018DCB1F1804F1DD040F20042C4F2000286
:100CF000914217D01AE000BF614505D040F60002CE
:100D0000C4F200029142EAD1826823F070031343D7
:100D1000A142E6DD614505D040F60002C4F20002C2
:100D2000914203D1026923F440731343846923F091
:100D30008002D0F804E0C368224361450A60CB62B8
:100D4000C1F828E002D14269CCF8302001224A6182
:100D50000B69DB0703D00B6923F001030B6180F8FB
:100D6000462080F83E2080F83F2080F8402080F820
:100D7000412080F8422080F8432080F8442080F809
:100D8000452080F83D20002010BD000080B586B0D1
:100D900000680021B0F1804FCDE904110391029168
:100DA00002D006B080BD00BF41F21800C4F20200BC
:100DB000426842F001024260426802F00102019280
:100DC000019A026842F004020260006800F0040028
:100DD000019001980120CDE9020140F60000049144
:100DE000C4F2010002A9FFF76DFA06B080BD000051
:100DF00090F83D1001291CBF01207047022180F8A6
:100E00003D10006840F2FF71C4F20001884209DC25
:100E1000B0F1804F12D040F20041C4F2000188428C
:100E20000CD012E042F60041C4F20101884205D024
:100E300040F60001C4F20001884206D1816801F049
:100E40000701062904BF00207047016841F0010135
:100E5000016000207047000090F83C20012A4FF00C
:100E600002026CD080B580F83D20D0F800C04FF66B
:100E70007772DCF8083023EA0202CCF808200B680D
:100E80004F2B29DC1F2B45DD202B46D0302B44D0A7
:100E9000402B40F0AF80D1F804E0C968DCF8203086
:100EA000DCF8202022F00102CCF82020DCF8182009
:100EB00022F0F00242EA011123F00A0242EA0E0295
:100EC000CCF81810CCF82020DCF8081041F04701CD
:100ED00021F0300128E000BF6F2B33DDB3F5005F58
:100EE00074D0B3F5805F21D0702B40F08380D1E9BE
:100EF00001E3C968DCF8082043EA0E0322F47F42CC
:100F000043EA01211143CCF80810DCF8081041F045
:100F1000770109E00BB1102B6CD1DCF8081021F03F
:100F20007001194341F00701CCF80810002201219B
:100F300080F83D10002180F83C10BDE8804010464C
:100F4000704700BF502B21D0602B53D1D1F804E063
:100F5000C968DCF82030DCF8202022F01002CCF840
:100F60002020DCF8182022F4704242EA013123F0FC
:100F7000A00242EA0E12CCF81810CCF82020DCF8BF
:100F8000081041F0670121F01001CDE7D1F804E02D
:100F9000C968DCF82030DCF8202022F00102CCF80F
:100FA0002020DCF8182022F0F00242EA011123F0A0
:100FB0000A0242EA0E02CCF81810CCF82020DCF825
:100FC000081041F0570121F02001ADE7D1E901E31C
:100FD000C968DCF8082043EA0E0322F47F4243EAA2
:100FE00001211143CCF80810DCF8081041F48041CD
:100FF0009AE700BF01229AE7FEE70000FEE7000043
:10100000FEE700007047000070470000FFF768BA75
:1010100070470000FEE7000090B0FFF76FFA06ACE3
:10102000201D2421FFF7E6F80220069001200A90F7
:1010300010200B90002520460D95FFF7D3FB28B11B
:10104000EFF3108072B600BFFEE700BF0F20CDE9BE
:10105000000568460021CDE902550495FFF7E4FA42
:1010600020B1EFF3108072B6FEE700BF41F2180026
:10107000C4F20200016840F2700541F01001016005
:101080000168C2F2000501F010010691069901689D
:10109000002441F00401016000684FF0804100F03D
:1010A000040006900698284640F8041F4FF6FF718A
:1010B000CDE90044C0E90144C0E903148461FFF7AD
:1010C000E7FD28B1EFF3108072B600BFFEE700BF66
:1010D0004FF40050CDE90604CDE908442C1D06A9C3
:1010E0002046FFF7B9FE28B1EFF3108072B600BFBB
:1010F000FEE700BF69462046FFF78AFD20B1EFF307
:10110000108072B6FEE700BF2046FFF771FE6868E8
:10111000416A2980416A2980416A2980416A29807F
:10112000F6E70000000000000000010203040607CB
:101130000809010202030405060708090A0B0C0D41
:101140000E0F1010681100080000002010000000B1
:10115000500100087811000810000020B0060000BF
:1011600070010008000000000100000010000000F5
:0811700000127A0000000000EB
:04000005080000ED02
:00000001FF
