:020000040800F2
:10000000D0070020BD010008C12800089D24000879
:10001000BD2800086D040008E12800080000000069
:10002000000000000000000000000000C9280008D7
:100030004908000800000000C5280008CD28000875
:10004000D7010008D7010008D7010008D701000830
:10005000D7010008D7010008D7010008D701000820
:10006000D7010008D7010008D7010008D701000810
:10007000D7010008D7010008D7010008D701000800
:10008000D7010008D7010008D7010008D7010008F0
:10009000D7010008D7010008D7010008D7010008E0
:1000A000D7010008D7010008D7010008D7010008D0
:1000B000D7010008D5280008D7010008D70100089B
:1000C000D7010008D7010008D7010008D7010008B0
:1000D000D7010008D7010008D7010008D7010008A0
:1000E000D7010008D7010008D701000800F002F886
:1000F00000F055F814A696E8000CB244B344DA4573
:1001000001D100F04CF8BAE80F000FA696E83000D5
:10011000A5EB040504EB0607AAEB0704A7F101070A
:100120004FEA15154FEA3414A4F10104AC4201D38F
:1001300000F035F813F0010F18BFFB1A43F001036C
:1001400000F001F8DBE71847983E0000B83E0000D9
:10015000103A24BF78C878C1FAD8520724BF30C8F3
:1001600030C144BF04680C60704700007047000055
:100170000023002400250026103A28BF78C1FBD8B0
:10018000520728BF30C148BF0B607047642900F098
:100190007D80002070471FB51FBD10B510BD00F059
:1001A0002AF91146FFF7F7FF02F09CFB00F048F92F
:1001B00003B4FFF7F2FF03BC00F050F90948804791
:1001C00009480047FEE7FEE7FEE7FEE7FEE7FEE739
:1001D000FEE7FEE7FEE7FEE704480549054A064B51
:1001E00070470000D1280008ED000008D001002071
:1001F000D0070020D0030020D00300200FB41CB58E
:10020000074B06AA7B4469460090059800F0DBF88E
:100210000020694600F0EAF81CBC5DF814FB000001
:10022000E50100002DE9F0410E4604460020206261
:100230002046E168884730B3252805D0D4E901215C
:100240009047206A401CF2E7E16820460027884773
:10025000050018D0A5F14100192802D820354FF427
:1002600000673246294620462760FFF78FFF40B1DE
:10027000012804D0F61D26F007060836D8E7361DFB
:10028000D6E72846DAE7206ABDE8F0812DE9F0419B
:100290000646002410687529314616A510D0AFF324
:1002A0000080002802DA404213A507E031688A077F
:1002B00001D512A502E0490704D511A5012401E0EA
:1002C000AFF3008000210A2206F1240709E0B0FB09
:1002D000F2FCB0FBF2F302FB1C00303078541846FD
:1002E000491C0028F3D123462A463046BDE8F04198
:1002F00000F00BB8000000002D0000002B000000F3
:10030000200000007047704770472DE9F0470D4608
:1003100099469246044600F124080168880604D5EF
:10032000E06921F01001216000E00120A84201DD18
:10033000471B00E00027A1697A1902EB0900081A9F
:10034000A0612078C00602D42046AFF300800026CA
:1003500008E0D4E901211AF806009047206A401C01
:10036000761C20624E45F4DB2078C0060AD5204674
:10037000AFF3008006E0D4E9012130209047206AE5
:10038000401C2062381EA7F10107F4DC07E0D4E925
:10039000012118F805009047206A401C2062281EA1
:1003A000A5F10105F3DC2046AFF3008020780006BC
:1003B00002D50220BDE8F0870120FBE701694A1C55
:1003C00002610878704700B58FB0CDE90131002196
:1003D000059105497944CDE9031011466846FFF7B8
:1003E00021FF0FB000BD0000E5FFFFFF0A6802F823
:1003F000010B0A607047754600F02CF8AE46050008
:100400006946534620F00700854618B020B5FFF72F
:10041000E3FEBDE820404FF000064FF000074FF02C
:1004200000084FF0000BAC46ACE8C009ACE8C009CE
:10043000ACE8C009ACE8C00921F007018D4670475F
:1004400010B50446AFF300802046BDE81040FFF72A
:10045000AFBE000000487047180000200149182076
:10046000ABBEFEE72600020070470000FEE700007A
:100470002DE9F04182B0044608982160A07140F651
:100480000640C2F61400C4F807000820E0723220CB
:100490002271637100F0DAF9E07A3825002808BF8C
:1004A00030252E1D012038278DF8046000F0CEF98C
:1004B00001208DF805508DF8066000F0C7F920681E
:1004C00021794FF47A7801AA04238DF80750CDF8EA
:1004D000008000F095FBE07A3826002808BF30261F
:1004E000351D01208DF8045000F0B0F901208DF881
:1004F00005608DF8065000F0A9F92068217901AA5D
:1005000004238DF80760CDF8008000F079FB05200A
:1005100000F09CF9E07A2825002808BF302707F171
:10052000040008BF20258DF804000120282600F0D3
:100530008DF9281D8DF8060001208DF8057000F05A
:1005400085F92068217901AA04238DF80750CDF898
:10055000008000F055FB052000F078F9E07A2825AE
:10056000002818BF012008BF2025C700281D8DF8CE
:100570000400012000F06AF9381D8DF80600012002
:100580008DF8055000F062F92068217901AA042352
:100590008DF80770CDF8008000F032FB052000F0E8
:1005A00055F9E079E27A010120F00F0501F1080721
:1005B000002A14BF08350701281D8DF8040001200A
:1005C00000F044F9381D8DF8060001208DF8055023
:1005D00000F03CF92068217901AA04238DF8077006
:1005E000CDF8008000F00CFB207AE27A010120F0C7
:1005F0000F0501F10807002A14BF08350701281D5F
:100600008DF80400012000F021F9381D8DF8060056
:1006100001208DF8055000F019F92068217901AA10
:1006200004238DF80770CDF8008000F0E9FA607AB5
:10063000E27A010120F00F0501F10807002A14BF3A
:1006400008350701281D8DF80400012000F0FEF890
:10065000381D8DF8060001208DF8055000F0F6F8E1
:100660002068217901AA04238DF80770CDF8008055
:1006700000F0C6FAA07AE27A010120F00F0501F13C
:100680000807002A14BF08350701281D8DF804004B
:10069000012000F0DBF8381D8DF8060001208DF8F0
:1006A000055000F0D3F82068217901AA04238DF8C1
:1006B0000770CDF8008000F0A3FAE07A1827002830
:1006C00018BF01204FEAC00505F1040008BF10273C
:1006D0008DF80400012000F0B9F8381D8DF80600EF
:1006E00001208DF8055000F0B1F82068217901AAA9
:1006F00004238DF80770CDF8008000F081FAE07ACD
:1007000000280CBF20260120C500281D8DF80400FC
:10071000012000F09BF8301D8DF8060001208DF8B7
:10072000055000F093F82068217901AA04238DF880
:100730000760CDF8008000F063FA02B0BDE8F081F8
:1007400070B582B004464079A379884298BF411EB3
:10075000934298BF5A1ED0B2032809D8DFE800F0B0
:1007600009020406403104E0143102E0543100E093
:1007700000210A01E37A01F0700002F108056FF030
:100780007702002B08BF6FF07F0202EB000606F134
:10079000040008BF0D018DF80400012000F056F898
:1007A000281D8DF8060001208DF8056000F04EF838
:1007B000206821794FF47A7601AA04238DF8075036
:1007C000009600F01DFA02B070BD00000A78002A01
:1007D00008BF70472DE9F04782B082464E1E4FF4A5
:1007E0007A780DF1040900BF11019AF80B3022F05C
:1007F0000F0001F10807002B14BF08301701451C3A
:1008000005308DF8040001207C1C00F01FF8781DD5
:100810008DF8060001208DF8055000F017F8DAF881
:1008200000009AF804104A4604238DF80740CDF8DA
:10083000008000F0E5F9B2780136002AD4D102B088
:10084000BDE8F0477047000070470000B0B50446AF
:1008500000F01EF9054640F20C00C2F200000078DC
:10086000611C18BF044400BF00F012F9401BA042F5
:10087000FAD3B0BD2DE9F04F82B00E68002E00F023
:10088000FD8041F20042C4F20102042340F2004E16
:10089000904208BF03234FF6FF7CC4F2010E009381
:1008A00000240123C1F2100C4FF0000A4FF00009A0
:1008B0004BE000BF41F20002C4F20102009F9042EF
:1008C00008BF022704F00C030F229A402BEA020211
:1008D00007FA03F34FEA9A051A4346F825204E68B3
:1008E00040F20C45F202DEF8082054BF22EA08026A
:1008F00042EA0802C4F20105CEF808202A68B302D1
:1009000054BF22EA080242EA08022A60B303DEF872
:10091000042054BF22EA080242EA0802F303CEF898
:100920000420DEF800204FF0010354BF22EA080241
:1009300042EA0802CEF800200E680AF1010A36FAEF
:100940000AF204F1040400F0998003FA0AFB16EAA3
:100950000B08F1D04E68664512DC122E56D8DFE83F
:1009600006F0350B4D495555555555555555555569
:1009700055555545510000BFD1F80C9046E000BFD9
:100980004FF6FF72C1F2210296420FDC0022C1F243
:10099000110296421AD00022C1F21202964215D0DC
:1009A0000022C1F22102964210D02FE00022C1F2B3
:1009B000220296420AD00022C1F23102964205D0AC
:1009C0000022C1F23202964220D100BF8A684AB1A9
:1009D000012A14BFC0F814B0C0F810B04FF00809D5
:1009E00014E000BF4FF0040910E000BFCA6802F134
:1009F00004090BE04FF0000908E000BFCA6802F1EB
:100A0000080903E0CA6802F10C0900BF0246264645
:100A1000B8F5807F24BF0432203E17680F25B5400B
:100A200027EA050509FA06F635431560CA79D206A4
:100A30007FF582AF41F21803C4F202031A68AEF5E3
:100A40007E7642F001021A601A6802F001020192F9
:100A5000019A2AF0030256F802B040F60002C4F2EE
:100A60000102904208D040F60042C4F201029042D6
:100A70007FF420AF012725E7002723E702B0BDE878
:100A8000F08F0000002A08BF0904016170470000D0
:100A900040F2C810C2F2000000687047002804BF8E
:100AA00001207047F0B581B0044690F83D0028B9A8
:100AB000002084F83C00204600F090F9242084F8BF
:100AC0003D002068016821F001010160016841F4E6
:100AD00000410160016821F40041016000F048FB21
:100AE000636848F2A16CC0F2010C40F60011C0F23C
:100AF0003D0163453CBF48F28041C0F21E0188427F
:100B000002D2012001B0F0BD4DF68361C4F21B3169
:100B1000A0FB01122168970CD1F804E04FF49676FF
:100B20002EF03F0545EA92454D60774348F638166A
:100B30000D6AC0F24106A7FB067625F03F07634524
:100B400038BF960C721C3A430A62CA6948F2A06622
:100B50004CF6FF77C0F20106B34222EA07020BD837
:100B600001385B00B0FBF3F001306FF31F30042855
:100B700098BF04201BE000BFA768013857B11927B0
:100B80007B43B0FBF3F001306FF31F3070B100F521
:100B9000804007E003EB4303B0FBF3F001306FF359
:100BA0001F3018B100F5004001E000BF01201043E4
:100BB000C8610868D4E9072320F0C0001043184337
:100BC0000860886848F2FF3204F10C0790438CCF2C
:100BD00018431043A6698860C86820F0FF003843B6
:100BE0003043C860086840F0010008600020202100
:100BF000206484F83D10206384F83E0001B0F0BD0D
:100C00002DE9F04383B01E46174689460446FFF798
:100C10003FFF94F83D10202924D10546206800BFED
:100C2000816989071AD5FFF733FF411B20681A290C
:100C3000F6D381698907F3D500202021206384F849
:100C40003D1084F83E00216C41F02001216484F8BD
:100C50003C00022003B0BDE8F08300BF94F83C10D4
:100C6000012903D1022003B0BDE8F083012184F8FB
:100C70003C100168C90703D1016841F0010101601E
:100C8000016840F2020821F400610160212184F82A
:100C90003D10102184F83E100021216467626685B2
:100CA000618DC0F201082185A8F10211E162E16ABB
:100CB0000A9E11F5803F18BF01291DD1016841F43A
:100CC0008071016020464FF00111002233460095EB
:100CD00001F044FC50B120680068C00544BF4FF4E7
:100CE00000702064012003B0BDE8F0832069B0F5F6
:100CF000804F07D1FE2015E00829DFD0216B122993
:100D0000DCD0DFE7062000EAD9102168F030086166
:100D100008F10601204632462B4601F005FD002869
:100D2000E0D1FF20216800EA090008612046414621
:100D300032462B4601F0F8FC0028D3D10020029067
:100D400020684169029180690290029806E000BF24
:100D5000204631462A4601F0A3FB18BB208D68B31C
:100D6000204631462A4601F04BFDD8B9606A216819
:100D7000024612F8013B0B616262628D013A6285A4
:100D8000228D531E23854F697F07E1D51B04DFD0D9
:100D9000437802300B616062608D01386085901E7F
:100DA0002085D5E7206C04289CD12068016841F497
:100DB00000710160012003B0BDE8F0832068016884
:100DC00041F400710160202084F83D00002084F887
:100DD0003E0084F83C0003B0BDE8F08310B586B057
:100DE000016845F20040C4F2000081424FF000016A
:100DF000CDE90411CDE9021102D006B010BD00BF4B
:100E000041F21804C4F20204216800F5384041F0B0
:100E100008012160216801F0080101910199C021B8
:100E20000291122103910321059102A9FFF722FDEE
:100E3000606840F400106060606800F40010019089
:100E4000019806B010BD000040F20C0040F2C8113D
:100E5000C2F20000C2F2000100780A681044086083
:100E60007047000080B542F20000C4F20200016841
:100E700041F010010160032000F08CF80F2000F019
:100E800005F800F027F8002080BD000070B540F2A2
:100E90000C06C2F2000640F214013278C2F20001E0
:100EA0004FF47A730968B3FBF2F20446B1FBF2F136
:100EB000084600F071FB0F2C4FF0010508D838B937
:100EC0004FF0FF3021460022002500F037F8746013
:100ED000284670BD82B041F21800C4F202000168D9
:100EE000022241F001010160016801F0010101915C
:100EF0000199416841F080514160406800F08050A4
:100F0000009000980420C4F20100016862F31A61A5
:100F1000016002B070470000002848BF704700F031
:100F20001F01012202FA01F11C2202EAD0004EF256
:100F30000012CEF2000281507047000010B54EF64C
:100F40000C5CCEF2000CDCF80030C3F3022E8EF005
:100F50000704042C28BF0424BEF103034FF0FF3E16
:100F60000EFA04F438BF0023A14399400EFA03F3AC
:100F70009A43114300F00F0200F160430901043A63
:100F800003F564436244002848BF02F10C03197062
:100F900010BD00004EF60C51CEF200010A684FF66B
:100FA000FF031A4060F30A2242F0806040F0FD70B7
:100FB00008607047002804BF012070472DE9F04306
:100FC00081B042F20008C4F202080446D8F80000DA
:100FD0000D4600F0070088420CD2D8F8000020F03F
:100FE00007002843C8F80000D8F8000000F0070008
:100FF000A8426CD1206841F204098107C4F20209B9
:1010000017D5410705D5D9F8001041F4E061C9F8BA
:101010000010010705D5D9F8001041F46051C9F856
:101020000010D9F80010A26821F0F0011143C9F8AE
:101030000010C00742D1D8F8000000F00700A84215
:101040000CD9D8F8000020F007002843C8F80000A9
:10105000D8F8000000F00700A84238D12068410706
:1010600007D5D9F80010E26821F4E0611143C9F80E
:101070000010000708D5D9F80000216920F460505D
:1010800040EAC100C9F80000D9F8002002F00C00C5
:10109000082841F20020C0F27A004DD143F6CC730B
:1010A000C2F38341C0F60003595CD20338D440F642
:1010B0000010C0F23D0048433EE000BF606859F8B0
:1010C000041C022808D0012826D1890306D4012057
:1010D00001B0BDE8F08300BF8901F8D5D9F8001050
:1010E00021F003010843C9F80000FFF7D1FC0646D0
:1010F00041F28837D9F80000616800F00C00B0EBCD
:10110000810F98D0FFF7C4FC801BB842F2D90320AE
:1011100001B0BDE8F08300BF8907D8D5DEE700BF86
:10112000D9F8002043F6CA73C2F34042C0F6000368
:101130009A5C4843B0FBF2F0D9F8001043F6B27263
:10114000C1F30311C0F60002515C40F2140220FA10
:1011500001F140F21000C2F200000068C2F2000289
:101160001160FFF793FE002001B0BDE8F08300009E
:1011700040F2140041F20401C2F20000C4F2020184
:101180000068096843F6C272C1F30221C0F600028A
:10119000515CC84070470000002804BF0120704720
:1011A0002DE9F04182B00446007841F20006C00704
:1011B000C4F202060CD0706800F00C00042840F065
:1011C00081803068800303D56068002800F0468184
:1011D000207880071BD5706810F00C0F09D070685C
:1011E00000F00C00082840F087807068C00300F110
:1011F00083803068800703D52069012840F02E8164
:101200003068616920F0F80040EAC1003060207861
:10121000000713D4207840072CD4E569002D00F096
:101220001881706800F00C00082840F0A780012D9C
:1012300040F00481012002B0BDE8F081A0690028DF
:1012400000F084800020C4F242200121C0F8801404
:10125000FFF71EFC054600BF706A800700F1B280F0
:10126000FFF716FC401B0228F6D9032002B0BDE8A8
:10127000F08100BFF0695FEAC00808D4F06940F06F
:101280008050F061F06900F080500090009847F2C3
:101290000007C4F200073868C00549D4386840F434
:1012A00080703860FFF7F4FB054600BF3868C00562
:1012B0003ED4FFF7EDFB401B6428F7D9032002B0B2
:1012C000BDE8F081706800F00C00082803D1706858
:1012D000C0033FF576AF61683068002900F00C81EB
:1012E000B1F5A02F00F00081B1F5803F40F01A81E8
:1012F00040F480301CE100BF2069002840F200006B
:10130000C4F2422000F0888001210160FFF7C0FB99
:10131000054600BF306880073FF572AFFFF7B8FBA6
:10132000401B0228F6D9032002B0BDE8F08100BFBF
:10133000E168306A002900F09D80052900F0928064
:10134000012940F0AF8040F00100B1E00020C4F27C
:1013500042200021C0F88014FFF79AFB054600BF29
:10136000706A80077FF556AFFFF792FB401B02289B
:10137000F6D9032002B0BDE8F08100BF0027C4F217
:10138000422700203866FFF783FB022D05460DD16A
:101390003068800140F1DE80FFF77AFB401B0228B5
:1013A0004FF00300F4D902B0BDE8F081306880014D
:1013B0004FD5FFF76DFB401B02284FF00300F5D916
:1013C000F1E700BF40F21400C2F20000006844F6EA
:1013D000D351C1F26201A0FB0101480A019000BF94
:1013E00000BF0198411E002801913FF413AF00BFD8
:1013F0000198411E002801913FF40CAF00BF0198F5
:10140000411E002801913FF405AF00BF0198411E25
:1014100000280191E4D1FDE600210160FFF738FBCF
:10142000054600BF306880077FF5F1AEFFF730FB5F
:10143000401B02284FF00300F4D9B4E77068216A1A
:1014400000F480328A4209D1616A00F47010884247
:1014500004D1002002B0BDE8F08100BF012002B03D
:10146000BDE8F08140F004003062306A40F00100D5
:101470001EE000BF20F001003062306A20F004005E
:101480003062FFF705FB054641F28837306A800776
:1014900020D5FFF7FDFA401BB8424FF00300F5D905
:1014A00081E700BF20F001003062306A20F00400C4
:1014B0003062FFF7EDFA054641F28837306A80075F
:1014C00008D4FFF7E5FA401BB842F7D9032002B071
:1014D000BDE8F081B8F1000F3FF59FAEF06920F054
:1014E0008050F06199E600BF40F4802030603068A1
:1014F00040F480301CE000BF20F480303060306861
:1015000020F480203060FFF7C3FA0546306880037E
:101510007FF55EAEFFF7BCFA401B64284FF0030076
:10152000F4D940E720F480303060306820F4802027
:101530003060FFF7ADFA0546306880033FF548AEEE
:10154000FFF7A6FA401B6428F6D9032002B0BDE8D5
:10155000F08100BF206AB0F5803F05D17168A268B4
:1015600021F40031114371607168626A21F47411D1
:1015700011430843706001203866FFF789FA04467A
:10158000306880013FF565AFFFF782FA001B022843
:101590004FF00300F4D906E7411E0020B0EB116FB5
:1015A0001CBF012070474EF21002CEF200025160C3
:1015B0004EF62351CEF20001F0230B70072190600C
:1015C00011607047704700007047000090F83C20A1
:1015D000012A04BF02207047B0B501F108053CCDD7
:1015E000D1E900CE23F47C5322F470521A432EF436
:1015F000F0431A432CF4E0431A4324F4C0431A4343
:101600002A43C96922F480420368114359640021C6
:1016100080F83C100020B0BD90F83C20012A4FF02B
:10162000020236D010B580F83D200268D2F804E0FE
:10163000D2F808C00C682EF07003234340F2FF7408
:10164000C4F20004A24253600ADCB2F1804F13D00E
:1016500040F20043C4F200039A420DD011E000BFF3
:1016600042F60043C4F201039A4205D040F600035B
:10167000C4F200039A4204D149682CF08003194354
:1016800091600121002280F83D1080F83C20BDE8E7
:101690001040104670470000002804BF012070472A
:1016A00010B590F83D1031B9002180F83C10044687
:1016B00000F070F82046022180F83D10016840F2E9
:1016C000FF740B68C4F2000442F6004CA142C4F25D
:1016D000010C15DCB1F1804F1AD040F20042C4F287
:1016E0000002914214D0A14218DCB1F1804F1DD00C
:1016F00040F20042C4F20002914217D01AE000BF4B
:10170000614505D040F60002C4F200029142EAD1E0
:10171000826823F070031343A142E6DD614505D0E2
:1017200040F60002C4F20002914203D1026923F4A0
:1017300040731343846923F08002D0F804E0C36847
:10174000224361450A60CB62C1F828E002D14269B8
:10175000CCF8302001224A610B69DB0703D00B690A
:1017600023F001030B6180F8462080F83E2080F8CA
:101770003F2080F8402080F8412080F8422080F807
:10178000432080F8442080F8452080F83D20002048
:1017900010BD0000006840F20041C4F20001884220
:1017A00018BF704780B582B041F21C00C4F202003D
:1017B0000168002241F0020101600068002100F090
:1017C0000200019001981D20FFF7B8FB1D2002B018
:1017D000BDE88040FFF7A0BB90F83D1001291CBF79
:1017E00001207047022180F83D10006840F2FF722E
:1017F000C168C4F20002904241F00101C16009DCFD
:10180000B0F1804F12D040F20041C4F20001884292
:101810000CD012E042F60041C4F20101884205D02A
:1018200040F60001C4F20001884206D1816801F04F
:101830000701062904BF00207047016841F001013B
:10184000016000207047000090F83C20012A4FF012
:1018500002026CD080B580F83D20D0F800C04FF671
:101860007772DCF8083023EA0202CCF808200B6813
:101870004F2B29DC1F2B45DD202B46D0302B44D0AD
:10188000402B40F0AF80D1F804E0C968DCF820308C
:10189000DCF8202022F00102CCF82020DCF818200F
:1018A00022F0F00242EA011123F00A0242EA0E029B
:1018B000CCF81810CCF82020DCF8081041F04701D3
:1018C00021F0300128E000BF6F2B33DDB3F5005F5E
:1018D00074D0B3F5805F21D0702B40F08380D1E9C4
:1018E00001E3C968DCF8082043EA0E0322F47F42D2
:1018F00043EA01211143CCF80810DCF8081041F04C
:10190000770109E00BB1102B6CD1DCF8081021F045
:101910007001194341F00701CCF8081000220121A1
:1019200080F83D10002180F83C10BDE88040104652
:10193000704700BF502B21D0602B53D1D1F804E069
:10194000C968DCF82030DCF8202022F01002CCF846
:101950002020DCF8182022F4704242EA013123F002
:10196000A00242EA0E12CCF81810CCF82020DCF8C5
:10197000081041F0670121F01001CDE7D1F804E033
:10198000C968DCF82030DCF8202022F00102CCF815
:101990002020DCF8182022F0F00242EA011123F0A6
:1019A0000A0242EA0E02CCF81810CCF82020DCF82B
:1019B000081041F0570121F02001ADE7D1E901E322
:1019C000C968DCF8082043EA0E0322F47F4243EAA8
:1019D00001211143CCF80810DCF8081041F48041D3
:1019E0009AE700BF01229AE7002804BF0120704750
:1019F0002DE9F04F81B090F83D2042B9002280F8E7
:101A00003C2004460D4600F09DF82946204602225F
:101A100080F83D20026844F20705936842F6004CC6
:101A2000AB43936040F2FF731468C4F200039A4220
:101A3000C4F2010C14DCB2F1804F19D040F2004521
:101A4000C4F20005AA4213D09A4217DCB2F1804FCB
:101A50001CD040F20043C4F200039A4216D01AE0B0
:101A6000624505D040F60005C4F20005AA42EBD15C
:101A7000856824F070042C439A42E7DD624505D066
:101A800040F60003C4F200039A4204D1036924F42F
:101A9000407543EA050424F080038469D0F804E02B
:101AA000C568234362451360D562C2F828E002D1BD
:101AB0004369CCF830304FF0010EC2F814E01569DC
:101AC000ED0703D0156925F0010515619568946946
:101AD000D2F820C0D1E90038D1E9027B43EA050AF7
:101AE0008D694FF6FF7924EA090447EA05254FF688
:101AF000FC47BD43D1E9077644EA0B040B692C434C
:101B000044EA07242CF02207496944EA031347EA10
:101B1000080743EA063347EA0111C2F808A09361B7
:101B2000116280F846E080F83EE080F83FE080F8FF
:101B300042E080F843E080F83DE0002001B0BDE8DD
:101B4000F08F000080B586B000680021B0F1804FB2
:101B5000CDE904110391029102D006B080BD00BF0F
:101B600041F21800C4F20200426842F001024260F1
:101B7000426802F001020192019A026842F00402F6
:101B80000260006800F00400019001980320CDE994
:101B900002010120049040F60000C4F2010002A9F5
:101BA000FEF768FE06B080BD80B590F83E2090F844
:101BB0003F3090F842E090F843C004290AD0B9B908
:101BC000012A4FF0010208BFBEF1010F34D01046C8
:101BD00080BD00BF012B4FF0010208BFBCF1010F17
:101BE000F5D1022180F83F1080F8431000681EE014
:101BF000012A4FF0010208BF012BE8D1BEF1010F0D
:101C0000E5D1BCF1010FE2D1022280F83E2080F83C
:101C10003F2080F8422080F8432091B10068016A9B
:101C200021F001010162016A41F00101016210210C
:101C30006FF0100209E000BF022180F83E1080F82A
:101C40004210006801216FF00102036A1A4002622B
:101C5000026A114301620168002241F00101016042
:101C6000104680BD7047000070B504460068C56826
:101C70000669B10716D515F0020113D06FF0020105
:101C80000161012121778069800703D02046FFF799
:101C9000E9FF05E0204600F0BBF8204600F052FACC
:101CA00000202077700719D515F0040016D02068A1
:101CB0006FF00401016102212177806910F4407FF7
:101CC00004D02046FFF7CEFF06E000BF204600F01C
:101CD0009FF8204600F036FA00202077300717D50D
:101CE00015F0080014D020686FF00801016104218C
:101CF0002177C069800703D02046FFF7B3FF05E0D6
:101D0000204600F085F8204600F01CFA00202077DD
:101D1000F00619D515F0100016D020686FF01001EC
:101D2000016108212177C06910F4407F04D020466A
:101D3000FFF798FF06E000BF204600F069F8204654
:101D400000F000FA00202077F00718BF15F001001E
:101D500002D1300609D412E020686FF00101016160
:101D6000204600F05FFA300609D515F0800006D055
:101D700020686FF0800101612046FFF723FC7006A8
:101D800009D515F0400006D020686FF040010161D0
:101D9000204600F081FBB00658BF70BD15F0200052
:101DA00008D021686FF0200220460A61BDE870402B
:101DB000FFF70ABC70BD000080B586B0014640F652
:101DC0000000C4F20100096800F5105291424FF082
:101DD0000001CDE90411CDE9021101D006B080BDAA
:101DE00041F21801C4F202010A6842F004020A60DA
:101DF000096801F00401019101994FF48071029189
:101E000002210391059102A9FEF734FD06B080BDC1
:101E10007047000090F83C30012B04BF022070474F
:101E20004FEAB202032A00F2F1802DE9F043DFE825
:101E300002F003A53B7500BF036842F600461D6A29
:101E40001A6AC4F2010622F001021A621A465C689C
:101E500052F818CFB3428E68D1F800E025F00205A1
:101E600045EA06050CD1CE68D1E9057824F4407422
:101E700025F00C0526F004063C43354344EA0804EB
:101E80002CF0730747EA0E075C609F614F68096991
:101E90005F631D629F6947F008079F619F6927F094
:101EA00004079F61A6E000BF036842F600461D6A72
:101EB0001A6AC4F2010622F480721A621A46D3F832
:101EC00004C052F81CEFB3428E680C6825F400750C
:101ED00045EA06250FD1CE68D1E90598360240F2D1
:101EE000FF4725F44065BE4335432CF4405748EA8C
:101EF000090647EA061C2EF073072743C3F804C0FF
:101F0000DF614F680969DF631D62DF6947F0080719
:101F1000DF61DF6927F00407DF616BE0036842F6E9
:101F20000047D3F820C01A6AC4F2010722F4805295
:101F30001A621A465C6852F81C5FD1F800E08E689D
:101F4000BB4204D14F6924F4804444EA87142CF442
:101F5000005747EA063725F4E64646EA0E265C6057
:101F6000DE614E6809691E641F62DF6947F400671D
:101F7000DF61DF6927F48067DF613AE0036842F6DA
:101F800000461D6A1A6AC4F2010622F010021A62A3
:101F90001A46D3F804C052F8184FB3428E68D1F8ED
:101FA00000E025F0200545EA06150FD1CE68D1E9FD
:101FB00005986FF0400725F0C00507EA061635437F
:101FC0002CF4406748EA090647EA860C24F4E64404
:101FD00044EA0E27C3F804C09F614F6809699F63F4
:101FE0001D629F6947F400679F619F6927F48067BE
:101FF0009F6109021368194311600021BDE8F04395
:10200000002280F83C200846704700BF01210022D2
:1020100080F83C2008467047002804BF0120704724
:1020200010B590F83D1031B9002180F83C100446FD
:1020300000F070F82046022180F83D10016840F25F
:10204000FF740B68C4F2000442F6004CA142C4F2D3
:10205000010C15DCB1F1804F1AD040F20042C4F2FD
:102060000002914214D0A14218DCB1F1804F1DD082
:1020700040F20042C4F20002914217D01AE000BFC1
:10208000614505D040F60002C4F200029142EAD157
:10209000826823F070031343A142E6DD614505D059
:1020A00040F60002C4F20002914203D1026923F417
:1020B00040731343846923F08002D0F804E0C368BE
:1020C000224361450A60CB62C1F828E002D142692F
:1020D000CCF8302001224A610B69DB0703D00B6981
:1020E00023F001030B6180F8462080F83E2080F841
:1020F0003F2080F8402080F8412080F8422080F87E
:10210000432080F8442080F8452080F83D200020BE
:1021100010BD0000006842F60041C4F2010188428F
:1021200018BF704781B041F21800C4F20200016884
:1021300041F400610160006800F4006000900098C4
:1021400001B0704770470000C1B1042908D00829C8
:1021500014BF41224022825C012A05D016E000BF54
:102160003F22825C012A11D10222082910D00429C1
:1021700014BF80F8412080F83F200BE090F83E200B
:10218000012A03D1022280F83E2003E0012070479B
:1021900080F84020006801F01F010122036A8A4094
:1021A00023EA02010162036A42F64441C4F20101DA
:1021B0001A43A1F14403984202620FD040F2FF712A
:1021C000C4F20001884213DCB0F1804F1CD040F211
:1021D0000041C4F20001884216D01CE00A6842F4B3
:1021E00000420A6040F2FF71C4F200018842EBDD58
:1021F00042F60041C4F20101884205D040F60001D8
:10220000C4F20001884206D1816801F00701062965
:1022100004BF00207047016841F001010160002007
:10222000704700002DE9F04F81B040F2780AC2F209
:10223000000ADAF80C0001F0FBFA41F27B4247F6A3
:10224000E123C4F2AE72C3F6847300F075FD00F0B2
:1022500041FD8146CAF80C0001F0EAFA40F2000B99
:10226000C2F2000BDBF80880054640460C4601F040
:10227000DFFA43F23333C3F6D3734FF033320746FA
:102280000E4601F04DF82A46234601F07BFB38BB91
:1022900047F6E1224EF24713CAF61462C3F6DA7328
:1022A0003846314601F03CF83A46334601F038F8FA
:1022B0000B464CF600010246C4F2B901002000F0C2
:1022C000EFFD2A46234601F02BF82A46234601F06B
:1022D00027F800F0B5FC00F07BFFAAF804007EE0D0
:1022E00046F26663C3F6E673384631464FF066320F
:1022F00001F016F82A46234682468B4601F042FB3F
:1023000050B94846494601F0BFFA01F091FA5246E9
:102310005B4600F0C5FD4DE04046494601F055FBE7
:1023200030B940F2780AC2F2000ABAF8040052E06A
:1023300048464FF0404101F0FBFC494601F0F8FCF3
:1023400001F076FA47F6E1224EF2471304460D46B5
:10235000CAF61462C3F6DA733846314600F0E0FF7D
:102360003A46334600F0DCFF02460B46204629463B
:1023700000F096FD0D4600210446C4F2483148465F
:1023800001F0D6FC00210646C4F2A811404601F037
:10239000CFFC0146304601F039FB01F049FA024614
:1023A0000B462046294600F0C7FC00224FF0404370
:1023B00000F0C2FC4CF60003C4F2A903002200F0B6
:1023C000AFFF00F03DFC00F003FF40F2780AC2F2DC
:1023D000000AAAF8040040F2000BC2F2000BDAF87F
:1023E000241064224F6AAAF80270BAF80010C01BC9
:1023F000791A01FB02F4AAF8060000B2AAF80A4012
:1024000001F016FC8046DBE9005620B201F010FC1A
:10241000314601F08DFC06464046294601F088FC15
:10242000314601F051FD01F0E7FB6428AAF80800ED
:10243000AAF8007004DB6320AAF808000BE000BFD4
:1024400010F1640F04DC6FF06200AAF8080005E0E8
:10245000B0F1FF3F02DD0024012201E0012400224F
:1024600040F60045C4F2010528460121FEF70AFBAB
:10247000284602212246FEF705FBBAF8080040F282
:10248000381100B2C2F20001002848BF404209687A
:10249000486301B0BDE8F08F70470000FEE7000020
:1024A00070B50368044653F8140F400711D40E4664
:1024B000481C29D086BB00BF1868400527D4FEF70A
:1024C000E7FA236853F8140F400737D51868400718
:1024D000F2D5002070BD00BF18684007F9D4186815
:1024E000400514D418684007F3D4186840050ED48A
:1024F00018684007EDD41868400508D418684007EC
:102500004FF0000048BF70BD18684005E4D56FF477
:1025100080601860042012E0154603E053F8140FA1
:102520004007D6D418684005F1D4FEF7B1FA401B35
:102530002368B042F2D958694007EFD42020002127
:102540002022216384F83D2084F83E10226C104341
:102550002064012084F83C1070BD00002DE9F0419A
:10256000054600681E46144601F47F0201338FB20F
:1025700042D0DDF81880B2F5803F40F08780406996
:102580003840C01BB0FA80F04009A04240F0C8803B
:102590004EB924E040693840C01BB0FA80F04009D1
:1025A000A04240F0BD80FEF773FAA0EB0801286856
:1025B000B142EFD941693940C91BB1FA81F14909EA
:1025C000A142E7D19BE000BF40693840C01BB0FA90
:1025D00080F04009A0424FF0000040F0A280FEF7DA
:1025E00057FA286841693940C91BB1FA81F1490994
:1025F000A142E9D183E000BFB2F5803F24D100BF02
:1026000041693940C91BB1FA81F14909A14240F041
:10261000878041693940C91BB1FA81F14909A1425A
:1026200040F07E8041693940C91BB1FA81F1490906
:10263000A14275D141693940C91BB1FA81F14909FB
:10264000A142DDD06CE000BF81693940C91BB1FAFD
:1026500081F14909A14263D181693940C91BB1FAAD
:1026600081F14909A1425BD181693940C91BB1FAA5
:1026700081F14909A14253D181693940C91BB1FA9D
:1026800081F14909A142DFD04AE000BF80693840AA
:10269000C01BB0FA80F04009A04241D146B923E006
:1026A00080693840C01BB0FA80F04009A04237D1A1
:1026B000FEF7EEF9A0EB08012868B142F0D9816974
:1026C0003940C91BB1FA81F14909A142E8D116E0AC
:1026D00080693840C01BB0FA80F04009A0424FF03A
:1026E000000018BFBDE8F081FEF7D2F928688169C3
:1026F0003940C91BB1FA81F14909A142E8D1002052
:102700002021286385F83D1085F83E00296C41F0B2
:102710002001296485F83C000120BDE8F08100BF5C
:102720000020BDE8F0810000F0B581B004460068EB
:102730001D4643698FB203EA0701B94202D1002066
:1027400001B0F0BD4169164601323CD0490512D4B2
:102750007EB300BFFEF79CF9411B2068B14203D94C
:1027600041693940B9422BD141693940B942E6D07B
:1027700041694905EED5016841F4007101606FF4CB
:1027800080614161042000212022216384F83D20E2
:1027900084F83E10226C1043206484F83C10012021
:1027A00001B0F0BD41693940B942C8D0416949051D
:1027B000E1D4FEF76DF9206841693940B942F1D0A2
:1027C0002020E0E741694905D5D441693940B94243
:1027D000B5D041694905CED441693940B942AED03E
:1027E00041694905C7D441693940B942A7D0416917
:1027F0004905C0D441693940B942E3D19FE700009F
:1028000070B50368044653F8140F000611D40E4641
:10281000481C29D086BB00BF1868400527D4FEF7A6
:1028200037F9236853F8140F000637D518680006E7
:10283000F2D5002070BD00BF18680006F9D41868F2
:10284000400514D418680006F3D4186840050ED467
:1028500018680006EDD41868400508D4186800060A
:102860004FF0000048BF70BD18684005E4D56FF414
:1028700080601860042012E0154603E053F8140F3E
:102880000006D6D418684005F1D4FEF701F9401BC4
:102890002368B042F2D958690006EFD42020002105
:1028A0002022216384F83D2084F83E10226C1043DE
:1028B0002064012084F83C1070BD0000FEE7000099
:1028C000FEE700007047000070470000FEF7BCBA4A
:1028D0007047000040F28010C2F20000FFF7C4B958
:1028E000FEE7000096B0FEF7BDFA4FF480300024FA
:1028F0000125039002A8CDE90A44CDE90844CDE9B9
:102900000644CDE904440295FEF746FC20B1EFF3FE
:10291000108072B6FEE700BF0F20CDE90C050CA8B1
:102920000021CDE90E441094FEF744FB20B1EFF3F3
:10293000108072B6FEE700BF002541F21800CDE915
:102940000455CDE90255C4F20200016840F6004486
:1029500041F0200101600168C4F2010401F020018E
:102960000C910C990168002241F00401016001689A
:10297000032601F004010C910C99016841F0080153
:1029800001600068032100F008000C900C982046BC
:10299000FEF778F80120CDE903050220059002A991
:1029A00020460296FDF766FF40F2381004F500510C
:1029B000C2F200006323CDE914550895182280E87F
:1029C0002600C0E90335C0E90555FFF725FB28B10E
:1029D000EFF3108072B600BFFEE700BF40F2381080
:1029E000C2F2000014A9FEF717FE28B1EFF3108021
:1029F00072B600BFFEE700BF60200C90C7200D90AC
:102A000040F238100025C2F200000CA90022CDE9E6
:102A10000E55CDE910551295FFF7FCF920B1EFF3F3
:102A2000108072B6FEE700BF4FF40050079040F2EE
:102A30003810C2F2000002A90695CDE90455CDE98F
:102A400002550995FEF7C2FD20B1EFF3108072B672
:102A5000FEE700BF40F23810C2F20000FFF7ACF909
:102A600040F27807C2F200074FF08042384600215A
:102A700040F8242F4FF6FF72C0E903210322CDE96D
:102A800002210122CDE90C11C0E901118161CDE9DA
:102A90000421CDE90611CDE908210A9102A9FEF72A
:102AA000A3FF28B1EFF3108072B600BFFEE700BFAE
:102AB00007F124050CA92846FEF7AEFD20B1EFF37F
:102AC000108072B6FEE700BF40F280100021A4F52E
:102AD0008432C2F20000632340F21F360591CDE933
:102AE0000311CDE90C11C0E90023C0E90216016110
:102AF0008161FEF7D1FD28B1EFF3108072B600BFFF
:102B0000FEE700BF4FF48050029040F28010C2F206
:102B1000000002A9FEF798FE20B1EFF3108072B614
:102B2000FEE700BF40F28010C2F200000CA9FEF7E1
:102B300073FD18B1EFF3108072B6FEE740F2E400C7
:102B4000A4F53841C2F2000048F2A06200234FF41D
:102B50008046C0F2010280E80E00C0E90336C0E9F9
:102B60000533C0E90733FDF799FF18B1EFF3108083
:102B700072B6FEE728460421FFF716F840F2381037
:102B8000C2F200000021FFF7DFFA40F28010C2F22B
:102B90000000FEF721FE07F1180440F2E4010226CE
:102BA000C2F2000120464E2210230096FDF760FC81
:102BB000204600210022FDF7C3FD1BA12046FDF7A2
:102BC00005FE204600210122FDF7BAFD19A120468D
:102BD000FDF7FCFD43F6DC7607F11005C0F60006B4
:102BE0004FF47A70FDF732FEB7F9042028463146DB
:102BF000FDF704FB204609210022FDF7A1FD204638
:102C00002946FDF7E3FDB7F9022028463146FDF7D6
:102C1000F5FA204608210122FDF792FD20462946BB
:102C2000FDF7D4FDDCE700BF4465736972653A20A7
:102C300000000000526573756C743A2000000000BB
:102C40002DE9F04D07460E4600F09EFC04460D4669
:102C50003A46334600F0F2FCDFF86CA0DFF86CB0C7
:102C60001B4B0746884616F0004F4FF000020AD073
:102C700000F01AFB0AD900225B463846414600F0B4
:102C80004DFC1BD212E000F00FFB08D2002253468D
:102C90002046294600F0DEFC04460D460EE00022E8
:102CA0005B463846414600F039FC07D800225346BF
:102CB0002046294600F040F804460D46314620469D
:102CC00065F31E01BDE8F08D0000F03F0000E03F1D
:102CD0000000E0BF21F0004201F00043A2F1605289
:102CE000B2F5801F28BFD2F17F6C0BD95FEA001CC0
:102CF00043EAC20242EB507018BF704728BF20F071
:102D000001007047B2F5801FBCBF184670474FEAFC
:102D1000410C1CF5001F02D2084601F0D0B870B576
:102D200000F0A8FB00000089FFF7F6BF4FF000405D
:102D3000A0F580007047000010B591EA030F48BF6E
:102D400083F0004300F18E84841A71EB030C05D2EA
:102D5000121943EB0C03001B61EB0C014FEA1154F9
:102D6000A4EB135CDFF81CE11EEA430F18BF9EEAD8
:102D7000445F00F0748021EA045123EA0E0343F417
:102D80008013DCF1200E32D322FA0CFE10EB0E0081
:102D900023FA0CFE41EB0E01CCF1200E03FA0EFEDD
:102DA00010EB0E00CCF1200E51F10001B1F5801FA7
:102DB00032D201EB045112FA0EF2BDE8104058BFB6
:102DC0007047401C38BF5FEA420218BF70470028B6
:102DD00014BF20F0010041F100014FEA410313F557
:102DE000001F38BF7047A1F1C04100F091BB012A1C
:102DF00043EB0302ACF1200CDCF11F0E32BF4FF0AD
:102E0000000E23FA0CF310EB030041EB0451B4EB7A
:102E1000115FD0D0A1EB045101F58011490801EBFD
:102E200004515FEA30000ED350F1000038BF12FAAF
:102E30000EFE08D1BDE81040C9E7401C38BF5FEA6C
:102E40004202CAD1C3E7BDE810404FEA410313F57F
:102E5000001F38BF7047A1F1C04100F059BB9EEA86
:102E6000445F08D011EA5E0FBDE8104004BF01F0D6
:102E7000004100207047BDE8104070B500F0FAFA3C
:102E800064FBBE3E0000E0FF491058BFC1F1404165
:102E90005B1058BFC3F140438B42EFF30080704793
:102EA0002DE9C04130B4DFF8A8C23CEA111418BFC4
:102EB0003CEA131400F0F0801CEA111481EA0305C7
:102EC00044EAD57418BF1CEA131500F0CB80A4EBBC
:102ED000050404F17F7404F500344FF0004545EA21
:102EE000C12145EAC32341EA505143EA52534FEA14
:102EF000C0204FEAC222994208BF904200F0A08051
:102F00004FEA13650FF24816765D4FEA134506FB4C
:102F100005F7C7F1807706FB07F74FEAD737A7FB1E
:102F200003687642A7FB06CEC8F5803838BFA8F103
:102F3000010807FB08E6A6FB028C4FF0000EE6FB3B
:102F400003CED8F100086FEA0C0C5CF1000C6FEABC
:102F50000E0E4EF1004EA6FB0C584FF00007E6FB9C
:102F60000E87A1FB08C6A0FB07CE16EB0E064FF09E
:102F7000000545F10005E1FB076515F1E04E7EBF58
:102F8000A4F580345FEA46066D4116F1800745F1ED
:102F900000054FEA172747EA05674FEA15254FEA6C
:102FA0000666A6F1DE46B6F1805F20D9384605EB0D
:102FB000C47124F0010C01EB0C11BCF1FE6F02D8BE
:102FC000F0BCBDE8008124425CBF01F5801E9EEA92
:102FD000C47F02D4F0BCBDE80081244200F13980F6
:102FE000A1F1C041F0BCBDE8004100F091BA4FEA48
:102FF000D02040EA41504FEAD1214FEAD22242EAA2
:1030000043524FEAD323A7FB028607FB036605FB67
:1030100002661EEA0E0F58BFA6EB0056B6EB00562E
:103020004FEA520E4EEAC37E18EB0E0E56EB530ECD
:10303000BCD518EB02085E417F1C55F10005B5E7D1
:103040004FF480154FF000074FF000064FF00008D6
:10305000ACE701F1C04101F000414FF00000F0BCCD
:10306000BDE800810CEA131511EA0C1F00D00CE03A
:1030700013EA0C1F00F025804FF0000081EA0301E5
:1030800001F00041F0BCBDE80081F0BCBDE80041AA
:1030900081EA030100F03CBAF0BCBDE8004170B524
:1030A00000F0E8F9097EFC3E00F007B84FF00000A0
:1030B00081EA030101F00041704781EA030100F059
:1030C00027BAF0BCBDE8004122494FF0000070472C
:1030D000FFFDFBF9F7F5F4F2F0EEEDEBE9E8E6E4DD
:1030E000E3E1E0DEDDDBDAD8D7D5D4D3D1D0CFCD64
:1030F000CCCBCAC8C7C6C5C4C2C1C0BFBEBDBCBB9D
:10310000BAB9B8B7B6B5B4B3B2B1B0AFAEADACAB97
:10311000AAA9A8A8A7A6A5A4A3A3A2A1A09F9F9E71
:103120009D9C9C9B9A999998979796959594939323
:10313000929191908F8F8E8E8D8C8C8B8B8A8989BA
:10314000888887878685858484838382828181803D
:103150000000FF070000F87F51EA030C17D41CF5AC
:10316000801F58BFBCF5801F00F10680994218BF30
:10317000704708BF9042704707D711F5801F58BFAE
:1031800013F5801F19D499427047894270471CF586
:10319000801F08D5BCF5801FF7D58B4218BF70473C
:1031A00008BF824270474FF4001C1CEB410F38BF30
:1031B0001CEB430F01D28B42704770B500F05AF9F7
:1031C000922449004FF000514FF08053FFF75CBE4E
:1031D0004FEA41034FEA5353A3F58063D3F11E0333
:1031E000C8BFD3F1210C0CDD4FF0004242EAC122EE
:1031F00042EA505232FA03FC8CEAE17CACEBE1701B
:103200007047102BC4BF0020704703F5787CBCF1D9
:10321000FF3F04D06FF0004282EA2100704770B592
:1032200000F028F94992248000207047F2E700005E
:1032300051EA030C17D41CF5801F58BFBCF5801F42
:1032400000F10680994218BF704708BF904270474E
:1032500007D711F5801F58BF13F5801F19D4994265
:103260007047894270471CF5801F08D5BCF5801F48
:10327000F7D58B4218BF704708BF824270474FF4A2
:10328000001C1CEB410F38BF1CEB430F01D28B42DB
:10329000704770B500F0EEF8922449004FF080516D
:1032A0004FF00053FFF7F0BD51EA030C17D41CF5A3
:1032B000801F58BFBCF5801F00F10680994218BFDF
:1032C000704708BF9042704707D711F5801F58BF5D
:1032D00013F5801F19D499427047894270471CF535
:1032E000801F08D5BCF5801FF7D58B4218BF7047EB
:1032F00008BF824270474FF4001C1CEB410F38BFDF
:103300001CEB430F01D28B42704770B500F0B2F84E
:10331000922449004FF000514FF08053FFF7B4BDA5
:1033200070B5DFF848C11CEA111E1EBF1CEA131558
:103330009EEA0C0F95EA0C0F00F06F8081EA0304FF
:103340004EEAD47EAE4421EA4C1123EA4C1341F4F8
:10335000801143F48013AEF17F7EA1FB024CA0FBF1
:103360000365361955EB0C05A1FB034C4CF100032A
:10337000A0FB021C16EB0C06654153F10003094249
:1033800018BF46F0010613F4007F0BD14FEA03315A
:103390004FEA053041EA155140EA165034036FF008
:1033A00003020AE04FEAC3214FEAC52041EA555122
:1033B00040EA5650F4026FF0020202EB2E4201EB9B
:1033C000025585EACE710AD05FEA440C18BF24F09A
:1033D000004450F1000041F1000120EAD47040F2B5
:1033E000FE7C624500D270BDA84214BF4FF08044FD
:1033F0004FF04044002E08BF0024BEF1806FA8BFEC
:10340000A1F1C041BDE8704080F2828001F1C0416D
:1034100001F000414FF0000070470CEA13159EEADE
:103420000C0F18BF95EA0C0F06D081EA030E4FF07F
:1034300000000EF0004170BD00F01CF88900013E54
:1034400000F007B800F009B84FEA430C5FEA5C5C93
:1034500008D081EA030100F05BB84FEA410C5FEA53
:103460005C5CF6D102494FF0000070470000FF0796
:103470000000F87F0EF1020E2EF0030E5EF8046BD2
:10348000364205D4012A43EB030515F5001F12D877
:10349000012841EB010C1CF5001F0CD80ED14FEA9E
:1034A000D17C0CEB4C0C0CF1020C15F5001F08BF85
:1034B0004CEBD37C04E04FF0080C01E04FEAD37CE6
:1034C0000CEB4C0526FA05F606F00706B6F1040CDF
:1034D00006D20EEB860CBDE870404CF0010C604744
:1034E000DFE80CF0090B02024FF00041A1F50021CA
:1034F0004FF0000070BD19461046012851EB010441
:1035000018BFD4F5001484BF002001F0004170BD45
:103510000808A0F500114FEA3101704753EA010C89
:1035200017D41CF5801F58BFBCF5801F00F1068022
:103530008B4218BF704708BF8242704707D713F508
:10354000801F58BF11F5801F19D48B4270479B42D2
:1035500070471CF5801F08D5BCF5801FF7D5994230
:1035600018BF704708BF904270474FF4001C1CEB17
:10357000430F38BF1CEB410F01D2994270470FB483
:103580000CBC03BCFFF7C1BE5FEA410C5FEA5C5CA8
:10359000ACF580635B1C39D4D3F1340240F3458031
:1035A000B2F1200314DA4FF0010C0CFA02FCACF17A
:1035B0000103034020EA0300B3EB5C0208BF10EAFA
:1035C0000C0F98BF704710EB0C0041F100017047E1
:1035D0000AD0C3F1200201FA02FC01284CF10000DC
:1035E00021FA03F101FA03F14FF0010C0CFA03FC8C
:1035F000ACF1010321EA0301B0F1004F08BF11EA69
:103600000C0F4FF0000088BF61447047B3F1FF3FDB
:1036100028BF50EAC12C01F000414FF0000084BFE8
:1036200041F07C5141F470017047B3F5806FB8BF31
:10363000704770B5FFF71EFF40DBB6BE10B591EACC
:10364000030F81F000413FF57FAB83F0004300F0B2
:1036500009B8000010B591EA030F48BF83F000439A
:103660003FF572AB841A71EB030C07D28CF0004C5F
:10367000121943EB0C03001B61EB0C014FEA1154D0
:10368000A4EB135CDFF8A4E11EEA430F18BF9EEA27
:10369000445F00F0B48021EA045123EA6E035242F1
:1036A000C3EB6E0338BF5B1EDCF1200E25D322FA7C
:1036B0000CFE10EB0E0043FA0CFE41EB0E01CCF1B8
:1036C000200E03FA0EFE10EB0E00CCF1200E51F18D
:1036D000000129D401EB045112FA0EF2BDE81040AA
:1036E00058BF7047401C1CBFB2F1004F7047002804
:1036F0000CBF491C20F00100704712EB020E43EB97
:10370000030218BF4FF0010E4EEA4202ACF1200C4A
:10371000DCF11E0E56D943FA0CFE10EB0E00CCF174
:103720001E0E51F1FF31D5D50EF1010E12FA0EFE2B
:10373000404141EB010101EB445C5FEA5C5C10D964
:1037400001EB045110EBDE7038BFBEF1004FBDE855
:10375000104018BF704700280CBF491C20F0010022
:10376000704734D24FEAD42C24F4006411F50011D0
:103770001BD0B1FA81F20B3AA41AA41ED2F1200395
:10378000914030FA03F31943904001EBCC7101EB07
:103790000451002CBDE81040A8BF704701F1C041A2
:1037A00001F000414FF000007047B0FA80F310FACA
:1037B00003F102D1BDE810407047E41A173C4805F8
:1037C000C90AE2E701EB0451BDE810407047491017
:1037D0004FEA300001EB0451BDE8104002E04FF029
:1037E000000170474A0008BF0042F8D0B2F5001F40
:1037F00028BF704701F000414FF0000070479EEA7B
:10380000445F07D011EA5E0FBDE8104004BF0021FD
:1038100000207047BDE8104070B5FFF72BFE00BFD9
:1038200040DFF63E104683F0004170470000E0FFA5
:1038300043004FEAD30C4FEA3C0C43401FBF400704
:103840000CF1605113F0FE4F70471CF0006F03D174
:103850000CF00041002070470CF0004343EA507028
:1038600040EACC0010B500F0E4FA00BF000000927E
:103870004FEA0001FFF74CBE4FF00041A1F50021D7
:103880004FF000007047000090EA010F48BF81F040
:10389000004100F12083421A3CBF801A89184FEA88
:1038A000D052A2EBD1534FF07F4C1CEA410F18BF0E
:1038B0009CEA026F00F03B804FF0004C4CEA002085
:1038C0004CEA012121FA03FC10EB0C0C1ED202F190
:1038D000FF325FEA1C2040EBC25038BF70471CF03B
:1038E0007F0F4FEA400C18BFBCF17F4F38BF7047C5
:1038F000C3F12003994008BF20F00100BCF17F4FC5
:1039000038BF7047A0F1C04000F0D9BA4FEA3C0080
:10391000000A40EBC25028BF1CF0FF0F4FEA400CDA
:10392000E6D018BFBCF17F4F38BF7047EAE79CEA8A
:10393000026F05D010EA5C0F08BF00F0004070472E
:1039400010B500F076FA00BF64FBBE3E10B5FFF77D
:1039500003FC0CBF0120002010BD10B5FFF7FCFBDD
:1039600014BF0120002010BD10B5FFF761FC8CBF13
:103970000120002010BD10B5FFF75AFC2CBF01201C
:10398000002010BD10B5FFF78FFC94BF0120002070
:1039900010BD10B5FFF788FC34BF0120002010BD1A
:1039A00010B500F0F5F80CBF0120002010BD10B5D7
:1039B00000F0EEF814BF0120002010BD10B500F09B
:1039C0004FF98CBF0120002010BD10B500F048F960
:1039D0002CBF0120002010BD10B500F075F994BF78
:1039E0000120002010BD10B500F06EF934BF012099
:1039F000002010BD401058BFC0F14040491058BFD2
:103A0000C1F140418142EFF3008070474FF47F0CD9
:103A10001CEAD0121EBF1CEAD11392EA0C0F93EAE3
:103A20000C0F00F0858090EA010F48BF42F48072CD
:103A300040F4000C41F400002CF07F4120F07F4066
:103A400000B5A2EB030281420FF2081CACEB504E12
:103A50009EF800E0C0F100004FEA4E0E00FB0EFCA5
:103A600038BF49004FEA2C1C0CFB0EF34FEACE1E68
:103A70000EEB635E4FEA112C0EFB0CFC4FEAC121EA
:103A80004FEA1C5300FB031102F5FA024FEA112C16
:103A90000EFB0CFC4FEA01314FEADC4C00FB0C1131
:103AA00042EB2242C14228BF09184CEB03335DF8B8
:103AB00004EB10EB410143EBC250B2F57C0F38BF71
:103AC000704729D512F0F00F1CBF00F1C04000F084
:103AD00000407047008182838485868788898B8C2B
:103AE0008D8E8F919293959697999A9C9D9FA0A267
:103AF000A3A5A7A8AAACAEB0B2B3B5B7B9BCBEC0B7
:103B0000C2C5C7C9CCCED1D4D7D9DCDFE2E6E9EC57
:103B1000F0F3F7FAFE0000004FEA400C0CF1807C55
:103B2000BCF17E4F28BF7047B0F1C04000F0C7B96C
:103B30000CEAD11390EA010F48BF42F4807262454B
:103B400038BF634507D213F47F0F16D080EA010017
:103B500000F00040704710B500F06BF9097EFC3EA4
:103B600000F005B880EA010000F00040704780EAEC
:103B7000010000F0004000F0A2B912F47F0F04BF72
:103B80000248704780EA010000F099B90000C07F48
:103B900050EA010C00F113801CF5000F58BFBCF572
:103BA000000F01D48842704707D710F5000F58BFA7
:103BB00011F5000F15D488427047894270471CF5F3
:103BC000000F04D5BCF5000FF7D5814270474FF0C8
:103BD000807C1CEB400F38BF1CEB410F01D28142AF
:103BE000704710B500F025F9922449004FF00050BD
:103BF0004FF08051FFF7FEBE41000B0ED3F19E0245
:103C000008D950F400034FEA032323FA02F048BF17
:103C10004042704710B500F00CF900BF4992248073
:103C2000002070476FF0004282EA200070470000D9
:103C300010F0004148BF4042B0FA80F310FA03F29E
:103C4000C3F19D030BD051EAC35101EB122053067F
:103C500038BF704700F1010008BF20F00100704735
:103C600050EA010C00F113801CF5000F58BFBCF5A1
:103C7000000F01D48842704707D710F5000F58BFD6
:103C800011F5000F15D488427047894270471CF522
:103C9000000F04D5BCF5000FF7D5814270474FF0F7
:103CA000807C1CEB400F38BF1CEB410F01D28142DE
:103CB000704710B500F0BDF8922449004FF08050D5
:103CC0004FF00051FFF796BE50EA010C00F113804F
:103CD0001CF5000F58BFBCF5000F01D48842704797
:103CE00007D710F5000F58BF11F5000F15D4884203
:103CF0007047894270471CF5000F04D5BCF5000FD2
:103D0000F7D5814270474FF0807C1CEB400F38BFE5
:103D10001CEB410F01D28142704710B500F089F8C9
:103D2000922449004FF000504FF08051FFF762BEDF
:103D30004FF47F0C1CEAD0121EBF1CEAD11392EA8A
:103D40000C0F93EA0C0F00F0478090EA010F48BF78
:103D500042F480724FF0004C4CEA00204CEA012102
:103D600002EB0302A0FB0113A2F50002002918BF19
:103D700043F001035B0028BF4FEA330342EB2242CA
:103D80005FEA132C4CEBC2502EBFBCEB436FB2F575
:103D90007C0F70474FEA036CBCF1004F08BF20F066
:103DA0000100B2F57C0F38BF70470BD582F0FF02DF
:103DB00012F5803FC8BF704700F1C040D8BF00F087
:103DC0000040704700F5000C5FEA4C0C48BF70479C
:103DD000B0F1C04000F073B80CEAD11390EA010FC3
:103DE00048BF42F48072624538BF634504D280EA1E
:103DF000010000F00040704710B500F01AF800BF55
:103E00008900013E00F007B800F009B85FEA410CF4
:103E10005FEA1C6C08D080EA010000F050B85FEA4D
:103E2000400C5FEA1C6CF6D14FF00040A0F580001A
:103E300070470EF1020E2EF0030E5EF8044B244282
:103E400004D44FEA4102B2F17F4F11D84FEA400348
:103E5000B3F17F4F0CD80ED14FEAD07C0CEB4C0C59
:103E60000CF1020CB2F17F4F08BF4CEBD17C04E0A7
:103E70004FF0080C01E04FEAD17C0CEB4C0324FA24
:103E800003F404F00704B4F1040C06D20EEB840C26
:103E9000BDE810404CF0010C6047DFE80CF007086B
:103EA00002024FF00040A0F5800010BD084642001D
:103EB00018BFD2F1807288BF00F0004010BDFF2112
:103EC00041EAD050C005704790EA010F48BF81F029
:103ED00000413FF5E0AC421A04D882F00042A0EB6A
:103EE000020011444FEAD052A2EBD1534FF07F4C65
:103EF0001CEA410F18BF9CEA026F4AD04FF0004CF9
:103F00004CEA00204CEA012121FA03FCB0EB0C0C36
:103F10000FD412F0FE0F36D05FEA4C001DD5001210
:103F200040EBC25038BF70471CF03F0F18BF7047BE
:103F30000BE05FEA1C20A2F1010240EBC25038BF47
:103F400070471CF07F0F18BF7047C3F120039940E2
:103F500014BF401E20F0010070474FEA1223800872
:103F600008BF7047B0FA80FCA2EB0C02CCF1280C21
:103F700060FA0CF093EA122F04BF00EBC2507047B6
:103F80004FEAC3707047130A5FEADC1008BF70473E
:103F9000F6E79CEA026F04D010EA5C0F08BF00202D
:103FA000704710B5FFF745FF40DFF63E81F0004057
:103FB0007047000000000000000001020304060733
:103FC00008090000000001020304010202030405C5
:103FD000060708090A0B0C0D0E0F101025640000CF
:103FE00000400008000000201800000050010008F8
:103FF0001840000818000020B807000070010008F1
:10400000000080400000803F0000104101000000DF
:084010001000000000127A000C
:04000005080000ED02
:00000001FF
