:020000040800F2
:1000000010070020BD010008A5210008811D00087F
:10001000A1210008C9050008B9210008000000005E
:10002000000000000000000000000000AD210008FA
:10003000A509000800000000A9210008B12100085E
:10004000D7010008D7010008D7010008D701000830
:10005000D7010008D7010008D7010008D701000820
:10006000D7010008D7010008D7010008D701000810
:10007000D7010008D7010008D7010008D701000800
:10008000D7010008D70100080D050008D7010008B6
:10009000D7010008D7010008D7010008D7010008E0
:1000A000D7010008D7010008D7010008D7010008D0
:1000B000D7010008D7010008D7010008D7010008C0
:1000C000D7010008D7010008D7010008D7010008B0
:1000D000D7010008D7010008D7010008D7010008A0
:1000E000D7010008D7010008D701000800F002F886
:1000F00000F055F814A696E8000CB244B344DA4573
:1001000001D100F04CF8BAE80F000FA696E83000D5
:10011000A5EB040504EB0607AAEB0704A7F101070A
:100120004FEA15154FEA3414A4F10104AC4201D38F
:1001300000F035F813F0010F18BFFB1A43F001036C
:1001400000F001F8DBE71847542200007422000099
:10015000103A24BF78C878C1FAD8520724BF30C8F3
:1001600030C144BF04680C60704700007047000055
:100170000023002400250026103A28BF78C1FBD8B0
:10018000520728BF30C148BF0B607047752900F087
:100190004980002070471FB51FBD10B510BD00F08D
:1001A0007AF91146FFF7F7FF02F008F800F098F926
:1001B00003B4FFF7F2FF03BC00F0A0F90948804741
:1001C00009480047FEE7FEE7FEE7FEE7FEE7FEE739
:1001D000FEE7FEE7FEE7FEE704480549054A064B51
:1001E00070470000B5210008ED0000081001002054
:1001F0001007002010030020100300200FB41CB5CE
:10020000074B06AA7B4469460090059800F02BF93D
:100210000020694600F03AF91CBC5DF814FB0000B0
:10022000850200002DE9F04106460024106875297A
:10023000314616A510D0AFF30080002802DA404204
:1002400013A507E031688A0701D512A502E0490726
:1002500004D511A5012401E0AFF3008000210A229A
:1002600006F1240709E0B0FBF2FCB0FBF2F302FB5D
:100270001C00303078541846491C0028F3D123461E
:100280002A463046BDE8F04100F08EB8000000007C
:100290002D0000002B000000200000002DE9F0419F
:1002A0000F460546002028622846E968884770B353
:1002B000252805D0D5E901219047286A401CF2E79E
:1002C000E9682846002688476C2804460AD0682C2E
:1002D00008D04C2C35D06A2C31D0742C31D07A2CEB
:1002E0002FD016E0E968064628468847B042044603
:1002F00008D16C2E23D04FF480662846E9688847E1
:10030000044606E06C2E03D04FF4807601E01EE038
:100310004026E4B1A4F14100192802D8203446F463
:1003200000663A46214628462E60FFF72FFF60B14F
:10033000012808D0FF1D27F007070837B4E78026FB
:10034000DBE70026D9E73F1DAEE72046B2E7286A83
:10035000BDE8F0814FF0000200B513469446964682
:10036000203922BFA0E80C50A0E80C50B1F12001C8
:10037000BFF4F7AF090728BFA0E80C5048BF0CC076
:100380005DF804EB890028BF40F8042B08BF7047D4
:1003900048BF20F8022B11F0804F18BF00F8012B46
:1003A00070477047704770472DE9F0470D469946F2
:1003B0009246044600F124080168880604D5E069E5
:1003C00021F01001216000E00120A84201DD471B5F
:1003D00000E00027A1697A1902EB0900081AA06160
:1003E0002078C00602D42046AFF30080002608E043
:1003F000D4E901211AF806009047206A401C761CB7
:1004000020624E45F4DB2078C0060AD52046AFF3C3
:10041000008006E0D4E9012130209047206A401C8A
:100420002062381EA7F10107F4DC07E0D4E90121BE
:1004300018F805009047206A401C2062281EA5F18C
:100440000105F3DC2046AFF300802078000602D5DA
:100450000220BDE8F0870120FBE7000001694A1C8B
:1004600002610878704700B58FB0CDE901310021F5
:10047000059105497944CDE9031011466846FFF717
:100480000DFF0FB000BD0000E5FFFFFF0A6802F896
:10049000010B0A607047754600F02CF8AE46050067
:1004A0006946534620F00700854618B020B5FFF78F
:1004B00093FEBDE820404FF000064FF000074FF0DC
:1004C00000084FF0000BAC46ACE8C009ACE8C0092E
:1004D000ACE8C009ACE8C00921F007018D467047BF
:1004E00010B50446AFF300802046BDE81040FFF78A
:1004F0005FBE00000048704710000020014918202E
:10050000ABBEFEE7260002007047000040F2880004
:10051000C2F2000000F02EBBB0B582B0044600204D
:10052000019021688A68D2074BD1886840F00100A9
:10053000886040F20800C2F2000000684DF6836156
:10054000C4F21B31A0FB0101880C01900198A0B1FD
:10055000019801380190019878B101980138019013
:10056000019850B1019801380190019828B1019883
:100570000138019001980028EAD100F0E5FD2168DA
:100580008968C9071CD1054603E000BF8068C00721
:1005900016D100F0D9FD411B20680329F6D38168EC
:1005A000C907F3D1A06A40F01000A062E06A40F0F1
:1005B0000100E062002084F82400012002B0B0BDF8
:1005C000002002B0B0BD0000FEE700002DE9F041C0
:1005D00082B0044608982160A07140F60640C2F639
:1005E0001400C4F807000820E07232202271637101
:1005F00000F08EFCE07A3825002808BF30252E1D3B
:10060000012038278DF8046000F082FC01208DF86D
:1006100005508DF8066000F07BFC206821794FF4CE
:100620007A7801AA04238DF80750CDF8008000F0F5
:1006300043FEE07A3826002808BF3026351D012009
:100640008DF8045000F064FC01208DF805608DF8F1
:10065000065000F05DFC2068217901AA04238DF882
:100660000760CDF8008000F027FE052000F050FC68
:10067000E07A2825002808BF302707F1040008BFCA
:1006800020258DF804000120282600F041FC281DBB
:100690008DF8060001208DF8057000F039FC206807
:1006A000217901AA04238DF80750CDF8008000F0CD
:1006B00003FE052000F02CFCE07A2825002818BF56
:1006C000012008BF2025C700281D8DF80400012047
:1006D00000F01EFC381D8DF8060001208DF8055035
:1006E00000F016FC2068217901AA04238DF8077018
:1006F000CDF8008000F0E0FD052000F009FCE07975
:10070000E27A010120F00F0501F10807002A14BF69
:1007100008350701281D8DF80400012000F0F8FBC2
:10072000381D8DF8060001208DF8055000F0F0FB13
:100730002068217901AA04238DF80770CDF8008084
:1007400000F0BAFD207AE27A010120F00F0501F1F4
:100750000807002A14BF08350701281D8DF804007A
:10076000012000F0D5FB381D8DF8060001208DF822
:10077000055000F0CDFB2068217901AA04238DF8F3
:100780000770CDF8008000F097FD607AE27A0101F1
:1007900020F00F0501F10807002A14BF08350701F2
:1007A000281D8DF80400012000F0B2FB381D8DF8E3
:1007B000060001208DF8055000F0AAFB2068217981
:1007C00001AA04238DF80770CDF8008000F074FDB5
:1007D000A07AE27A010120F00F0501F10807002A52
:1007E00014BF08350701281D8DF80400012000F012
:1007F0008FFB381D8DF8060001208DF8055000F0A4
:1008000087FB2068217901AA04238DF80770CDF8B1
:10081000008000F051FDE07A1827002818BF012061
:100820004FEAC00505F1040008BF10278DF8040049
:10083000012000F06DFB381D8DF8060001208DF8B9
:10084000055000F065FB2068217901AA04238DF88A
:100850000770CDF8008000F02FFDE07A00280CBF73
:1008600020260120C500281D8DF80400012000F07D
:100870004FFB301D8DF8060001208DF8055000F06B
:1008800047FB2068217901AA04238DF80760CDF881
:10089000008000F011FD02B0BDE8F08170B582B0BB
:1008A00004464079A379884298BF411E934298BF7D
:1008B0005A1ED0B2032809D8DFE800F00902040666
:1008C000403104E0143102E0543100E000210A011B
:1008D000E37A01F0700002F108056FF07702002B57
:1008E00008BF6FF07F0202EB000606F1040008BFAC
:1008F0000D018DF80400012000F00AFB281D8DF881
:10090000060001208DF8056000F002FB20682179C7
:100910004FF47A7601AA04238DF80750009600F070
:10092000CBFC02B070BD00000A78002A08BF7047F7
:100930002DE9F04782B082464E1E4FF47A780DF1D1
:10094000040900BF11019AF80B3022F00F0001F1E9
:100950000807002B14BF08301701451C05308DF81F
:10096000040001207C1C00F0D3FA781D8DF80600ED
:1009700001208DF8055000F0CBFADAF800009AF863
:1009800004104A4604238DF80740CDF8008000F09B
:1009900093FCB2780136002AD4D102B0BDE8F0470A
:1009A00070470000704700007047000010B581B02C
:1009B0000022009290F82420012A03D10221084647
:1009C00001B010BD4B680122062B80F8242033D8DB
:1009D000D0F800C003EB83035A1F1F23DCF834E078
:1009E00003FA02F40B682EEA040403FA02F222432B
:1009F000CCF83420092B03EB430249D9DCF80CE096
:100A00001E3A0724896894402EEA0404914023F09A
:100A100001022143102ACCF80C1043D142F20841C4
:100A2000C4F20101A1F10802944543D0816A41F06A
:100A300020018162012136E0D0F800C00C2B03EBCD
:100A4000830213D8233A1F23DCF830E003FA02F4C0
:100A50000B682EEA040403FA02F22243CCF8302099
:100A6000092B03EB4302C9D812E000BF413A1F2310
:100A7000DCF82CE003FA02F40B682EEA040403FA13
:100A800002F22243CCF82C20092B03EB4302B5D809
:100A9000DCF81030072489689440A343914019433F
:100AA000CCF810100021002280F82420084601B064
:100AB00010BD00BF0A681202F4D40A68102B42F479
:100AC00000020A60EED140F20801C2F2000109689A
:100AD0004DF68362C4F21B32A1FB0212910C01EBB2
:100AE00081014900009100990029DBD0009901396A
:100AF000009100990029D5D0009901390091009901
:100B00000029CFD000990139009100990029C9D05E
:100B1000009901390091009900294FF00001E5D1B9
:100B2000C1E70000B0B540F27005C2F200050068F0
:100B3000A969884218BFB0BD05F1180000F016F889
:100B40002C4644F8040B024607A12046FFF756FB4B
:100B50000C35284606210022FFF7A0FE2846214634
:100B6000BDE8B040FFF7E0BE256C75000068C06CC2
:100B70007047000070B50446006805684668B10615
:100B800027D515F0020124D0A16AC90603D4A16AB1
:100B900041F40071A162816801F46021B1F5602F18
:100BA00010D1217B71B9416821F020014160A06A18
:100BB00020F48070A062A06AC00403D4A06A40F050
:100BC0000100A0622046FFF7ADFF20686FF0120120
:100BD0000160310633D515F0040130D0A16AC90691
:100BE00003D4A16A41F40051A162816801F4E0419B
:100BF000B1F5E04F10D1416821F080014160A06A59
:100C000020F48050A062A06AC00511D4A06A40F010
:100C10000100A0620CE000BF4168490508D481686A
:100C200001F46021B1F5602F02D1217B0029E2D0CF
:100C30002046FFF7B9FE20686FF00C0101607006D6
:100C40000ED515F0010008BF70BDA06A40F48030D9
:100C5000A062204600F0B2F820686FF00101016048
:100C600070BD0000002804BF01207047B0B50446E5
:100C7000806A28B121688868C0070CD115E000BFE0
:100C80000020E06284F82400204600F099F82168F2
:100C90008868C00709D0886820F00100886000F0EB
:100CA00053FA21688A68D20726D1A06AC0063AD4CE
:100CB000A06A41F2021290430230A062E069D4E9D6
:100CC000013240EA030C531EB3FA83F35D09134665
:100CD000B2F5807F18BF2B02207D257B01284CEACE
:100CE00045002CD135B3A56A45F02005A562E56A1B
:100CF00045F00105E56222E0054602E08868C0078C
:100D0000D3D000F021FA401B21680328F6D388686D
:100D1000C007F3D0A06A40F01000A062E06A40F083
:100D20000100E062A06AA06A40F01000A062012009
:100D3000B0BD00BFA56903EB4533A3F5C0534D68B3
:100D4000B2F5807F25F4694543EA05034B608B6863
:100D50004FF2FD75CFF6E17503EA050343EA0003A0
:100D60008B6001D0012A07D122690023CFF6F073EE
:100D700003EB025201E000BF0022CB6A23F47003B0
:100D80001A43CA62896840F6FE62CFF61F721140AC
:100D9000814207D10020E062A16A012262F30101D1
:100DA000A162B0BDA06A40F0100020F00200A06275
:100DB000E06A40F00100E0620120B0BD7047000031
:100DC00080B586B0014640F60000C4F20100096813
:100DD00000F5E05291424FF00001CDE90411CDE958
:100DE000021101D006B080BD41F21801C4F2020127
:100DF0000A6842F400720A600A6802F40072019202
:100E0000019A0A6842F004020A60096801F00401CC
:100E100001910199202102910321039102A900F07F
:100E20008BF812200121002200F0E4FB122000F0D8
:100E3000CFFB06B080BD000010B5044690F824003A
:100E4000012804BF022010BD012084F824002046A0
:100E5000FFF762FB20B1002084F82400012010BDC0
:100E600042F2044C2068A16AC4F2010C40F60172FF
:100E700091430CF57F7201F580719042A1622DD0F3
:100E8000A16A21F48011A1624168490504D5A16AD3
:100E9000012363F30D31A162A16A0023C9044FF05D
:100EA000000144BFE16A21F00601E1626FF0020136
:100EB00084F824300160416841F02001416081687C
:100EC00001F46021B1F5602F1BD1904214D08168EC
:100ED00041F4A0018160002010BD00BFDCF80010CB
:100EE00011F4702FCCD0A16A41F48011A162DCF81A
:100EF00000104905CBD4CFE7DCF8001011F4702FB7
:100F0000E5D0816841F480118160002010BD0000AF
:100F1000B0B5044600F018F9054640F20000C2F2F0
:100F200000000078611C18BF044400BF00F00CF9F9
:100F3000401BA042FAD3B0BD2DE9F04F82B00E683D
:100F4000002E00F0FD8041F20042C4F201020423B1
:100F500040F2004E904208BF03234FF6FF7CC4F2DC
:100F6000010E009300240123C1F2100C4FF0000A7F
:100F70004FF000094BE000BF41F20002C4F2010251
:100F8000009F904208BF022704F00C030F229A40F2
:100F90002BEA020207FA03F34FEA9A051A4346F8CE
:100FA00025204E6840F20C45F202DEF8082054BFBE
:100FB00022EA080242EA0802C4F20105CEF808203B
:100FC0002A68B30254BF22EA080242EA08022A60F1
:100FD000B303DEF8042054BF22EA080242EA080202
:100FE000F303CEF80420DEF800204FF0010354BFD5
:100FF00022EA080242EA0802CEF800200E680AF14E
:10100000010A36FA0AF204F1040400F0998003FAA6
:101010000AFB16EA0B08F1D04E68664512DC122E68
:1010200056D8DFE806F0350B4D4955555555555501
:101030005555555555555545510000BFD1F80C90A3
:1010400046E000BF4FF6FF72C1F2210296420FDC6C
:101050000022C1F2110296421AD00022C1F21202FD
:10106000964215D00022C1F22102964210D02FE004
:101070000022C1F2220296420AD00022C1F23102BD
:10108000964205D00022C1F23202964220D100BF22
:101090008A684AB1012A14BFC0F814B0C0F810B071
:1010A0004FF0080914E000BF4FF0040910E000BF42
:1010B000CA6802F104090BE04FF0000908E000BF24
:1010C000CA6802F1080903E0CA6802F10C0900BF0E
:1010D00002462646B8F5807F24BF0432203E1768BA
:1010E0000F25B54027EA050509FA06F635431560D0
:1010F000CA79D2067FF582AF41F21803C4F2020327
:101100001A68AEF57E7642F001021A601A6802F0A3
:1011100001020192019A2AF0030256F802B040F649
:101120000002C4F20102904208D040F60042C4F22C
:10113000010290427FF420AF012725E7002723E733
:1011400002B0BDE8F08F000040F20C10C2F20000C7
:1011500000687047002804BF01207047F0B581B0D7
:10116000044690F83D0028B9002084F83C00204651
:1011700000F090F9242084F83D002068016821F0F7
:1011800001010160016841F400410160016821F43E
:101190000041016000F0CAFB636848F2A16CC0F234
:1011A000010C40F60011C0F23D0163453CBF48F21E
:1011B0008041C0F21E01884202D2012001B0F0BD80
:1011C0004DF68361C4F21B31A0FB01122168970C1C
:1011D000D1F804E04FF496762EF03F0545EA9245AB
:1011E0004D60774348F638160D6AC0F24106A7FBFA
:1011F000067625F03F07634538BF960C721C3A43CC
:101200000A62CA6948F2A0664CF6FF77C0F201068E
:10121000B34222EA07020BD801385B00B0FBF3F0BF
:1012200001306FF31F30042898BF04201BE000BF7B
:10123000A768013857B119277B43B0FBF3F00130A1
:101240006FF31F3070B100F5804007E003EB4303FC
:10125000B0FBF3F001306FF31F3018B100F5004020
:1012600001E000BF01201043C8610868D4E90723EA
:1012700020F0C000104318430860886848F2FF322D
:1012800004F10C0790438CCF18431043A669886083
:10129000C86820F0FF0038433043C860086840F059
:1012A0000100086000202021206484F83D102063A4
:1012B00084F83E0001B0F0BD2DE9F04383B01E4636
:1012C000174689460446FFF73FFF94F83D10202952
:1012D00024D10546206800BF816989071AD5FFF728
:1012E00033FF411B20681A29F6D381698907F3D59A
:1012F00000202021206384F83D1084F83E00216CFA
:1013000041F02001216484F83C00022003B0BDE8D4
:10131000F08300BF94F83C10012903D1022003B0F0
:10132000BDE8F083012184F83C100168C90703D1AE
:10133000016841F001010160016840F2020821F4F6
:1013400000610160212184F83D10102184F83E10D5
:101350000021216467626685618DC0F201082185E4
:10136000A8F10211E162E16A0A9E11F5803F18BFFF
:1013700001291DD1016841F48071016020464FF0C0
:10138000011100223346009500F05AFD50B120684B
:101390000068C00544BF4FF400702064012003B012
:1013A000BDE8F0832069B0F5804F07D1FE2015E03D
:1013B0000829DFD0216B1229DCD0DFE7062000EA04
:1013C000D9102168F030086108F106012046324644
:1013D0002B4600F01BFE0028E0D1FF20216800EA28
:1013E000090008612046414632462B4600F00EFEB9
:1013F0000028D3D1002002902068416902918069C1
:101400000290029806E000BF204631462A4600F0CE
:10141000B9FC18BB208D68B3204631462A4600F03F
:1014200061FED8B9606A2168024612F8013B0B617F
:101430006262628D013A6285228D531E23854F6957
:101440007F07E1D51B04DFD0437802300B61606277
:10145000608D01386085901E2085D5E7206C0428BA
:101460009CD12068016841F400710160012003B043
:10147000BDE8F0832068016841F40071016020201C
:1014800084F83D00002084F83E0084F83C0003B05E
:10149000BDE8F08310B586B0016845F20040C4F2A3
:1014A000000081424FF00001CDE90411CDE90211A5
:1014B00002D006B010BD00BF41F21804C4F202040D
:1014C000216800F5384041F008012160216801F0F1
:1014D000080101910199C021029112210391032178
:1014E000059102A9FFF728FD606840F400106060D4
:1014F000606800F400100190019806B010BD000073
:1015000040F2000040F20C11C2F20000C2F20001F1
:1015100000780A68104408607047000080B542F205
:101520000000C4F20200016841F0100101600320D4
:1015300000F08CF80F2000F005F800F027F80020EC
:1015400080BD000070B540F20006C2F2000640F215
:1015500008013278C2F200014FF47A730968B3FBD4
:10156000F2F20446B1FBF2F1084600F0F3FB0F2C57
:101570004FF0010508D838B94FF0FF30214600225E
:10158000002500F037F87460284670BD82B041F243
:101590001800C4F202000168022241F0010101605A
:1015A000016801F0010101910199416841F0805108
:1015B0004160406800F08050009000980420C4F220
:1015C0000100016862F31A61016002B07047000017
:1015D000002848BF704700F01F01012202FA01F104
:1015E0001C2202EAD0004EF20012CEF2000281501C
:1015F0007047000010B54EF60C5CCEF2000CDCF823
:101600000030C3F3022E8EF00704042C28BF0424FC
:10161000BEF103034FF0FF3E0EFA04F438BF00237F
:10162000A14399400EFA03F39A43114300F00F02CD
:1016300000F160430901043A03F564436244002861
:1016400048BF02F10C03197010BD00004EF60C519A
:10165000CEF200010A684FF6FF031A4060F30A2237
:1016600042F0806040F0FD70086070472DE9F04165
:1016700082B00446007841F21C06C007C4F202069C
:101680004AD030685FEAC00808D4306840F0805023
:101690003060306800F080500190019847F20007F8
:1016A000C4F200073868C00512D4386840F480706E
:1016B0003860FFF749FD05463868C00508D4FFF7D4
:1016C00043FD401B6428F7D9032002B0BDE8F08138
:1016D000706810F4407012D0616801F44071884263
:1016E0000DD0706840F24042C4F24222012320F43F
:1016F000407113600023C0071360716026D17068C9
:10170000616820F440700843B8F1000F706003D4A2
:10171000306820F0805030602068810707D556F887
:10172000181CA26821F44041114346F8181CC00659
:1017300007D556F8180CE16820F48000084346F8F5
:10174000180C002002B0BDE8F08100BFFFF7FCFCE0
:10175000054641F2883700BF70688007CFD4FFF795
:10176000F3FC401BB8424FF00300F5D9EAE7000054
:10177000002804BF012070472DE9F04381B042F2F8
:101780000008C4F202080446D8F800000D4600F034
:10179000070088420CD2D8F8000020F00700284348
:1017A000C8F80000D8F8000000F00700A8426CD18B
:1017B000206841F204098107C4F2020917D54107E4
:1017C00005D5D9F8001041F4E061C9F8001001070F
:1017D00005D5D9F8001041F46051C9F80010D9F8C6
:1017E0000010A26821F0F0011143C9F80010C007F1
:1017F00042D1D8F8000000F00700A8420CD9D8F870
:10180000000020F007002843C8F80000D8F80000C6
:1018100000F00700A84238D12068410707D5D9F861
:101820000010E26821F4E0611143C9F800100007DC
:1018300008D5D9F80000216920F4605040EAC100C1
:10184000C9F80000D9F8002002F00C00082841F285
:101850000020C0F27A004DD142F28A33C2F38341B4
:10186000C0F60003595CD20338D440F60010C0F231
:101870003D0048433EE000BF606859F8041C022860
:1018800008D0012826D1890306D4012001B0BDE883
:10189000F08300BF8901F8D5D9F8001021F00301C9
:1018A0000843C9F80000FFF74FFC064641F28837AD
:1018B000D9F80000616800F00C00B0EB810F98D0FF
:1018C000FFF742FC801BB842F2D9032001B0BDE80B
:1018D000F08300BF8907D8D5DEE700BFD9F8002024
:1018E00042F28833C2F34042C0F600039A5C484398
:1018F000B0FBF2F0D9F8001042F27032C1F30311DC
:10190000C0F60002515C40F2080220FA01F140F2F8
:101910000400C2F200000068C2F200021160FFF78A
:1019200011FE002001B0BDE8F083000040F2080085
:1019300041F20401C2F20000C4F202010068096829
:1019400042F28032C1F30221C0F60002515CC8406D
:1019500070470000002804BF012070472DE9F041C6
:1019600082B00446007841F20006C007C4F20206C5
:101970000CD0706800F00C00042840F081803068C2
:10198000800303D56068002800F046812078800736
:101990001BD5706810F00C0F09D0706800F00C00B7
:1019A000082840F087807068C00300F183803068A9
:1019B000800703D52069012840F02E8130686169D5
:1019C00020F0F80040EAC10030602078000713D40E
:1019D000207840072CD4E569002D00F0188170684C
:1019E00000F00C00082840F0A780012D40F0048191
:1019F000012002B0BDE8F081A069002800F08480D9
:101A00000020C4F242200121C0F88014FFF79CFBA3
:101A1000054600BF706A800700F1B280FFF794FBB3
:101A2000401B0228F6D9032002B0BDE8F08100BFB8
:101A3000F0695FEAC00808D4F06940F08050F061B6
:101A4000F06900F080500090009847F20007C4F25F
:101A500000073868C00549D4386840F480703860A1
:101A6000FFF772FB054600BF3868C0053ED4FFF79C
:101A70006BFB401B6428F7D9032002B0BDE8F0815E
:101A8000706800F00C00082803D17068C0033FF5AF
:101A900076AF61683068002900F00C81B1F5A02FA5
:101AA00000F00081B1F5803F40F01A8140F48030B1
:101AB0001CE100BF2069002840F20000C4F242206F
:101AC00000F0888001210160FFF73EFB054600BF62
:101AD000306880073FF572AFFFF736FB401B0228E6
:101AE000F6D9032002B0BDE8F08100BFE168306A9A
:101AF000002900F09D80052900F09280012940F026
:101B0000AF8040F00100B1E00020C4F2422000218B
:101B1000C0F88014FFF718FB054600BF706A800705
:101B20007FF556AFFFF710FB401B0228F6D90320C4
:101B300002B0BDE8F08100BF0027C4F242270020B8
:101B40003866FFF701FB022D05460DD13068800194
:101B500040F1DE80FFF7F8FA401B02284FF0030047
:101B6000F4D902B0BDE8F081306880014FD5FFF7AD
:101B7000EBFA401B02284FF00300F5D9F1E700BF54
:101B800040F20800C2F20000006844F6D351C1F2EE
:101B90006201A0FB0101480A019000BF00BF01984B
:101BA000411E002801913FF413AF00BF0198411E70
:101BB000002801913FF40CAF00BF0198411E00289E
:101BC00001913FF405AF00BF0198411E002801912B
:101BD000E4D1FDE600210160FFF7B6FA054600BF3B
:101BE000306880077FF5F1AEFFF7AEFA401B0228A0
:101BF0004FF00300F4D9B4E77068216A00F4803232
:101C00008A4209D1616A00F47010884204D1002030
:101C100002B0BDE8F08100BF012002B0BDE8F08154
:101C200040F004003062306A40F001001EE000BF66
:101C300020F001003062306A20F004003062FFF7CB
:101C400083FA054641F28837306A800720D5FFF7CE
:101C50007BFA401BB8424FF00300F5D981E700BF83
:101C600020F001003062306A20F004003062FFF79B
:101C70006BFA054641F28837306A800708D4FFF7CF
:101C800063FA401BB842F7D9032002B0BDE8F081E7
:101C9000B8F1000F3FF59FAEF06920F08050F06181
:101CA00099E600BF40F480203060306840F4803016
:101CB0001CE000BF20F480303060306820F48020C9
:101CC0003060FFF741FA0546306880037FF55EAE6D
:101CD000FFF73AFA401B64284FF00300F4D940E7BD
:101CE00020F480303060306820F480203060FFF7CE
:101CF0002BFA0546306880033FF548AEFFF724FA1B
:101D0000401B6428F6D9032002B0BDE8F08100BF73
:101D1000206AB0F5803F05D17168A26821F40031D6
:101D2000114371607168626A21F4741111430843B0
:101D3000706001203866FFF707FA044630688001BA
:101D40003FF565AFFFF700FA001B02284FF00300D4
:101D5000F4D906E7411E0020B0EB116F1CBF012033
:101D600070474EF21002CEF2000251604EF623513F
:101D7000CEF20001F0230B700721906011607047D4
:101D8000FEE7000070B50368044653F8140F4007DF
:101D900011D40E46481C29D086BB00BF18684005E8
:101DA00027D4FFF7D1F9236853F8140F400737D52C
:101DB00018684007F2D5002070BD00BF18684007C2
:101DC000F9D41868400514D418684007F3D418688B
:101DD00040050ED418684007EDD41868400508D4B3
:101DE000186840074FF0000048BF70BD18684005F4
:101DF000E4D56FF480601860042012E0154603E01B
:101E000053F8140F4007D6D418684005F1D4FFF7F3
:101E10009BF9401B2368B042F2D958694007EFD4C0
:101E2000202000212022216384F83D2084F83E10E8
:101E3000226C10432064012084F83C1070BD000027
:101E40002DE9F041054600681E46144601F47F0264
:101E500001338FB242D0DDF81880B2F5803F40F0F8
:101E6000878040693840C01BB0FA80F04009A0422A
:101E700040F0C8804EB924E040693840C01BB0FA39
:101E800080F04009A04240F0BD80FFF75DF9A0EB73
:101E900008012868B142EFD941693940C91BB1FA3C
:101EA00081F14909A142E7D19BE000BF4069384078
:101EB000C01BB0FA80F04009A0424FF0000040F093
:101EC000A280FFF741F9286841693940C91BB1FA7E
:101ED00081F14909A142E9D183E000BFB2F5803F19
:101EE00024D100BF41693940C91BB1FA81F14909C8
:101EF000A14240F0878041693940C91BB1FA81F1A4
:101F00004909A14240F07E8041693940C91BB1FABC
:101F100081F14909A14275D141693940C91BB1FA22
:101F200081F14909A142DDD06CE000BF81693940EF
:101F3000C91BB1FA81F14909A14263D181693940D4
:101F4000C91BB1FA81F14909A1425BD181693940CC
:101F5000C91BB1FA81F14909A14253D181693940C4
:101F6000C91BB1FA81F14909A142DFD04AE000BFA3
:101F700080693840C01BB0FA80F04009A04241D1CE
:101F800046B923E080693840C01BB0FA80F04009B0
:101F9000A04237D1FFF7D8F8A0EB08012868B1427A
:101FA000F0D981693940C91BB1FA81F14909A142CF
:101FB000E8D116E080693840C01BB0FA80F04009D3
:101FC000A0424FF0000018BFBDE8F081FFF7BCF859
:101FD000286881693940C91BB1FA81F14909A142D8
:101FE000E8D100202021286385F83D1085F83E00C7
:101FF000296C41F02001296485F83C000120BDE8EE
:10200000F08100BF0020BDE8F0810000F0B581B094
:10201000044600681D4643698FB203EA0701B942CE
:1020200002D1002001B0F0BD4169164601323CD01A
:10203000490512D47EB300BFFFF786F8411B206824
:10204000B14203D941693940B9422BD14169394084
:10205000B942E6D041694905EED5016841F4007105
:1020600001606FF48061416104200021202221631E
:1020700084F83D2084F83E10226C1043206484F8DC
:102080003C10012001B0F0BD41693940B942C8D0CF
:1020900041694905E1D4FFF757F8206841693940A3
:1020A000B942F1D02020E0E741694905D5D4416922
:1020B0003940B942B5D041694905CED4416939406A
:1020C000B942AED041694905C7D441693940B942E6
:1020D000A7D041694905C0D441693940B942E3D12B
:1020E0009FE7000070B50368044653F8140F00061C
:1020F00011D40E46481C29D086BB00BF1868400585
:1021000027D4FFF721F8236853F8140F000637D5BA
:1021100018680006F2D5002070BD00BF18680006E0
:10212000F9D41868400514D418680006F3D4186868
:1021300040050ED418680006EDD41868400508D490
:10214000186800064FF0000048BF70BD18684005D1
:10215000E4D56FF480601860042012E0154603E0B7
:1021600053F8140F0006D6D418684005F1D4FEF7D2
:10217000EBFF401B2368B042F2D958690006EFD448
:10218000202000212022216384F83D2084F83E1085
:10219000226C10432064012084F83C1070BD0000C4
:1021A000FEE70000FEE700007047000070470000F7
:1021B000FFF7A6B970470000FEE7000094B0FFF7F4
:1021C000ADF90AAC201D2421FEF7C4F802200A90C4
:1021D00001200E90102000250F9020460495CDE997
:1021E00002551195FFF7B6FB20B1EFF3108072B6E0
:1021F000FEE700BF0F20CDE9050505A80021CDE9C8
:1022000007550995FFF7B4FA20B1EFF3108072B6C5
:10221000FEE700BF02200190002401A80394FFF70D
:1022200025FA28B1EFF3108072B600BFFEE700BFB9
:1022300041F21800C4F20200016845F2004541F085
:10224000100101600168C4F2000501F010010A915B
:102250000A9901684FF4804241F00401016001686D
:1022600001F004010A910A99016841F00801016036
:10227000006848F2A06100F008000A900A9840F255
:10228000B800C2F20000C0F20101C0E90051C0E98B
:102290000244C0E90424C0E906440462FEF75AFF80
:1022A00020B1EFF3108072B6FEE700BF05F5504194
:1022B00040F27005C2F20005284640F8181F0024BD
:1022C00001264FF4602106730475C161C0E9014421
:1022D0000661FEF7C7FC28B1EFF3108072B600BFAD
:1022E000FEE700BF05200C9405F11804CDE90A06AD
:1022F0000AA92046FEF75AFB20B1EFF3108072B610
:10230000FEE700BF0C3540F2B8010426C2F200011E
:1023100028464E2214230096FEF758F9284600213D
:102320000022FEF7BBFA0DA12846FEF7FDFA28466B
:1023300000210122FEF7B2FA0AA12846FEF7F4FABC
:1023400028460B210022FEF7A9FA08A12846FEF72D
:10235000EBFA2046FEF770FDFEE700BF566F6C7487
:102360003A2000004144433A20000000560000009B
:102370000000000000000000010203040607080935
:102380000000000001020304010202030405060725
:1023900008090A0B0C0D0E0F10100000C0230008D6
:1023A000000000201000000050010008D0230008A9
:1023B000100000200007000070010008000000006D
:1023C000010000001000000000127A000000000070
:04000005080000ED02
:00000001FF
