:020000040800F2
:1000000020070020D5010008491F0008AD1D000889
:10001000451F0008590C00085D1F00080000000083
:10002000000000000000000000000000511F000858
:100030005D0C0008000000004D1F0008551F00085F
:10004000EF010008EF010008EF010008EF010008D0
:10005000EF010008EF010008EF010008EF010008C0
:10006000EF010008EF010008EF010008EF010008B0
:10007000EF010008EF010008EF010008EF010008A0
:10008000EF010008EF0100084D0C0008EF01000827
:10009000EF010008EF010008EF010008EF01000880
:1000A000EF010008EF010008EF010008EF01000870
:1000B000EF010008EF010008EF010008EF01000860
:1000C000EF010008EF010008EF010008EF01000850
:1000D000EF010008EF010008EF010008EF01000840
:1000E000EF010008EF010008EF01000800F002F83E
:1000F00000F060F814A696E8000CB244B344DA4568
:1001000001D100F057F8BAE80F000FA696E83000CA
:10011000A5EB040504EB0607AAEB0704A7F101070A
:100120004FEA15154FEA3414A4F10104AC4201D38F
:1001300000F040F813F0010F18BFFB1A43F0010361
:1001400000F001F8DBE718473030000050300000C5
:10015000103A24BF78C878C1FAD8520724BF30C8F3
:1001600030C144BF04680C60704700007047000055
:100170000023002400250026103A28BF78C1FBD8B0
:10018000520728BF30C148BF0B607047662902F094
:100190009187642900F05280002070471FB500F05D
:1001A000DFFB04000020002102F058FCE0601FBDCE
:1001B00010B510BD00F0D4FC1146FFF7EFFF01F0C1
:1001C0008FFF00F0F2FC03B4FFF7F2FF03BC00F076
:1001D00035FD00000948804709480047FEE7FEE773
:1001E000FEE7FEE7FEE7FEE7FEE7FEE7FEE7FEE7E7
:1001F00004480549054A064B70470000591F00088E
:10020000ED0000082001002020070020200300202E
:10021000200300200FB41CB5074B06AA7B44694697
:100220000090059800F083FB0020694600F092FBE7
:100230001CBC5DF814FB0000350700002DE9F041FF
:100240000646002410687529314616A510D0AFF374
:100250000080002802DA404213A507E031688A07CF
:1002600001D512A502E0490704D511A5012401E03A
:10027000AFF3008000210A2206F1240709E0B0FB59
:10028000F2FCB0FBF2F302FB1C003030785418464D
:10029000491C0028F3D123462A463046BDE8F041E8
:1002A00000F0D8B8000000002D0000002B00000076
:1002B000200000002DE9F0474FF0000A894604466F
:1002C000C0F820A02046E1688847002876D025287D
:1002D00006D0D4E901219047206A401C2062F1E752
:1002E000E168204600258847C4F81CA00646002780
:1002F000C4F818A02A2E09D0304602F0A7FB38B364
:1003000004EB8708303EC8F8186019E059F8041B60
:10031000204604EB87029161E1688847012F064679
:1003200018D1E069002820DA25F020051DE0D8F872
:10033000180000EB800006EB40003038C8F81800C9
:100340002046E1688847064602F080FB0028EED18F
:10035000012F0AD02E2E08D12046E16888477F1C45
:100360000646022F45F02005C4DBA069002803DA09
:10037000404245F00105A061E80701D025F01005D5
:10038000B6B1A6F14100192802D8203645F400651F
:100390004A463146204625604D46FFF7F7FE58B1E4
:1003A000012806D0ED1D25F0070000F1080989E7B6
:1003B00004E005F1040985E730468AE7206ABDE8D4
:1003C000F08710B5431C02E010F8011B71B18107E2
:1003D000FAD14FF0013202C88C1A8C4314EAC211D0
:1003E000F9D0C01A0A0603D0C01E10BDC01A10BD35
:1003F0000A0401D0801E10BD0902FCD0401E10BDB1
:100400004FF0000200B5134694469646203922BFAD
:10041000A0E80C50A0E80C50B1F12001BFF4F7AFF8
:10042000090728BFA0E80C5048BF0CC05DF804EBDA
:10043000890028BF40F8042B08BF704748BF20F848
:10044000022B11F0804F18BF00F8012B7047704746
:10045000704770472DE9F0470D469946924604468D
:1004600000F124080168880604D5E06921F0100134
:10047000216000E00120A84201DD471B00E00027C9
:10048000A1697A1902EB0900081AA0612078C00658
:1004900002D42046AFF30080002608E0D4E9012111
:1004A0001AF806009047206A401C761C20624E45D0
:1004B000F4DB2078C0060AD52046AFF3008006E0C2
:1004C000D4E9012130209047206A401C2062381E68
:1004D000A7F10107F4DC07E0D4E9012118F80500D1
:1004E0009047206A401C2062281EA5F10105F3DC1C
:1004F0002046AFF300802078000602D50220BDE838
:10050000F0870120FBE72DE9FF4F0C461E464FF018
:10051000FF378BB0D2E90001DDF860800A908A468F
:10052000C1F30A5505B93D46002108464FF00000C9
:10053000BAF1000F00F4400005DA00EB80004FF440
:10054000400101EA50004FEA9059B9F1010F00DD76
:10055000B9460A9850EA4A000ED044F61050A5F267
:10056000FF3545432F14B8F1000F1ED07542291EE8
:100570001EDDC9F100021CE0B8F1010F4FF00000D0
:1005800001D0302103E0F24305E02154401CB04289
:10059000FBDB30460022002121540B99C1F8088072
:1005A000C1E900200FB0BDE8F08FBD1B6D1CDEE778
:1005B0004A4600DA694206A800F05CFA06AB93E806
:1005C000070003AB83E8070050460A9901F062FE7A
:1005D0008DE80700A0F500501F3800900398002D0B
:1005E0000ADD42F21F014A460844002303A9039092
:1005F000684602F0CBF809E0A0F500504A461F38E3
:10060000002303A90390684602F0D5F88DE807009F
:100610000004000C03D04FF0FF30410800E010460A
:10062000B8F1000F03D00022009215461EE0751E9F
:1006300005D400F099F9303262556D1EF9D5B346F4
:100640000122084302D000227F1C04E020783028D9
:1006500001D100227F1E002A099784D01DE0112DB0
:1006600007DA00F081F9303262556D1C50EA010260
:10067000F5D1084302D00098C8B10EE00021681EF1
:1006800005E0235C625C63542254401E491C814295
:10069000F7DBAB46A81B401E0990002004F80B00B6
:1006A0000B98099AC0F80880C0E9002B7AE7112658
:1006B0004FF0000857E72DE9F04F88460446D21D59
:1006C00022F0070191B0D1E90001CDE90A0102F061
:1006D000A9F902460B98C00F01D02D2007E0206831
:1006E000810701D52B2002E0202101EAC000032A66
:1006F000099001D0072A05DB03464146204600F059
:1007000079F90BE12078800601D5E06900E0062048
:10071000B8F1650F814606D0B8F1660F18D0B8F170
:10072000670F70D131E00020B9F1110F009001DBAB
:10073000112301E009F101030AAA01A90CA8FFF79E
:10074000E2FEDDE90C70002609F10105834647E071
:1007500001204B4600904FF000470AAA01A90CA8BF
:10076000FFF7D1FEDDE90DB00C995D46002610B90A
:1007700009F101000D18B9EB050003D4C0F1FF36F3
:1007800009F10105A5EB09002BE0B9F1010F01DA30
:100790004FF001090020B9F1110F0090484601DD2A
:1007A000112300E003460AAA01A90CA8FFF7ABFE3B
:1007B000DDE90C704D4600268346207800070AD4F8
:1007C000AB4500DA5D4601A8012D04DD411911F8A1
:1007D000011C302907D04F4502DA17F1040F04DA63
:1007E000012082460FE06D1EEEE7002F02DCED1BBC
:1007F0003E4403E0781CA84200DD7D1CB81B00F1DC
:10080000010A4FF000472078000703D4AA4501DB16
:100810004FF0FF3A0021B7F1004F0DF143088DF87A
:10082000431024D002202B23002F01DA7F422D23F6
:100830000A21021EA0F1010000DC5FB197FBF1FC70
:1008400097FBF1F201FB1C7C17460CF1300C08F809
:1008500001CDEEE7A8F1010003702188090501D55B
:10086000452100E06521A0F1010800F8011C09986C
:100870000FA9A1EB0807FF1D00B10120411901EBF1
:10088000EA70A1693844081A401EA0612078C006A9
:1008900002D42046AFF30080099828B1D4E90121A1
:1008A0009047206A401C20622078C00622D520464E
:1008B000AFF300801EE0002E04DBB34502DD01A88B
:1008C000805D00E03020D4E901219047206A401C7F
:1008D0002062761CAAF101005FEA000A0AD100F04A
:1008E0003FF8C0680168405CD4E901219047206A64
:1008F000401C2062281EA5F10105DCDC07E0D4E9DC
:10090000012118F8010B9047206A401C2062381E14
:10091000A7F10107F3DC2046AFF30080032011B0FC
:1009200041E6000001694A1C02610878704700B581
:100930008FB0CDE901310021059105497944CDE918
:10094000031011466846FFF7B5FC0FB000BD00006C
:10095000E5FFFFFF0A6802F8010B0A60704700001C
:10096000004870474800002030B5B0F10A0271F12C
:1009700000034FEA900E4EEA817EB0EB0E0061EB71
:1009800091014FEA101E4EEA017E10EB0E0041EB82
:1009900011114FEA102E4EEA016E10EB0E0041EBE2
:1009A00011214FEA104E4EEA014E10EB0E0041EBC2
:1009B0001141401841F100014FEAD00040EA417076
:1009C0004FEAD1014FEA810444EA907410EB8005AC
:1009D00044EB01046D1944EB0404521BA3414FF096
:1009E000000348BF0A3200D530BD401C41F1000170
:1009F00030BD00002DE9F0411F4604460326016882
:100A0000072A01F4006004DB08B116A505E016A56D
:100A100003E008B115A500E015A521F01000206045
:100A2000A069C01EA0610FB1401EA0612046AFF3B7
:100A300000804FB1D4E9012138469047206A401C1C
:100A40002062C01C206206E0206AFAE7D4E9012196
:100A500015F8010B9047761EF8D22046AFF30080C0
:100A6000BDE8F0814E414E006E616E00494E460079
:100A7000696E66002DE9F047814616468AB0354812
:100A800078440DC88DE80D0032487844801C03ACD2
:100A90000DC884E80D0041F69B300844372190FBD7
:100AA000F1F290FBF1F5A5F1800501FB12041B3C6E
:100AB00002D56442012000E00020DFF898A08046C3
:100AC0000027FA44AAF1BE0A0EE0E0070AD0324637
:100AD000684607EB470101230AEB810101F06BFE39
:100AE0008DE8070064107F1C002CEED1194F7F4465
:100AF000AE3F19E0E80715D007EB04100DF1180A16
:100B000090E80E008AE80E00C068F04201D1981902
:100B100008903246012306A903A801F04CFE03AB5E
:100B200083E807006D10641C002DE3D14FF0010332
:100B300032466946B8F1000F03A802D001F026FE44
:100B400001E001F038FEC9E90001C9F808200AB047
:100B5000BDE8F087B026000000487047280000205C
:100B60007546FFF7F9FFAE4605006946534620F08B
:100B70000700854618B020B5FFF73AFBBDE82040D6
:100B80004FF000064FF000074FF000084FF0000B49
:100B9000AC46ACE8C009ACE8C009ACE8C009ACE8B8
:100BA000C00921F007018D46704710B50446AFF328
:100BB00000802046BDE81040FFF705BB4FF0013C28
:100BC00050F8042B51F8043B9A4221D1A2EB0C03BC
:100BD000934313EACC1317D150F8042B51F8043B7C
:100BE0009A4215D1A2EB0C03934313EACC130BD119
:100BF00050F8042B51F8043B9A4209D1A2EB0C03A4
:100C0000934313EACC13DBD04FF00000704700BFD2
:100C1000D01A01BAB1FA81F101F0180122FA01F0FB
:100C2000CB40DBB2C0B2C01AC1F120012CFA01F3F3
:100C3000D11A914311EAC311E6D170470149182036
:100C4000ABBEFEE7260002007047000040F29800AD
:100C5000C2F2000000F0F8B8FEE7000070470000A4
:100C60007047000010B581B00022009290F8242057
:100C7000012A03D10221084601B010BD4B680122B0
:100C8000062B80F8242033D8D0F800C003EB830370
:100C90005A1F1F23DCF834E003FA02F40B682EEA33
:100CA000040403FA02F22243CCF83420092B03EBAC
:100CB000430249D9DCF80CE01E3A072489689440C5
:100CC0002EEA0404914023F001022143102ACCF8BB
:100CD0000C1043D142F20841C4F20101A1F1080213
:100CE000944543D0816A41F020018162012136E0C0
:100CF000D0F800C00C2B03EB830213D8233A1F2338
:100D0000DCF830E003FA02F40B682EEA040403FA7C
:100D100002F22243CCF83020092B03EB4302C9D85E
:100D200012E000BF413A1F23DCF82CE003FA02F482
:100D30000B682EEA040403FA02F22243CCF82C20BA
:100D4000092B03EB4302B5D8DCF81030072489687F
:100D50009440A34391401943CCF810100021002285
:100D600080F82420084601B010BD00BF0A681202B6
:100D7000F4D40A68102B42F400020A60EED140F26B
:100D80002001C2F2000109684DF68362C4F21B32F1
:100D9000A1FB0212910C01EB810149000091009925
:100DA0000029DBD000990139009100990029D5D0A4
:100DB00000990139009100990029CFD0009901399B
:100DC000009100990029C9D000990139009100993A
:100DD00000294FF00001E5D1C1E7000010B540F255
:100DE0008804C2F2000400682169884218BF10BD5F
:100DF00004F1100000F024F8206001F0D3FF46F267
:100E00006663C4F20A034FF0663201F0DFFF4FF26F
:100E10000043C4F2AA03002201F068FE01F034FE90
:100E2000606002F0D1F802460B4604F1080002A10E
:100E3000BDE81040FFF7EEB9252E32660000000035
:100E40000068C06C7047000070B504460068056813
:100E50004668B10627D515F0020124D0A16AC9065B
:100E600003D4A16A41F40071A162816801F4602198
:100E7000B1F5602F10D1217B71B9416821F02001BB
:100E80004160A06A20F48070A062A06AC00403D40C
:100E9000A06A40F00100A0622046FFF79FFF206893
:100EA0006FF012010160310633D515F0040130D026
:100EB000A16AC90603D4A16A41F40051A162816804
:100EC00001F4E041B1F5E04F10D1416821F080011B
:100ED0004160A06A20F48050A062A06AC00511D4CD
:100EE000A06A40F00100A0620CE000BF4168490523
:100EF00008D4816801F46021B1F5602F02D1217B13
:100F00000029E2D02046FFF7ABFE20686FF00C010D
:100F1000016070060ED515F0010008BF70BDA06A13
:100F200040F48030A062204600F0B2F820686FF0F4
:100F30000101016070BD0000002804BF012070475E
:100F4000B0B50446806A28B121688868C0070CD112
:100F500015E000BF0020E06284F82400204600F085
:100F600099F821688868C00709D0886820F00100D6
:100F7000886000F0EDF921688A68D20726D1A06A5E
:100F8000C0063AD4A06A41F2021290430230A06235
:100F9000E069D4E9013240EA030C531EB3FA83F34B
:100FA0005D091346B2F5807F18BF2B02207D257B9B
:100FB00001284CEA45002CD135B3A56A45F020053F
:100FC000A562E56A45F00105E56222E0054602E01A
:100FD0008868C007D3D000F0BBF9401B2168032804
:100FE000F6D38868C007F3D0A06A40F01000A06272
:100FF000E06A40F00100E062A06AA06A40F01000E0
:10100000A0620120B0BD00BFA56903EB4533A3F585
:10101000C0534D68B2F5807F25F4694543EA050366
:101020004B608B684FF2FD75CFF6E17503EA05035F
:1010300043EA00038B6001D0012A07D12269002313
:10104000CFF6F07303EB025201E000BF0022CB6A3F
:1010500023F470031A43CA62896840F6FE62CFF631
:101060001F721140814207D10020E062A16A012273
:1010700062F30101A162B0BDA06A40F0100020F04F
:101080000200A062E06A40F00100E0620120B0BD11
:101090007047000080B586B0014640F60000C4F2FB
:1010A0000100096800F5E05291424FF00001CDE9DE
:1010B0000411CDE9021101D006B080BD41F2180142
:1010C000C4F202010A6842F400720A600A6802F47B
:1010D00000720192019A0A6842F004020A600968EB
:1010E00001F0040101910199202102910321039152
:1010F00002A900F01FF812200121002200F090FA4E
:10110000122000F07BFA06B080BD0000B0B50446A6
:1011100000F01EF9054640F21800C2F20000007807
:10112000611C18BF044400BF00F012F9401BA0422C
:10113000FAD3B0BD2DE9F04F82B00E68002E00F05A
:10114000FD8041F20042C4F20102042340F2004E4D
:10115000904208BF03234FF6FF7CC4F2010E0093B8
:1011600000240123C1F2100C4FF0000A4FF00009D7
:101170004BE000BF41F20002C4F20102009F904226
:1011800008BF022704F00C030F229A402BEA020248
:1011900007FA03F34FEA9A051A4346F825204E68EA
:1011A00040F20C45F202DEF8082054BF22EA0802A1
:1011B00042EA0802C4F20105CEF808202A68B30208
:1011C00054BF22EA080242EA08022A60B303DEF8AA
:1011D000042054BF22EA080242EA0802F303CEF8D0
:1011E0000420DEF800204FF0010354BF22EA080279
:1011F00042EA0802CEF800200E680AF1010A36FA27
:101200000AF204F1040400F0998003FA0AFB16EADA
:101210000B08F1D04E68664512DC122E56D8DFE876
:1012200006F0350B4D4955555555555555555555A0
:1012300055555545510000BFD1F80C9046E000BF10
:101240004FF6FF72C1F2210296420FDC0022C1F27A
:10125000110296421AD00022C1F21202964215D013
:101260000022C1F22102964210D02FE00022C1F2EA
:10127000220296420AD00022C1F23102964205D0E3
:101280000022C1F23202964220D100BF8A684AB1E0
:10129000012A14BFC0F814B0C0F810B04FF008090C
:1012A00014E000BF4FF0040910E000BFCA6802F16B
:1012B00004090BE04FF0000908E000BFCA6802F122
:1012C000080903E0CA6802F10C0900BF024626467D
:1012D000B8F5807F24BF0432203E17680F25B54043
:1012E00027EA050509FA06F635431560CA79D206DC
:1012F0007FF582AF41F21803C4F202031A68AEF51B
:101300007E7642F001021A601A6802F00102019230
:10131000019A2AF0030256F802B040F60002C4F225
:101320000102904208D040F60042C4F2010290420D
:101330007FF420AF012725E7002723E702B0BDE8AF
:10134000F08F0000002A08BF090401617047000007
:1013500040F21C10C2F2000000687047002804BF71
:1013600001207047F0B581B0044690F83D0028B9DF
:10137000002084F83C00204600F0A2F8242084F8E5
:101380003D002068016821F001010160016841F41D
:1013900000410160016821F40041016000F0DCFAC5
:1013A000636848F2A16CC0F2010C40F60011C0F273
:1013B0003D0163453CBF48F28041C0F21E018842B6
:1013C00002D2012001B0F0BD4DF68361C4F21B31A1
:1013D000A0FB01122168970CD1F804E04FF4967637
:1013E0002EF03F0545EA92454D60774348F63816A2
:1013F0000D6AC0F24106A7FB067625F03F0763455C
:1014000038BF960C721C3A430A62CA6948F2A06659
:101410004CF6FF77C0F20106B34222EA07020BD86E
:1014200001385B00B0FBF3F001306FF31F3004288C
:1014300098BF04201BE000BFA768013857B11927E7
:101440007B43B0FBF3F001306FF31F3070B100F558
:10145000804007E003EB4303B0FBF3F001306FF390
:101460001F3018B100F5004001E000BF012010431B
:10147000C8610868D4E9072320F0C000104318436E
:101480000860886848F2FF3204F10C0790438CCF63
:1014900018431043A6698860C86820F0FF003843ED
:1014A0003043C860086840F0010008600020202137
:1014B000206484F83D10206384F83E0001B0F0BD44
:1014C00010B586B0016845F20040C4F200008142C8
:1014D0004FF00001CDE90411CDE9021102D006B0B0
:1014E00010BD00BF41F21804C4F20204216800F5E7
:1014F000384041F008012160216801F008010191A4
:101500000199C0210291122103910321059102A9A1
:10151000FFF710FE606840F400106060606800F43F
:1015200000100190019806B010BD000040F21800B4
:1015300040F21C11C2F20000C2F2000100780A68F9
:10154000104408607047000080B542F20000C4F209
:101550000200016841F010010160032000F08CF8E6
:101560000F2000F005F800F027F8002080BD0000F3
:1015700070B540F21806C2F2000640F2200132783F
:10158000C2F200014FF47A730968B3FBF2F2044629
:10159000B1FBF2F1084600F0F3FB0F2C4FF0010510
:1015A00008D838B94FF0FF3021460022002500F05E
:1015B00037F87460284670BD82B041F21800C4F25A
:1015C00002000168022241F001010160016801F09E
:1015D000010101910199416841F0805141604068E9
:1015E00000F08050009000980420C4F201000168CF
:1015F00062F31A61016002B070470000002848BF22
:10160000704700F01F01012202FA01F11C2202EAD8
:10161000D0004EF20012CEF200028150704700005E
:1016200010B54EF60C5CCEF2000CDCF80030C3F3C3
:10163000022E8EF00704042C28BF0424BEF10303FD
:101640004FF0FF3E0EFA04F438BF0023A143994047
:101650000EFA03F39A43114300F00F0200F16043C6
:101660000901043A03F564436244002848BF02F1CB
:101670000C03197010BD00004EF60C51CEF20001A3
:101680000A684FF6FF031A4060F30A2242F08060B6
:1016900040F0FD70086070472DE9F04182B00446CB
:1016A000007841F21C06C007C4F202064AD0306836
:1016B0005FEAC00808D4306840F08050306030687D
:1016C00000F080500190019847F20007C4F2000733
:1016D0003868C00512D4386840F480703860FFF76D
:1016E00037FE05463868C00508D4FFF731FE401BB9
:1016F0006428F7D9032002B0BDE8F081706810F4C7
:10170000407012D0616801F4407188420DD0706859
:1017100040F24042C4F24222012320F4407113609F
:101720000023C0071360716026D17068616820F4DF
:1017300040700843B8F1000F706003D4306820F0A7
:10174000805030602068810707D556F8181CA268C1
:1017500021F44041114346F8181CC00607D556F83D
:10176000180CE16820F48000084346F8180C0020AB
:1017700002B0BDE8F08100BFFFF7EAFD054641F287
:10178000883700BF70688007CFD4FFF7E1FD401BAA
:10179000B8424FF00300F5D9EAE70000002804BF83
:1017A000012070472DE9F04381B042F20008C4F2F5
:1017B00002080446D8F800000D4600F007008842F1
:1017C0000CD2D8F8000020F007002843C8F8000029
:1017D000D8F8000000F00700A8426CD1206841F260
:1017E00004098107C4F2020917D5410705D5D9F8C4
:1017F000001041F4E061C9F80010010705D5D9F8DF
:10180000001041F46051C9F80010D9F80010A26826
:1018100021F0F0011143C9F80010C00742D1D8F8F7
:10182000000000F00700A8420CD9D8F8000020F012
:1018300007002843C8F80000D8F8000000F00700AF
:10184000A84238D12068410707D5D9F80010E268CE
:1018500021F4E0611143C9F80010000708D5D9F858
:101860000000216920F4605040EAC100C9F800007E
:10187000D9F8002002F00C00082841F20020C0F244
:101880007A004DD143F26613C2F38341C0F60003E0
:10189000595CD20338D440F60010C0F23D004843F2
:1018A0003EE000BF606859F8041C022808D00128F7
:1018B00026D1890306D4012001B0BDE8F08300BF22
:1018C0008901F8D5D9F8001021F003010843C9F8BF
:1018D0000000FFF73DFD064641F28837D9F80000C9
:1018E000616800F00C00B0EB810F98D0FFF730FD7D
:1018F000801BB842F2D9032001B0BDE8F08300BFDD
:101900008907D8D5DEE700BFD9F8002043F2641379
:10191000C2F34042C0F600039A5C4843B0FBF2F0C9
:10192000D9F8001043F24C12C1F30311C0F60002C3
:10193000515C40F2200220FA01F140F21C00C2F298
:1019400000000068C2F200021160FFF711FE0020E3
:1019500001B0BDE8F083000040F2200041F2040134
:10196000C2F20000C4F202010068096843F25C128E
:10197000C1F30221C0F60002515CC840704700006C
:10198000002804BF012070472DE9F04182B00446D1
:10199000007841F20006C007C4F202060CD070685D
:1019A00000F00C00042840F081803068800303D5EB
:1019B0006068002800F04681207880071BD5706899
:1019C00010F00C0F09D0706800F00C00082840F0EF
:1019D00087807068C00300F183803068800703D57A
:1019E0002069012840F02E813068616920F0F800FC
:1019F00040EAC10030602078000713D42078400707
:101A00002CD4E569002D00F01881706800F00C00FE
:101A1000082840F0A780012D40F00481012002B089
:101A2000BDE8F081A069002800F084800020C4F2A5
:101A300042200121C0F88014FFF78AFC054600BF50
:101A4000706A800700F1B280FFF782FC401B022819
:101A5000F6D9032002B0BDE8F08100BFF0695FEA6B
:101A6000C00808D4F06940F08050F061F06900F0DF
:101A700080500090009847F20007C4F200073868D1
:101A8000C00549D4386840F480703860FFF760FCC6
:101A9000054600BF3868C0053ED4FFF759FC401B1F
:101AA0006428F7D9032002B0BDE8F081706800F027
:101AB0000C00082803D17068C0033FF576AF616859
:101AC0003068002900F00C81B1F5A02F00F00081F2
:101AD000B1F5803F40F01A8140F480301CE100BF36
:101AE0002069002840F20000C4F2422000F0888003
:101AF00001210160FFF72CFC054600BF306880071C
:101B00003FF572AFFFF724FC401B0228F6D90320F3
:101B100002B0BDE8F08100BFE168306A002900F042
:101B20009D80052900F09280012940F0AF8040F0AF
:101B30000100B1E00020C4F242200021C0F880146E
:101B4000FFF706FC054600BF706A80077FF556AFB9
:101B5000FFF7FEFB401B0228F6D9032002B0BDE8C8
:101B6000F08100BF0027C4F2422700203866FFF74B
:101B7000EFFB022D05460DD13068800140F1DE807B
:101B8000FFF7E6FB401B02284FF00300F4D902B038
:101B9000BDE8F081306880014FD5FFF7D9FB401BCD
:101BA00002284FF00300F5D9F1E700BF40F2200012
:101BB000C2F20000006844F6D351C1F26201A0FBFA
:101BC0000101480A019000BF00BF0198411E002892
:101BD00001913FF413AF00BF0198411E002801910D
:101BE0003FF40CAF00BF0198411E002801913FF463
:101BF00005AF00BF0198411E00280191E4D1FDE628
:101C000000210160FFF7A4FB054600BF3068800794
:101C10007FF5F1AEFFF79CFB401B02284FF003005D
:101C2000F4D9B4E77068216A00F480328A4209D19D
:101C3000616A00F47010884204D1002002B0BDE84F
:101C4000F08100BF012002B0BDE8F08140F0040047
:101C50003062306A40F001001EE000BF20F0010059
:101C60003062306A20F004003062FFF771FB0546F5
:101C700041F28837306A800720D5FFF769FB401BA7
:101C8000B8424FF00300F5D981E700BF20F0010012
:101C90003062306A20F004003062FFF759FB0546DD
:101CA00041F28837306A800708D4FFF751FB401BA8
:101CB000B842F7D9032002B0BDE8F081B8F1000FB7
:101CC0003FF59FAEF06920F08050F06199E600BFCB
:101CD00040F480203060306840F480301CE000BF69
:101CE00020F480303060306820F480203060FFF7CE
:101CF0002FFB0546306880037FF55EAEFFF728FBBB
:101D0000401B64284FF00300F4D940E720F48030F2
:101D10003060306820F480203060FFF719FB054602
:101D2000306880033FF548AEFFF712FB401B642884
:101D3000F6D9032002B0BDE8F08100BF206AB0F5FB
:101D4000803F05D17168A26821F4003111437160B0
:101D50007168626A21F474111143084370600120B4
:101D60003866FFF7F5FA0446306880013FF565AF45
:101D7000FFF7EEFA001B02284FF00300F4D906E744
:101D8000411E0020B0EB116F1CBF012070474EF2C6
:101D90001002CEF2000251604EF62351CEF2000145
:101DA000F0230B700721906011607047FEE7000080
:101DB0002DE9F04F85B0002741F21800CDE90377F7
:101DC000CDE90177C4F20200016840F6004841F015
:101DD000040101600168C4F2010801F004010091EE
:101DE0000099016808F5806641F00801016001680A
:101DF00001AD01F008010091009901684FF001095F
:101E000041F0100101600068032400F01000009010
:101E100000984FF48040019030462946CDE9029762
:101E20000494FFF787F94FF4004B30462946CDE97B
:101E300001B9CDE90374FFF77DF94FF4005A30463C
:101E40002946CDE901A9CDE90374FFF773F93046BE
:101E50004FF400510022FFF775FA4FF48050CDE99E
:101E6000010940462946CDE90374FFF763F940466E
:101E70002946CDE901A9CDE90374FFF75BF94FF4D9
:101E80008040CDE9010940462946CDE90374FFF7BA
:101E900051F940462946CDE901B9CDE90374FFF770
:101EA00049F9332000F05CF8322000F059F828207E
:101EB00000F056F8012000F053F80C2000F050F824
:101EC000062000F04DF805B0BDE8F08F00F07F026D
:101ED00082F0C002002908BF40F08002104600F0E6
:101EE0003FB8000070B584B00DF1050402460AA1A8
:101EF0002046FEF78FF99DF8050058B10026002511
:101F0000A05D00F08DF801352046EEB2FEF759FADB
:101F1000B042F5D804B070BD2564000070B5044629
:101F20000078002808BF70BD00260025A05D00F0E5
:101F300077F801352046EEB2FEF743FAB042F5D805
:101F400070BD0000FEE70000FEE7000070470000E3
:101F500070470000FFF7EABA70470000FEE7000094
:101F600070B541F20004C4F20104054620464FF466
:101F700080410022FFF7E6F940F20006C2F20006B7
:101F8000B0683188C5F30012FFF7DCF9F06871889A
:101F9000C5F34012FFF7D6F93069B188C5F3801256
:101FA000FFF7D0F97069F188EA09FFF7CBF920460D
:101FB0004FF400410122FFF7C5F90120FFF7A6F811
:101FC00020464FF400410022FFF7BCF9B068318889
:101FD00005F00102FFF7B6F9F0687188C5F3400219
:101FE000FFF7B0F93069B188C5F38002FFF7AAF9AD
:101FF0007069F188C5F3C002FFF7A4F920464FF4D9
:1020000000410122FFF79EF90120FFF77FF82046EB
:102010004FF400410022BDE87040FFF793B9000083
:1020200070B541F20004C4F20104054620464FF4A5
:1020300080410122FFF786F940F20006C2F2000655
:10204000B0683188C5F30012FFF77CF9F068718839
:10205000C5F34012FFF776F93069B188C5F38012F5
:10206000FFF770F97069F188EA09FFF76BF920460C
:102070004FF400410122FFF765F90120FFF746F810
:1020800020464FF400410022FFF75CF9B068318828
:1020900005F00102FFF756F9F0687188C5F34002B8
:1020A000FFF750F93069B188C5F38002FFF74AF9AC
:1020B0007069F188C5F3C002FFF744F920464FF478
:1020C00000410122FFF73EF90120FFF71FF82046EB
:1020D0004FF400410022BDE87040FFF733B9000023
:1020E00094B0FFF731FAFFF763FE0AAC201D2421FC
:1020F000FEF786F902200A9001200E90102000259C
:102100000F9020460495CDE902551195FFF738FC54
:1021100020B1EFF3108072B6FEE700BF0F20CDE9CB
:10212000050505A80021CDE907550995FFF736FB00
:1021300020B1EFF3108072B6FEE700BF02200190DD
:10214000002401A80394FFF7A7FA28B1EFF3108049
:1021500072B600BFFEE700BF41F21800C4F20200F1
:10216000016845F2004641F010010160016840F24B
:10217000880501F010010A910A990168C4F200066D
:1021800041F0040101600168C2F2000501F00401A0
:102190000A910A990168012741F00801016000686D
:1021A00006F5504100F008000A900A98284640F8C9
:1021B000101F4FF4602107730475C161C0E9014429
:1021C0000761FEF7B9FE28B1EFF3108072B600BFC9
:1021D000FEE700BF0520CDE90A07002405F1100045
:1021E0000AA90C94FEF73EFD20B1EFF3108072B601
:1021F000FEE700BF40F2C80048F2A061C2F2000052
:10220000C0F201014FF48042C0E90061C0E902441C
:10221000C0E90424C0E906440462FFF79FF828B12E
:10222000EFF3108072B600BFFEE700BF0020002170
:10223000FFF74CFE12A0FFF771FE0B200021FFF705
:1022400045FE11A0FFF76AFE00200121FFF73EFEC8
:102250000EA0FFF763FE05F1080400BF0A20FEF799
:1022600055FF06200021FFF731FE2046FFF756FEFE
:1022700004200121FFF72AFE2868FFF733FEEDE76F
:10228000566F6C743A200000567600004144433B80
:10229000202000005FEA400C08BF91F0000F4FEAD9
:1022A0008C234FEAC12243EA51514FEA1C5018BF18
:1022B00000F5F0404FEA300018BF41F000415FEAFE
:1022C0006C5C00F02980BCF1FF3F08BF40F080400B
:1022D0007047130C06BF12044FF0100C4FF0000CA7
:1022E000130E04BF12020CF1080C130F04BF1201ED
:1022F0000CF1040C930F04BF92000CF1020CD30FED
:1023000004BF52000CF1010C11464FF00002A0F185
:102310001F00A0EB0C00704711F0004F08BF704782
:1023200031F000413FF4D5AF0B0C06BF09044FF06C
:10233000100C4FF0000C0B0E04BF09020CF1080C3E
:102340000B0F04BF09010CF1040C8B0F04BF8900B3
:102350000CF1020CCB0F04BF49000CF1010CCCF1C5
:10236000200322FA03F341EA030102FA0CF2A0EB84
:102370000C0000F10100704723F07F4720F07F4CF4
:1023800080EA030000F00040ACEB070303F57C5348
:1023900003F1FF032DE9804909B44FEA144324EA0D
:1023A00003484FEA154B25EA0B4E0FF2042606EBC5
:1023B00013273E7803FB0667C7F5000707FB06F601
:1023C0004FEAD64606F102064FEA543707FB066C81
:1023D000CCF1005C4FEA1C472CEA074C0CFB06F5DD
:1023E00007FB06F404EB15464FEA961649085FEA28
:1023F000320234BF00204FF000404FEAD13706FBD5
:1024000007FC4FEA1C4C0CFB0BF7D21B03FB0CF731
:1024100061EB07010CFB0EF7B0EB074072EB1742C4
:102420000CFB08F734BFA2EB0742B2EB074261EBAB
:1024300017414FEA0C444FEA910706FB07FC4FEAAD
:102440001C4C0CFB0BF7B0EBC74072EB573203FB95
:102450000CF734BFA2EBC742B2EBC74261EB573176
:102460000CFB0EF7B0EBC70072EB57720CFB08F7D2
:1024700034BFA2EBC702B2EBC70261EB57714FEA60
:10248000816141EA92114FEA826242EA90124FEA78
:10249000806004EBCC04039F4FEAD13706FB07FCB6
:1024A0004FEA1C4C0CFB0BF7D21B03FB0CF761EB48
:1024B00007010CFB0EF7B0EB074072EB17420CFB69
:1024C00008F734BFA2EB0742B2EB074261EB1741BA
:1024D0004FEA8C5504EB9C244FEA910706FB07FC5E
:1024E0004FEA1C4C0CFB0BF7B0EBC74072EB5732BA
:1024F00003FB0CF734BFA2EBC742B2EBC74261EB60
:1025000057310CFB0EF7B0EBC70072EB57720CFBA8
:1025100008F734BFA2EBC702B2EBC70261EB5771F9
:102520004FEA816141EA92114FEA826242EA9012D7
:102530004FEA806015EB4C2544F100044FEAD13797
:1025400006FB07FC4FEA1C4C0CFB0BF7D21B03FBF2
:102550000CF761EB07010CFB0EF7B0EB074072EBD9
:1025600017420CFB08F734BFA2EB0742B2EB07425D
:1025700061EB17414FEA813141EA92414FEA8232E1
:1025800042EA90424FEA80304FEA0C7615EB1C1578
:1025900044F1000448EA03434EEA0B484FF0000EB2
:1025A000B2EB080C71EB030724BF624639464EEBD1
:1025B0000E0E4FF0000B0018524149414BEB0B0B34
:1025C000B2EB080C71EB03077BF1000B24BF6246F2
:1025D00039464EEB0E0E4FF0000B001852414941A8
:1025E0004BEB0B0BB2EB080C71EB03077BF1000B11
:1025F00024BF624639464EEB0E0E51EA020718BF61
:1026000046F0010616EB0E7655F1000254F100017A
:1026100003D5BDE88901BDE80088BDE88901BDE8B2
:102620000048B619524141EB0101A3F10103704783
:1026300080807F7E7D7C7B7A7978777676757473FF
:10264000727171706F6E6E6D6C6C6B6A6A696868BE
:10265000676666656464636362616160605F5F5E54
:102660005E5D5D5C5C5B5B5A5A59595858575756CA
:10267000565555555454535352525251515050502F
:102680004F4F4F4E4E4D4D4D4C4C4C4B4B4B4A4A81
:102690004A494949484848474747474646464545C5
:1026A00045444444444343434342424242414141FE
:1026B0009C46002B30D477002BD04FEA37071CB54F
:1026C00003B44FF010004FF01001BAF1000F06D024
:1026D000BCF1000FDCBF40F0080040F008014FF0F3
:1026E00000000FBCBDE810400BF1010BBBF1010F66
:1026F00008BF5FEA170722BF12F1010211F10101C1
:102700004FF0004143F1000300F0004043EA0000B5
:102710007047F9D35708D0E746EA06464FEA16460F
:1027200013F1400F1FDD13F1200FDFBF16430A46E0
:10273000002120335B42BED0C3F1200746EA0646A3
:102740004FEA164602FA07F746EA070622FA03F2AC
:10275000C3F1200701FA07F742EA070221FA03F161
:102760004FF00003A7E746EA020646EA06464FEAAC
:10277000164646EA0106BCBF46EA0646360C4FF04E
:1027800000034FF000024FF0000194E72DE9804C68
:1027900070B49A46934691E8380007C831EA400C75
:1027A00048BF34EA430C03D5FFF7E6FDFFF780FF8F
:1027B000F0BCBDE8008C2DE9804C70B49A4693467D
:1027C00091E8380007C810F0804F08BF13F0804F21
:1027D00003D100F005F8FFF76BFFF0BCBDE8008CFB
:1027E00020F07F4723F07F4C80EA030000F0004098
:1027F00007EB0C03A3F57C53A3F1FE0392F0000F4B
:1028000000F0B38095F0000F00F077802DE90149CA
:102810004FEA114021EA00484FEA144624EA0647ED
:1028200000FB06FC08FB06F607FB08F818EB064859
:102830004CEB164C00FB07F718EB07484CEB174026
:102840004FEA124B22EA0B4E4FEA154625EA06479D
:102850000BFB06FC0EFB06F607FB0EFE1EEB064E00
:102860004CEB164C0BFB07F71EEB074E4CEB174BD4
:1028700018EB0B0840F1000018EB0E0B58EB0008AA
:1028800040F100008F1A4FF000014FF000063CBFEE
:10289000C943661B14BFB5EB040C00213CBFC94300
:1028A000F61B4FEA174427EA04454FEA1C472CEA77
:1028B000074C04FB076205FB07F70CFB05F616EB5C
:1028C000074642EB174204FB0CFC16EB0C4642EBAE
:1028D0001C421BEB060658EB020241414EEA8E0EEB
:1028E00046EA9E0601D5BDE80189B619524141EB81
:1028F0000101A3F10103BDE801894FEA144524EA6F
:1029000005464FEA114721EA074C05FB07F406FB91
:1029100007F70CFB06F111EB074144EB174405FBED
:102920000CFC11EB0C4144EB1C444FEA124722EA29
:10293000074C05FB07F206FB07F70CFB06F616EB48
:10294000074642EB174205FB0CFC16EB0C4642EB2C
:102950001C456A1854F1000148BF7047B61952412E
:1029600041EB0101A3F10103704795F0000F37D04F
:102970004FEA114221EA02464FEA144724EA074C83
:1029800002FB07F106FB07F70CFB06F414EB074408
:1029900041EB174102FB0CFC14EB0C4441EB1C41D6
:1029A0004FEA154725EA074C02FB07F506FB07F738
:1029B0000CFB06F616EB074645EB174502FB0CFC35
:1029C00016EB0C4645EB1C42121951F1000148BFB1
:1029D0007047B619524141EB0101A3F10103704761
:1029E0004FEA144524EA05464FEA114721EA074C0D
:1029F00005FB07F106FB07F70CFB06F212EB07429B
:102A000041EB174105FB0CFC12EB0C4251EB1C4156
:102A10004FF0000648BF7047921841EB0101A3F147
:102A200001037047490050EAC12018BF04204A0D35
:102A300018BF40F0010040F2FF72B2EB515F08BFD7
:102A400040F00200012808BF0520704730380A28EE
:102A500001D20120704700207047000010B5002906
:102A60000AD00878002807D005487844FEF7A6F871
:102A7000002801D0002010BD0248784410BD00009D
:102A80002E0700002607000021F0004201F000435D
:102A9000A2F16052B2F5801F28BFD2F17F6C0BD932
:102AA0005FEA001C43EAC20242EB507018BF704755
:102AB00028BF20F001007047B2F5801FBCBF184648
:102AC00070474FEA410C1CF5001F02D2084600F087
:102AD000ECBA70B500F024FA00000089FFF7F6BFE9
:102AE0004FF00040A0F58000704700002DE9C04184
:102AF00030B4DFF8A8C23CEA111418BF3CEA131442
:102B000000F0F0801CEA111481EA030544EAD57450
:102B100018BF1CEA131500F0CB80A4EB050404F1E8
:102B20007F7404F500344FF0004545EAC12145EAC1
:102B3000C32341EA505143EA52534FEAC0204FEABF
:102B4000C222994208BF904200F0A0804FEA13656C
:102B50000FF24816765D4FEA134506FB05F7C7F1FD
:102B6000807706FB07F74FEAD737A7FB0368764263
:102B7000A7FB06CEC8F5803838BFA8F1010807FBCF
:102B800008E6A6FB028C4FF0000EE6FB03CED8F160
:102B900000086FEA0C0C5CF1000C6FEA0E0E4EF1AF
:102BA000004EA6FB0C584FF00007E6FB0E87A1FB7A
:102BB00008C6A0FB07CE16EB0E064FF0000545F148
:102BC0000005E1FB076515F1E04E7EBFA4F58034FA
:102BD0005FEA46066D4116F1800745F100054FEAB0
:102BE000172747EA05674FEA15254FEA0666A6F15B
:102BF000DE46B6F1805F20D9384605EBC47124F07B
:102C0000010C01EB0C11BCF1FE6F02D8F0BCBDE869
:102C1000008124425CBF01F5801E9EEAC47F02D47D
:102C2000F0BCBDE80081244200F13980A1F1C0412F
:102C3000F0BCBDE8004100F0C1B94FEAD02040EA45
:102C400041504FEAD1214FEAD22242EA43524FEAA1
:102C5000D323A7FB028607FB036605FB02661EEA79
:102C60000E0F58BFA6EB0056B6EB00564FEA520EB9
:102C70004EEAC37E18EB0E0E56EB530EBCD518EB86
:102C800002085E417F1C55F10005B5E74FF4801541
:102C90004FF000074FF000064FF00008ACE701F1DD
:102CA000C04101F000414FF00000F0BCBDE80081E0
:102CB0000CEA131511EA0C1F00D00CE013EA0C1FEC
:102CC00000F025804FF0000081EA030101F000418F
:102CD000F0BCBDE80081F0BCBDE8004181EA030121
:102CE00000F06CB9F0BCBDE8004170B500F018F917
:102CF000097EFC3E00F007B84FF0000081EA0301B6
:102D000001F00041704781EA030100F057B9F0BCBF
:102D1000BDE8004122494FF000007047FFFDFBF97C
:102D2000F7F5F4F2F0EEEDEBE9E8E6E4E3E1E0DEFE
:102D3000DDDBDAD8D7D5D4D3D1D0CFCDCCCBCAC870
:102D4000C7C6C5C4C2C1C0BFBEBDBCBBBAB9B8B797
:102D5000B6B5B4B3B2B1B0AFAEADACABAAA9A8A88A
:102D6000A7A6A5A4A3A3A2A1A09F9F9E9D9C9C9B58
:102D70009A99999897979695959493939291919003
:102D80008F8F8E8E8D8C8C8B8B8A89898888878794
:102D90008685858484838382828181800000FF0709
:102DA0000000F87FB0FA80F310FA03F10AD0C3F103
:102DB0001D0303F580634FEA03524FEA415002EBD3
:102DC000D12170474FF000007047000070B5DFF868
:102DD00048C11CEA111E1EBF1CEA13159EEA0C0F07
:102DE00095EA0C0F00F06F8081EA03044EEAD47E6E
:102DF000AE4421EA4C1123EA4C1341F4801143F410
:102E00008013AEF17F7EA1FB024CA0FB0365361957
:102E100055EB0C05A1FB034C4CF10003A0FB021C7D
:102E200016EB0C06654153F10003094218BF46F04A
:102E3000010613F4007F0BD14FEA03314FEA05304E
:102E400041EA155140EA165034036FF003020AE0DC
:102E50004FEAC3214FEAC52041EA555140EA565096
:102E6000F4026FF0020202EB2E4201EB025585EAFA
:102E7000CE710AD05FEA440C18BF24F0004450F130
:102E8000000041F1000120EAD47040F2FE7C62456E
:102E900000D270BDA84214BF4FF080444FF04044B0
:102EA000002E08BF0024BEF1806FA8BFA1F1C04171
:102EB000BDE8704080F2828001F1C04101F0004124
:102EC0004FF0000070470CEA13159EEA0C0F18BF74
:102ED00095EA0C0F06D081EA030E4FF000000EF0C9
:102EE000004170BD00F01CF88900013E00F007B8F9
:102EF00000F009B84FEA430C5FEA5C5C08D081EA55
:102F0000030100F05BB84FEA410C5FEA5C5CF6D16C
:102F100002494FF0000070470000FF070000F87FF3
:102F20000EF1020E2EF0030E5EF8046B364205D44D
:102F3000012A43EB030515F5001F12D8012841EBC8
:102F4000010C1CF5001F0CD80ED14FEAD17C0CEB04
:102F50004C0C0CF1020C15F5001F08BF4CEBD37C98
:102F600004E04FF0080C01E04FEAD37C0CEB4C0579
:102F700026FA05F606F00706B6F1040C06D20EEBAB
:102F8000860CBDE870404CF0010C6047DFE80CF0A7
:102F9000090B02024FF00041A1F500214FF00000A3
:102FA00070BD19461046012851EB010418BFD4F535
:102FB000001484BF002001F0004170BD0808A0F596
:102FC00000114FEA3101704743004FEAD30C4FEA3A
:102FD0003C0C43401FBF40070CF1605113F0FE4F03
:102FE00070471CF0006F03D10CF0004100207047C7
:102FF0000CF0004343EA507040EACC0010B500F0FA
:103000000EF800BF000000924FEA0001FFF7D6BFA4
:103010004FF00041A1F500214FF0000070470EF184
:10302000020E2EF0030E5EF8044B244204D44FEA45
:103030004102B2F17F4F11D84FEA4003B3F17F4F05
:103040000CD80ED14FEAD07C0CEB4C0C0CF1020CDE
:10305000B2F17F4F08BF4CEBD17C04E04FF0080C7D
:1030600001E04FEAD17C0CEB4C0324FA03F404F0AA
:103070000704B4F1040C06D20EEB840CBDE810403A
:103080004CF0010C6047DFE80CF0070802024FF03B
:103090000040A0F5800010BD0846420018BFD2F1E4
:1030A000807288BF00F0004010BDFF2141EAD0507F
:1030B000C0057047FDF7FFBA02400000000000A005
:1030C0000000000005400000000000C800000000F3
:1030D0000C4000000000409C00000000194000006F
:1030E0000020BCBE0000000034400000BFC91B8EA1
:1030F00000000004B5400000504BCFD06607E2CF7F
:10310000010000006C4100003E8251AADFEEA734AE
:1031100001000000D9420000DCB5A0E23A301F9760
:10312000FFFFFFFFB4450000FD25A0C8E9A3C14F84
:10313000FFFFFFFFFF3F00000000008000000000D5
:10314000FF3F0000000000800000000000000000C1
:103150000000000001020304060708090000000047
:1031600001020304010202030405060708090A0B11
:103170000C0D0E0F10100000B831000800000020E8
:103180002800000050010008E0310008280000205D
:10319000F8060000700100081C0000004300000059
:1031A000F8FFFFFF0C0000000E0000000F00000001
:1031B0002E000000000000000010002000400080F1
:1031C000000C0140000C0140000C0140000C0140CB
:1031D000010000001000000000127A000000000052
:04000005080000ED02
:00000001FF
