:020000040800F2
:1000000060070020D50100084D300008292C0008A9
:1000100049300008C90C00086130000800000000E9
:100020000000000000000000000000005530000843
:10003000A5100008000000005130000859300008E9
:10004000EF010008EF010008EF010008EF010008D0
:10005000EF010008EF010008EF010008EF010008C0
:10006000EF010008EF010008EF010008EF010008B0
:10007000EF010008EF010008EF010008EF010008A0
:10008000EF010008EF0100080D0C0008EF01000867
:10009000EF010008EF010008EF010008EF01000880
:1000A000EF010008EF010008EF010008EF01000870
:1000B000EF010008EF010008EF010008EF01000860
:1000C000EF010008EF010008EF010008EF01000850
:1000D000EF010008EF010008EF010008EF01000840
:1000E000EF010008EF010008EF01000800F002F83E
:1000F00000F060F814A696E8000CB244B344DA4568
:1001000001D100F057F8BAE80F000FA696E83000CA
:10011000A5EB040504EB0607AAEB0704A7F101070A
:100120004FEA15154FEA3414A4F10104AC4201D38F
:1001300000F040F813F0010F18BFFB1A43F0010361
:1001400000F001F8DBE718474C4100006C4100006B
:10015000103A24BF78C878C1FAD8520724BF30C8F3
:1001600030C144BF04680C60704700007047000055
:100170000023002400250026103A28BF78C1FBD8B0
:10018000520728BF30C148BF0B607047662904F092
:100190001F80642900F05280002070471FB500F0D6
:1001A000BFFB04000020002103F0E6FCE0601FBD5F
:1001B00010B510BD00F0B4FC1146FFF7EFFF02F0E0
:1001C00051FF00F0D2FC03B4FFF7F2FF03BC00F0D4
:1001D00015FD00000948804709480047FEE7FEE793
:1001E000FEE7FEE7FEE7FEE7FEE7FEE7FEE7FEE7E7
:1001F00004480549054A064B704700005D30000879
:10020000ED0000086001002060070020600300206E
:10021000600300200FB41CB5074B06AA7B44694657
:100220000090059800F063FB0020694600F072FB27
:100230001CBC5DF814FB0000F50600002DE9F04140
:100240000646002410687529314616A510D0AFF374
:100250000080002802DA404213A507E031688A07CF
:1002600001D512A502E0490704D511A5012401E03A
:10027000AFF3008000210A2206F1240709E0B0FB59
:10028000F2FCB0FBF2F302FB1C003030785418464D
:10029000491C0028F3D123462A463046BDE8F041E8
:1002A00000F0B9B8000000002D0000002B00000095
:1002B000200000002DE9F0474FF0000A894604466F
:1002C000C0F820A02046E1688847002876D025287D
:1002D00006D0D4E901219047206A401C2062F1E752
:1002E000E168204600258847C4F81CA00646002780
:1002F000C4F818A02A2E09D0304603F035FC38B3D4
:1003000004EB8708303EC8F8186019E059F8041B60
:10031000204604EB87029161E1688847012F064679
:1003200018D1E069002820DA25F020051DE0D8F872
:10033000180000EB800006EB40003038C8F81800C9
:100340002046E1688847064603F00EFC0028EED1FF
:10035000012F0AD02E2E08D12046E16888477F1C45
:100360000646022F45F02005C4DBA069002803DA09
:10037000404245F00105A061E80701D025F01005D5
:10038000B6B1A6F14100192802D8203645F400651F
:100390004A463146204625604D46FFF7F7FE58B1E4
:1003A000012806D0ED1D25F0070000F1080989E7B6
:1003B00004E005F1040985E730468AE7206ABDE8D4
:1003C000F0874FF0000200B5134694469646203958
:1003D00022BFA0E80C50A0E80C50B1F12001BFF4FE
:1003E000F7AF090728BFA0E80C5048BF0CC05DF864
:1003F00004EB890028BF40F8042B08BF704748BFB2
:1004000020F8022B11F0804F18BF00F8012B704725
:100410007047704770472DE9F0470D469946924660
:10042000044600F124080168880604D5E06921F03B
:100430001001216000E00120A84201DD471B00E01F
:100440000027A1697A1902EB0900081AA061207837
:10045000C00602D42046AFF30080002608E0D4E9AD
:1004600001211AF806009047206A401C761C206281
:100470004E45F4DB2078C0060AD52046AFF3008055
:1004800006E0D4E9012130209047206A401C206218
:10049000381EA7F10107F4DC07E0D4E9012118F8C0
:1004A00005009047206A401C2062281EA5F1010526
:1004B000F3DC2046AFF300802078000602D502204E
:1004C000BDE8F0870120FBE72DE9FF4F0C461E46F3
:1004D0004FF0FF378BB0D2E90001DDF860800A9061
:1004E0008A46C1F30A5505B93D46002108464FF03A
:1004F0000000BAF1000F00F4400005DA00EB8000C4
:100500004FF4400101EA50004FEA9059B9F1010F50
:1005100000DDB9460A9850EA4A000ED044F6105061
:10052000A5F2FF3545432F14B8F1000F1ED07542D8
:10053000291E1EDDC9F100021CE0B8F1010F4FF0C9
:10054000000001D0302103E0F24305E02154401CBB
:10055000B042FBDB30460022002121540B99C1F848
:100560000880C1E900200FB0BDE8F08FBD1B6D1CF5
:10057000DEE74A4600DA694206A800F05BFA06ABFD
:1005800093E8070003AB83E8070050460A9902F09E
:100590000FFF8DE80700A0F500501F38009003986A
:1005A000002D0ADD42F21F014A460844002303A938
:1005B0000390684603F078F909E0A0F500504A4638
:1005C0001F38002303A90390684603F082F98DE8E1
:1005D00007000004000C03D04FF0FF30410800E09A
:1005E0001046B8F1000F03D00022009215461EE01D
:1005F000751E05D400F098F9303262556D1EF9D59C
:10060000B3460122084302D000227F1C04E0207878
:10061000302801D100227F1E002A099784D01DE0D6
:10062000112D07DA00F080F9303262556D1C50EA66
:100630000102F5D1084302D00098C8B10EE00021B4
:10064000681E05E0235C625C63542254401E491C12
:100650008142F7DBAB46A81B401E0990002004F83E
:100660000B000B98099AC0F80880C0E9002B7AE7C4
:1006700011264FF0000857E72DE9F04F8846044651
:10068000D21D22F0070191B0D1E90001CDE90A01A4
:1006900003F056FA02460B98C00F01D02D2007E058
:1006A0002068810701D52B2002E0202101EAC0004B
:1006B000032A099001D0072A05DB0346414620465C
:1006C00000F078F90BE12078800601D5E06900E0C0
:1006D0000620B8F1650F814606D0B8F1660F18D034
:1006E000B8F1670F70D131E00020B9F1110F00901F
:1006F00001DB112301E009F101030AAA01A90CA8F9
:10070000FFF7E2FEDDE90C70002609F101058346E2
:1007100047E001204B4600904FF000470AAA01A98C
:100720000CA8FFF7D1FEDDE90DB00C995D4600265F
:1007300010B909F101000D18B9EB050003D4C0F19F
:10074000FF3609F10105A5EB09002BE0B9F1010F16
:1007500001DA4FF001090020B9F1110F009048466D
:1007600001DD112300E003460AAA01A90CA8FFF746
:10077000ABFEDDE90C704D4600268346207800076D
:100780000AD4AB4500DA5D4601A8012D04DD41190C
:1007900011F8011C302907D04F4502DA17F1040F78
:1007A00004DA012082460FE06D1EEEE7002F02DC26
:1007B000ED1B3E4403E0781CA84200DD7D1CB81B05
:1007C00000F1010A4FF000472078000703D4AA4542
:1007D00001DB4FF0FF3A0021B7F1004F0DF1430864
:1007E0008DF8431024D002202B23002F01DA7F4202
:1007F0002D230A21021EA0F1010000DC5FB197FB4E
:10080000F1FC97FBF1F201FB1C7C17460CF1300C5C
:1008100008F801CDEEE7A8F1010003702188090571
:1008200001D5452100E06521A0F1010800F8011C77
:1008300009980FA9A1EB0807FF1D00B1012041197C
:1008400001EBEA70A1693844081A401EA0612078C3
:10085000C00602D42046AFF30080099828B1D4E93D
:1008600001219047206A401C20622078C00622D5D2
:100870002046AFF300801EE0002E04DBB34502DD0E
:1008800001A8805D00E03020D4E901219047206A72
:10089000401C2062761CAAF101005FEA000A0AD11E
:1008A00000F03EF8C0680168405CD4E9012190473F
:1008B000206A401C2062281EA5F10105DCDC07E04F
:1008C000D4E9012118F8010B9047206A401C2062EE
:1008D000381EA7F10107F3DC2046AFF300800320A8
:1008E00011B041E601694A1C02610878704700B501
:1008F0008FB0CDE901310021059105497944CDE959
:10090000031011466846FFF7D5FC0FB000BD00008C
:10091000E5FFFFFF0A6802F8010B0A60704700005C
:10092000004870473000002030B5B0F10A0271F184
:1009300000034FEA900E4EEA817EB0EB0E0061EBB1
:1009400091014FEA101E4EEA017E10EB0E0041EBC2
:1009500011114FEA102E4EEA016E10EB0E0041EB22
:1009600011214FEA104E4EEA014E10EB0E0041EB02
:100970001141401841F100014FEAD00040EA4170B6
:100980004FEAD1014FEA810444EA907410EB8005EC
:1009900044EB01046D1944EB0404521BA3414FF0D6
:1009A000000348BF0A3200D530BD401C41F10001B0
:1009B00030BD00002DE9F0411F46044603260168C2
:1009C000072A01F4006004DB08B116A505E016A5AE
:1009D00003E008B115A500E015A521F01000206086
:1009E000A069C01EA0610FB1401EA0612046AFF3F8
:1009F00000804FB1D4E9012138469047206A401C5D
:100A00002062C01C206206E0206AFAE7D4E90121D6
:100A100015F8010B9047761EF8D22046AFF3008000
:100A2000BDE8F0814E414E006E616E00494E4600B9
:100A3000696E66002DE9F047814616468AB0354852
:100A400078440DC88DE80D0032487844801C03AC12
:100A50000DC884E80D0041F69B300844372190FB17
:100A6000F1F290FBF1F5A5F1800501FB12041B3CAE
:100A700002D56442012000E00020DFF898A0804603
:100A80000027FA44AAF1BE0A0EE0E0070AD0324677
:100A9000684607EB470101230AEB810102F019FFC9
:100AA0008DE8070064107F1C002CEED1194F7F44A5
:100AB000AE3F19E0E80715D007EB04100DF1180A56
:100AC00090E80E008AE80E00C068F04201D1981943
:100AD00008903246012306A903A802F0FAFE03ABF0
:100AE00083E807006D10641C002DE3D14FF0010373
:100AF00032466946B8F1000F03A802D002F0D4FED6
:100B000001E002F0E6FEC9E90001C9F808200AB0D8
:100B1000BDE8F0870C380000004870471000002046
:100B20007546FFF7F9FFAE4605006946534620F0CB
:100B30000700854618B020B5FFF75AFBBDE82040F6
:100B40004FF000064FF000074FF000084FF0000B89
:100B5000AC46ACE8C009ACE8C009ACE8C009ACE8F8
:100B6000C00921F007018D46704710B50446AFF368
:100B700000802046BDE81040FFF725BB4FF0013C48
:100B800050F8042B51F8043B9A4221D1A2EB0C03FC
:100B9000934313EACC1317D150F8042B51F8043BBC
:100BA0009A4215D1A2EB0C03934313EACC130BD159
:100BB00050F8042B51F8043B9A4209D1A2EB0C03E4
:100BC000934313EACC13DBD04FF00000704700BF13
:100BD000D01A01BAB1FA81F101F0180122FA01F03C
:100BE000CB40DBB2C0B2C01AC1F120012CFA01F334
:100BF000D11A914311EAC311E6D170470149182077
:100C0000ABBEFEE7260002007047000040F28C00F9
:100C1000C2F2000000F01ABBB0B582B0044600205A
:100C2000019021688A68D2074BD1886840F00100A2
:100C3000886040F20800C2F2000000684DF683614F
:100C4000C4F21B31A0FB0101880C01900198A0B1F6
:100C5000019801380190019878B10198013801900C
:100C6000019850B1019801380190019828B101987C
:100C70000138019001980028EAD100F0D1FD2168E7
:100C80008968C9071CD1054603E000BF8068C0071A
:100C900016D100F0C5FD411B20680329F6D38168F9
:100CA000C907F3D1A06A40F01000A062E06A40F0EA
:100CB0000100E062002084F82400012002B0B0BDF1
:100CC000002002B0B0BD0000FEE700002DE9F041B9
:100CD00082B0044608982160A07140F60640C2F632
:100CE0001400C4F807000820E072322022716371FA
:100CF00000F07AFCE07A3825002808BF30252E1D48
:100D0000012038278DF8046000F06EFC01208DF87A
:100D100005508DF8066000F067FC206821794FF4DB
:100D20007A7801AA04238DF80750CDF8008000F0EE
:100D30002FFEE07A3826002808BF3026351D012016
:100D40008DF8045000F050FC01208DF805608DF8FE
:100D5000065000F049FC2068217901AA04238DF88F
:100D60000760CDF8008000F013FE052000F03CFC89
:100D7000E07A2825002808BF302707F1040008BFC3
:100D800020258DF804000120282600F02DFC281DC8
:100D90008DF8060001208DF8057000F025FC206814
:100DA000217901AA04238DF80750CDF8008000F0C6
:100DB000EFFD052000F018FCE07A2825002818BF78
:100DC000012008BF2025C700281D8DF80400012040
:100DD00000F00AFC381D8DF8060001208DF8055042
:100DE00000F002FC2068217901AA04238DF8077025
:100DF000CDF8008000F0CCFD052000F0F5FBE07997
:100E0000E27A010120F00F0501F10807002A14BF62
:100E100008350701281D8DF80400012000F0E4FBCF
:100E2000381D8DF8060001208DF8055000F0DCFB20
:100E30002068217901AA04238DF80770CDF800807D
:100E400000F0A6FD207AE27A010120F00F0501F101
:100E50000807002A14BF08350701281D8DF8040073
:100E6000012000F0C1FB381D8DF8060001208DF82F
:100E7000055000F0B9FB2068217901AA04238DF800
:100E80000770CDF8008000F083FD607AE27A0101FE
:100E900020F00F0501F10807002A14BF08350701EB
:100EA000281D8DF80400012000F09EFB381D8DF8F0
:100EB000060001208DF8055000F096FB206821798E
:100EC00001AA04238DF80770CDF8008000F060FDC2
:100ED000A07AE27A010120F00F0501F10807002A4B
:100EE00014BF08350701281D8DF80400012000F00B
:100EF0007BFB381D8DF8060001208DF8055000F0B1
:100F000073FB2068217901AA04238DF80770CDF8BE
:100F1000008000F03DFDE07A1827002818BF01206E
:100F20004FEAC00505F1040008BF10278DF8040042
:100F3000012000F059FB381D8DF8060001208DF8C6
:100F4000055000F051FB2068217901AA04238DF897
:100F50000770CDF8008000F01BFDE07A00280CBF80
:100F600020260120C500281D8DF80400012000F076
:100F70003BFB301D8DF8060001208DF8055000F078
:100F800033FB2068217901AA04238DF80760CDF88E
:100F9000008000F0FDFC02B0BDE8F08170B582B0C9
:100FA00004464079A379884298BF411E934298BF76
:100FB0005A1ED0B2032809D8DFE800F0090204065F
:100FC000403104E0143102E0543100E000210A0114
:100FD000E37A01F0700002F108056FF07702002B50
:100FE00008BF6FF07F0202EB000606F1040008BFA5
:100FF0000D018DF80400012000F0F6FA281D8DF88F
:10100000060001208DF8056000F0EEFA20682179D5
:101010004FF47A7601AA04238DF80750009600F069
:10102000B7FC02B070BD00000A78002A08BF704704
:101030002DE9F04782B082464E1E4FF47A780DF1CA
:10104000040900BF11019AF80B3022F00F0001F1E2
:101050000807002B14BF08301701451C05308DF818
:10106000040001207C1C00F0BFFA781D8DF80600FA
:1010700001208DF8055000F0B7FADAF800009AF870
:1010800004104A4604238DF80740CDF8008000F094
:101090007FFCB2780136002AD4D102B0BDE8F04717
:1010A00070470000704700007047000010B581B025
:1010B0000022009290F82420012A03D10221084640
:1010C00001B010BD4B680122062B80F8242033D8D4
:1010D000D0F800C003EB83035A1F1F23DCF834E071
:1010E00003FA02F40B682EEA040403FA02F2224324
:1010F000CCF83420092B03EB430249D9DCF80CE08F
:101100001E3A0724896894402EEA0404914023F093
:1011100001022143102ACCF80C1043D142F20841BD
:10112000C4F20101A1F10802944543D0816A41F063
:1011300020018162012136E0D0F800C00C2B03EBC6
:10114000830213D8233A1F23DCF830E003FA02F4B9
:101150000B682EEA040403FA02F22243CCF8302092
:10116000092B03EB4302C9D812E000BF413A1F2309
:10117000DCF82CE003FA02F40B682EEA040403FA0C
:1011800002F22243CCF82C20092B03EB4302B5D802
:10119000DCF81030072489689440A3439140194338
:1011A000CCF810100021002280F82420084601B05D
:1011B00010BD00BF0A681202F4D40A68102B42F472
:1011C00000020A60EED140F20801C2F20001096893
:1011D0004DF68362C4F21B32A1FB0212910C01EBAB
:1011E00081014900009100990029DBD00099013963
:1011F000009100990029D5D00099013900910099FA
:101200000029CFD000990139009100990029C9D057
:10121000009901390091009900294FF00001E5D1B2
:10122000C1E7000010B540F27004C2F2000400688B
:10123000E169884218BF10BD04F11C0000F002F8FB
:10124000206010BD0068C06C7047000070B5044697
:10125000006805684668B10627D515F0020124D05C
:10126000A16AC90603D4A16A41F40071A162816830
:1012700001F46021B1F5602F10D1217B71B9416873
:1012800021F020014160A06A20F48070A062A06A71
:10129000C00403D4A06A40F00100A0622046FFF71A
:1012A000C1FF20686FF012010160310633D515F0DF
:1012B000040130D0A16AC90603D4A16A41F40051E7
:1012C000A162816801F4E041B1F5E04F10D14168BD
:1012D00021F080014160A06A20F48050A062A06AE1
:1012E000C00511D4A06A40F00100A0620CE000BF6C
:1012F0004168490508D4816801F46021B1F5602F87
:1013000002D1217B0029E2D02046FFF7CDFE2068E4
:101310006FF00C01016070060ED515F0010008BFDA
:1013200070BDA06A40F48030A062204600F0B2F8A0
:1013300020686FF00101016070BD0000002804BF4B
:1013400001207047B0B50446806A28B121688868DA
:10135000C0070CD115E000BF0020E06284F8240033
:10136000204600F099F821688868C00709D088688D
:1013700020F00100886000F053FA21688A68D207E3
:1013800026D1A06AC0063AD4A06A41F20212904364
:101390000230A062E069D4E9013240EA030C531E36
:1013A000B3FA83F35D091346B2F5807F18BF2B02B1
:1013B000207D257B01284CEA45002CD135B3A56A58
:1013C00045F02005A562E56A45F00105E56222E0E9
:1013D000054602E08868C007D3D000F021FA401B20
:1013E00021680328F6D38868C007F3D0A06A40F0CC
:1013F0001000A062E06A40F00100E062A06AA06A0A
:1014000040F01000A0620120B0BD00BFA56903EB51
:101410004533A3F5C0534D68B2F5807F25F4694587
:1014200043EA05034B608B684FF2FD75CFF6E1751B
:1014300003EA050343EA00038B6001D0012A07D1C8
:1014400022690023CFF6F07303EB025201E000BFE4
:101450000022CB6A23F470031A43CA62896840F6FB
:10146000FE62CFF61F721140814207D10020E06278
:10147000A16A012262F30101A162B0BDA06A40F03D
:10148000100020F00200A062E06A40F00100E0627B
:101490000120B0BD7047000080B586B0014640F61F
:1014A0000000C4F20100096800F5E05291424FF0DB
:1014B0000001CDE90411CDE9021101D006B080BDD3
:1014C00041F21801C4F202010A6842F400720A6093
:1014D0000A6802F400720192019A0A6842F004025A
:1014E0000A60096801F0040101910199202102912B
:1014F0000321039102A900F08BF8122001210022A0
:1015000000F0E4FB122000F0CFFB06B080BD00002D
:1015100010B5044690F82400012804BF022010BD35
:10152000012084F824002046FFF776FB20B100203C
:1015300084F82400012010BD42F2044C2068A16A06
:10154000C4F2010C40F6017291430CF57F7201F573
:1015500080719042A1622DD0A16A21F48011A16214
:101560004168490504D5A16A012363F30D31A162E5
:10157000A16A0023C9044FF0000144BFE16A21F0D1
:101580000601E1626FF0020184F8243001604168D5
:1015900041F020014160816801F46021B1F5602FC4
:1015A0001BD1904214D0816841F4A00181600020D9
:1015B00010BD00BFDCF8001011F4702FCCD0A16A70
:1015C00041F48011A162DCF800104905CBD4CFE7CB
:1015D000DCF8001011F4702FE5D0816841F480111F
:1015E0008160002010BD0000B0B5044600F018F97D
:1015F000054640F20000C2F200000078611C18BFEE
:10160000044400BF00F00CF9401BA042FAD3B0BD67
:101610002DE9F04F82B00E68002E00F0FD8041F2FF
:101620000042C4F20102042340F2004E904208BF7F
:1016300003234FF6FF7CC4F2010E00930024012324
:10164000C1F2100C4FF0000A4FF000094BE000BF50
:1016500041F20002C4F20102009F904208BF02273B
:1016600004F00C030F229A402BEA020207FA03F35C
:101670004FEA9A051A4346F825204E6840F20C4579
:10168000F202DEF8082054BF22EA080242EA080209
:10169000C4F20105CEF808202A68B30254BF22EA3A
:1016A000080242EA08022A60B303DEF8042054BFAD
:1016B00022EA080242EA0802F303CEF80420DEF828
:1016C00000204FF0010354BF22EA080242EA080258
:1016D000CEF800200E680AF1010A36FA0AF204F187
:1016E000040400F0998003FA0AFB16EA0B08F1D013
:1016F0004E68664512DC122E56D8DFE806F0350B30
:101700004D495555555555555555555555555545AD
:10171000510000BFD1F80C9046E000BF4FF6FF72B9
:10172000C1F2210296420FDC0022C1F21102964260
:101730001AD00022C1F21202964215D00022C1F244
:101740002102964210D02FE00022C1F222029642DE
:101750000AD00022C1F23102964205D00022C1F225
:101760003202964220D100BF8A684AB1012A14BFD2
:10177000C0F814B0C0F810B04FF0080914E000BF72
:101780004FF0040910E000BFCA6802F104090BE041
:101790004FF0000908E000BFCA6802F1080903E041
:1017A000CA6802F10C0900BF02462646B8F5807FE0
:1017B00024BF0432203E17680F25B54027EA0505EF
:1017C00009FA06F635431560CA79D2067FF582AF6D
:1017D00041F21803C4F202031A68AEF57E7642F0B5
:1017E00001021A601A6802F001020192019A2AF0BD
:1017F000030256F802B040F60002C4F20102904221
:1018000008D040F60042C4F2010290427FF420AFBB
:10181000012725E7002723E702B0BDE8F08F00008D
:1018200040F25810C2F2000000687047002804BF60
:1018300001207047F0B581B0044690F83D0028B90A
:10184000002084F83C00204600F090F9242084F821
:101850003D002068016821F001010160016841F448
:1018600000410160016821F40041016000F0CAFB01
:10187000636848F2A16CC0F2010C40F60011C0F29E
:101880003D0163453CBF48F28041C0F21E018842E1
:1018900002D2012001B0F0BD4DF68361C4F21B31CC
:1018A000A0FB01122168970CD1F804E04FF4967662
:1018B0002EF03F0545EA92454D60774348F63816CD
:1018C0000D6AC0F24106A7FB067625F03F07634587
:1018D00038BF960C721C3A430A62CA6948F2A06685
:1018E0004CF6FF77C0F20106B34222EA07020BD89A
:1018F00001385B00B0FBF3F001306FF31F300428B8
:1019000098BF04201BE000BFA768013857B1192712
:101910007B43B0FBF3F001306FF31F3070B100F583
:10192000804007E003EB4303B0FBF3F001306FF3BB
:101930001F3018B100F5004001E000BF0120104346
:10194000C8610868D4E9072320F0C0001043184399
:101950000860886848F2FF3204F10C0790438CCF8E
:1019600018431043A6698860C86820F0FF00384318
:101970003043C860086840F0010008600020202162
:10198000206484F83D10206384F83E0001B0F0BD6F
:101990002DE9F04383B01E46174689460446FFF7FB
:1019A0003FFF94F83D10202924D10546206800BF50
:1019B000816989071AD5FFF733FF411B20681A296F
:1019C000F6D381698907F3D500202021206384F8AC
:1019D0003D1084F83E00216C41F02001216484F820
:1019E0003C00022003B0BDE8F08300BF94F83C1037
:1019F000012903D1022003B0BDE8F083012184F85E
:101A00003C100168C90703D1016841F00101016080
:101A1000016840F2020821F400610160212184F88C
:101A20003D10102184F83E10002121646762668514
:101A3000618DC0F201082185A8F10211E162E16A1D
:101A40000A9E11F5803F18BF01291DD1016841F49C
:101A50008071016020464FF001110022334600954D
:101A600001F042F950B120680068C00544BF4FF44E
:101A700000702064012003B0BDE8F0832069B0F558
:101A8000804F07D1FE2015E00829DFD0216B1229F5
:101A9000DCD0DFE7062000EAD9102168F0300861C9
:101AA00008F10601204632462B4601F003FA0028D1
:101AB000E0D1FF20216800EA090008612046414684
:101AC00032462B4601F0F6F90028D3D100200290CF
:101AD00020684169029180690290029806E000BF87
:101AE000204631462A4601F0A1F818BB208D68B384
:101AF000204631462A4601F049FAD8B9606A216881
:101B0000024612F8013B0B616262628D013A628506
:101B1000228D531E23854F697F07E1D51B04DFD03B
:101B2000437802300B616062608D01386085901EE1
:101B30002085D5E7206C04289CD12068016841F4F9
:101B400000710160012003B0BDE8F08320680168E6
:101B500041F400710160202084F83D00002084F8E9
:101B60003E0084F83C0003B0BDE8F08310B586B0B9
:101B7000016845F20040C4F2000081424FF00001CC
:101B8000CDE90411CDE9021102D006B010BD00BFAD
:101B900041F21804C4F20204216800F5384041F013
:101BA00008012160216801F0080101910199C0211B
:101BB0000291122103910321059102A9FFF728FD4B
:101BC000606840F400106060606800F400100190EC
:101BD000019806B010BD000040F2000040F258111C
:101BE000C2F20000C2F2000100780A6810440860E6
:101BF0007047000080B542F20000C4F202000168A4
:101C000041F010010160032000F08CF80F2000F07B
:101C100005F800F027F8002080BD000070B540F204
:101C20000006C2F2000640F208013278C2F200015A
:101C30004FF47A730968B3FBF2F20446B1FBF2F198
:101C4000084600F0F3FB0F2C4FF0010508D838B917
:101C50004FF0FF3021460022002500F037F8746075
:101C6000284670BD82B041F21800C4F2020001683B
:101C7000022241F001010160016801F001010191BE
:101C80000199416841F080514160406800F0805006
:101C9000009000980420C4F20100016862F31A6108
:101CA000016002B070470000002848BF704700F094
:101CB0001F01012202FA01F11C2202EAD0004EF2B9
:101CC0000012CEF2000281507047000010B54EF6AF
:101CD0000C5CCEF2000CDCF80030C3F3022E8EF068
:101CE0000704042C28BF0424BEF103034FF0FF3E79
:101CF0000EFA04F438BF0023A14399400EFA03F30F
:101D00009A43114300F00F0200F160430901043AC5
:101D100003F564436244002848BF02F10C031970C4
:101D200010BD00004EF60C51CEF200010A684FF6CD
:101D3000FF031A4060F30A2242F0806040F0FD7019
:101D4000086070472DE9F04182B00446007841F206
:101D50001C06C007C4F202064AD030685FEAC00819
:101D600008D4306840F080503060306800F0805017
:101D70000190019847F20007C4F200073868C005D7
:101D800012D4386840F480703860FFF749FD05468A
:101D90003868C00508D4FFF743FD401B6428F7D915
:101DA000032002B0BDE8F081706810F4407012D0DA
:101DB000616801F4407188420DD0706840F2404281
:101DC000C4F24222012320F4407113600023C007B3
:101DD0001360716026D17068616820F44070084318
:101DE000B8F1000F706003D4306820F0805030608C
:101DF0002068810707D556F8181CA26821F44041D5
:101E0000114346F8181CC00607D556F8180CE168AF
:101E100020F48000084346F8180C002002B0BDE80A
:101E2000F08100BFFFF7FCFC054641F2883700BF98
:101E300070688007CFD4FFF7F3FC401BB8424FF027
:101E40000300F5D9EAE70000002804BF012070472D
:101E50002DE9F04381B042F20008C4F202080446C2
:101E6000D8F800000D4600F0070088420CD2D8F8E0
:101E7000000020F007002843C8F80000D8F8000050
:101E800000F00700A8426CD1206841F204098107E4
:101E9000C4F2020917D5410705D5D9F8001041F45D
:101EA000E061C9F80010010705D5D9F8001041F428
:101EB0006051C9F80010D9F80010A26821F0F001B3
:101EC0001143C9F80010C00742D1D8F8000000F053
:101ED0000700A8420CD9D8F8000020F007002843DA
:101EE000C8F80000D8F8000000F00700A84238D178
:101EF0002068410707D5D9F80010E26821F4E061B5
:101F00001143C9F80010000708D5D9F8000021696D
:101F100020F4605040EAC100C9F80000D9F8002060
:101F200002F00C00082841F20020C0F27A004DD1E6
:101F300044F28223C2F38341C0F60003595CD2030A
:101F400038D440F60010C0F23D0048433EE000BFE8
:101F5000606859F8041C022808D0012826D189039A
:101F600006D4012001B0BDE8F08300BF8901F8D597
:101F7000D9F8001021F003010843C9F80000FFF769
:101F80004FFC064641F28837D9F80000616800F03E
:101F90000C00B0EB810F98D0FFF742FC801BB842D9
:101FA000F2D9032001B0BDE8F08300BF8907D8D57E
:101FB000DEE700BFD9F8002044F28023C2F340429C
:101FC000C0F600039A5C4843B0FBF2F0D9F8001069
:101FD00044F26822C1F30311C0F60002515C40F2E2
:101FE000080220FA01F140F20400C2F20000006889
:101FF000C2F200021160FFF711FE002001B0BDE83F
:10200000F083000040F2080041F20401C2F2000037
:10201000C4F202010068096844F27822C1F3022187
:10202000C0F60002515CC84070470000002804BFA1
:10203000012070472DE9F04182B00446007841F25A
:102040000006C007C4F202060CD0706800F00C0055
:10205000042840F081803068800303D56068002840
:1020600000F04681207880071BD5706810F00C0FB7
:1020700009D0706800F00C00082840F08780706874
:10208000C00300F183803068800703D520690128F0
:1020900040F02E813068616920F0F80040EAC1000C
:1020A00030602078000713D4207840072CD4E569ED
:1020B000002D00F01881706800F00C00082840F036
:1020C000A780012D40F00481012002B0BDE8F0811D
:1020D000A069002800F084800020C4F24220012181
:1020E000C0F88014FFF79CFB054600BF706A8007AC
:1020F00000F1B280FFF794FB401B0228F6D90320C1
:1021000002B0BDE8F08100BFF0695FEAC00808D402
:10211000F06940F08050F061F06900F0805000906C
:10212000009847F20007C4F200073868C00549D498
:10213000386840F480703860FFF772FB054600BFD6
:102140003868C0053ED4FFF76BFB401B6428F7D905
:10215000032002B0BDE8F081706800F00C00082890
:1021600003D17068C0033FF576AF6168306800291D
:1021700000F00C81B1F5A02F00F00081B1F5803F97
:1021800040F01A8140F480301CE100BF2069002833
:1021900040F20000C4F2422000F08880012101607A
:1021A000FFF73EFB054600BF306880073FF572AF82
:1021B000FFF736FB401B0228F6D9032002B0BDE82A
:1021C000F08100BFE168306A002900F09D80052998
:1021D00000F09280012940F0AF8040F00100B1E0B2
:1021E0000020C4F242200021C0F88014FFF718FB41
:1021F000054600BF706A80077FF556AFFFF710FBFA
:10220000401B0228F6D9032002B0BDE8F08100BFD0
:102210000027C4F2422700203866FFF701FB022D99
:1022200005460DD13068800140F1DE80FFF7F8FAF5
:10223000401B02284FF00300F4D902B0BDE8F08142
:10224000306880014FD5FFF7EBFA401B02284FF0B2
:102250000300F5D9F1E700BF40F20800C2F2000028
:10226000006844F6D351C1F26201A0FB0101480AA3
:10227000019000BF00BF0198411E002801913FF46A
:1022800013AF00BF0198411E002801913FF40CAF2D
:1022900000BF0198411E002801913FF405AF00BF27
:1022A0000198411E00280191E4D1FDE60021016062
:1022B000FFF7B6FA054600BF306880077FF5F1AE3C
:1022C000FFF7AEFA401B02284FF00300F4D9B4E741
:1022D0007068216A00F480328A4209D1616A00F490
:1022E0007010884204D1002002B0BDE8F08100BF28
:1022F000012002B0BDE8F08140F004003062306A95
:1023000040F001001EE000BF20F001003062306AA2
:1023100020F004003062FFF783FA054641F2883767
:10232000306A800720D5FFF77BFA401BB8424FF098
:102330000300F5D981E700BF20F001003062306A68
:1023400020F004003062FFF76BFA054641F288374F
:10235000306A800708D4FFF763FA401BB842F7D908
:10236000032002B0BDE8F081B8F1000F3FF59FAE49
:10237000F06920F08050F06199E600BF40F48020C1
:102380003060306840F480301CE000BF20F48030C2
:102390003060306820F480203060FFF741FA054655
:1023A000306880037FF55EAEFFF73AFA401B642881
:1023B0004FF00300F4D940E720F4803030603068FB
:1023C00020F480203060FFF72BFA05463068800348
:1023D0003FF548AEFFF724FA401B6428F6D90320E6
:1023E00002B0BDE8F08100BF206AB0F5803F05D1A2
:1023F0007168A26821F40031114371607168626AEA
:1024000021F4741111430843706001203866FFF70E
:1024100007FA0446306880013FF565AFFFF700FA20
:10242000001B02284FF00300F4D906E7411E0020EC
:10243000B0EB116F1CBF012070474EF21002CEF2BC
:10244000000251604EF62351CEF20001F0230B70D2
:10245000072190601160704790F83C20012A04BF6A
:1024600002207047B0B501F108053CCDD1E900CE9E
:1024700023F47C5322F470521A432EF4F0431A438F
:102480002CF4E0431A4324F4C0431A432A43C96995
:1024900022F48042036811435964002180F83C1003
:1024A0000020B0BD90F83C20012A4FF0020236D047
:1024B00010B580F83D200268D2F804E0D2F808C0D8
:1024C0000C682EF07003234340F2FF74C4F2000442
:1024D000A24253600ADCB2F1804F13D040F20043B5
:1024E000C4F200039A420DD011E000BF42F600434F
:1024F000C4F201039A4205D040F60003C4F200037F
:102500009A4204D149682CF080031943916001215B
:10251000002280F83D1080F83C20BDE810401046B5
:1025200070470000002804BF0120704710B590F8E4
:102530003D1031B9002180F83C10044600F070F8DD
:102540002046022180F83D10016840F2FF740B68BC
:10255000C4F2000442F6004CA142C4F2010C15DCA6
:10256000B1F1804F1AD040F20042C4F20002914211
:1025700014D0A14218DCB1F1804F1DD040F20042CE
:10258000C4F20002914217D01AE000BF614505D0A5
:1025900040F60002C4F200029142EAD1826823F0C0
:1025A00070031343A142E6DD614505D040F6000209
:1025B000C4F20002914203D1026923F44073134331
:1025C000846923F08002D0F804E0C36822436145A7
:1025D0000A60CB62C1F828E002D14269CCF8302011
:1025E00001224A610B69DB0703D00B6923F0010369
:1025F0000B6180F8462080F83E2080F83F2080F86C
:10260000402080F8412080F8422080F8432080F864
:10261000442080F8452080F83D20002010BD0000B7
:10262000006842F60041C4F20101884218BF7047B9
:1026300081B041F21800C4F20200016841F4006167
:102640000160006800F400600090009801B07047DD
:1026500090F83C20012A4FF002026CD080B580F83F
:102660003D20D0F800C04FF67772DCF8083023EA3E
:102670000202CCF808200B684F2B29DC1F2B45DD0C
:10268000202B46D0302B44D0402B40F0AF80D1F8E7
:1026900004E0C968DCF82030DCF8202022F00102D8
:1026A000CCF82020DCF8182022F0F00242EA0111D8
:1026B00023F00A0242EA0E02CCF81810CCF82020CF
:1026C000DCF8081041F0470121F0300128E000BF9C
:1026D0006F2B33DDB3F5005F74D0B3F5805F21D08D
:1026E000702B40F08380D1E901E3C968DCF8082051
:1026F00043EA0E0322F47F4243EA01211143CCF85E
:102700000810DCF8081041F0770109E00BB1102B3C
:102710006CD1DCF8081021F07001194341F0070179
:10272000CCF808100022012180F83D10002180F82B
:102730003C10BDE880401046704700BF502B21D0B0
:10274000602B53D1D1F804E0C968DCF82030DCF804
:10275000202022F01002CCF82020DCF8182022F4EF
:10276000704242EA013123F0A00242EA0E12CCF894
:102770001810CCF82020DCF8081041F0670121F097
:102780001001CDE7D1F804E0C968DCF82030DCF8AE
:10279000202022F00102CCF82020DCF8182022F0C2
:1027A000F00242EA011123F00A0242EA0E02CCF8DA
:1027B0001810CCF82020DCF8081041F0570121F067
:1027C0002001ADE7D1E901E3C968DCF8082043EA5C
:1027D0000E0322F47F4243EA01211143CCF8081092
:1027E000DCF8081041F480419AE700BF01229AE723
:1027F00080B586B0014640F60000C4F201000968C9
:1028000000F5105291424FF00001CDE90411CDE9DD
:10281000021101D006B080BD41F21801C4F20201DC
:102820000A6842F004020A60096801F0040101919B
:1028300001994FF48071029102210391059102A93F
:10284000FEF7E6FE06B080BD90F83C30012B04BFD9
:10285000022070474FEAB202032A00F2F1802DE90C
:10286000F043DFE802F003A53B7500BF036842F6C2
:1028700000461D6A1A6AC4F2010622F001021A62B9
:102880001A465C6852F818CFB3428E68D1F800E05F
:1028900025F0020545EA06050CD1CE68D1E9057898
:1028A00024F4407425F00C0526F004063C4335431F
:1028B00044EA08042CF0730747EA0E075C609F6146
:1028C0004F6809695F631D629F6947F008079F6150
:1028D0009F6927F004079F61A6E000BF036842F6E6
:1028E00000461D6A1A6AC4F2010622F480721A6256
:1028F0001A46D3F804C052F81CEFB3428E680C6835
:1029000025F4007545EA06250FD1CE68D1E9059872
:10291000360240F2FF4725F44065BE4335432CF4B0
:10292000405748EA090647EA061C2EF0730727437A
:10293000C3F804C0DF614F680969DF631D62DF69A6
:1029400047F00807DF61DF6927F00407DF616BE00C
:10295000036842F60047D3F820C01A6AC4F20107A0
:1029600022F480521A621A465C6852F81C5FD1F851
:1029700000E08E68BB4204D14F6924F4804444EAED
:1029800087142CF4005747EA063725F4E64646EA52
:102990000E265C60DE614E6809691E641F62DF6995
:1029A00047F40067DF61DF6927F48067DF613AE0A1
:1029B000036842F600461D6A1A6AC4F2010622F054
:1029C00010021A621A46D3F804C052F8184FB342E4
:1029D0008E68D1F800E025F0200545EA06150FD1F4
:1029E000CE68D1E905986FF0400725F0C00507EAE9
:1029F000061635432CF4406748EA090647EA860C78
:102A000024F4E64444EA0E27C3F804C09F614F68EB
:102A100009699F631D629F6947F400679F619F6911
:102A200027F480679F610902136819431160002130
:102A3000BDE8F043002280F83C200846704700BF04
:102A40000121002280F83C2008467047002804BF7E
:102A50000120704710B590F83D1031B9002180F881
:102A60003C10044600F070F82046022180F83D102A
:102A7000016840F2FF740B68C4F2000442F6004C97
:102A8000A142C4F2010C15DCB1F1804F1AD040F222
:102A90000042C4F20002914214D0A14218DCB1F10C
:102AA000804F1DD040F20042C4F20002914217D084
:102AB0001AE000BF614505D040F60002C4F20002F2
:102AC0009142EAD1826823F070031343A142E6DD0C
:102AD000614505D040F60002C4F20002914203D1E4
:102AE000026923F440731343846923F08002D0F811
:102AF00004E0C368224361450A60CB62C1F828E064
:102B000002D14269CCF8302001224A610B69DB070F
:102B100003D00B6923F001030B6180F8462080F895
:102B20003E2080F83F2080F8402080F8412080F847
:102B3000422080F8432080F8442080F8452080F827
:102B40003D20002010BD000070470000C1B10429E5
:102B500008D0082914BF41224022825C012A05D0F6
:102B600016E000BF3F22825C012A11D1022208290F
:102B700010D0042914BF80F8412080F83F200BE0DA
:102B800090F83E20012A03D1022280F83E2003E083
:102B90000120704780F84020006801F01F010122E9
:102BA000036A8A4023EA02010162036A42F6444151
:102BB000C4F201011A43A1F14403984202620FD00A
:102BC00040F2FF71C4F20001884213DCB0F1804F83
:102BD0001CD040F20041C4F20001884216D01CE033
:102BE0000A6842F400420A6040F2FF71C4F2000138
:102BF0008842EBDD42F60041C4F20101884205D073
:102C000040F60001C4F20001884206D1816801F05B
:102C10000701062904BF00207047016841F0010147
:102C20000160002070470000FEE7000070B50368F7
:102C3000044653F8140F400711D40E46481C29D0FF
:102C400086BB00BF1868400527D4FEF7E9FD23685E
:102C500053F8140F400737D518684007F2D5002005
:102C600070BD00BF18684007F9D41868400514D437
:102C700018684007F3D4186840050ED41868400758
:102C8000EDD41868400508D4186840074FF00000DC
:102C900048BF70BD18684005E4D56FF480601860C7
:102CA000042012E0154603E053F8140F4007D6D471
:102CB00018684005F1D4FEF7B3FD401B2368B0420D
:102CC000F2D958694007EFD4202000212022216347
:102CD00084F83D2084F83E10226C104320640120CB
:102CE00084F83C1070BD00002DE9F04105460068F5
:102CF0001E46144601F47F0201338FB242D0DDF844
:102D00001880B2F5803F40F0878040693840C01B92
:102D1000B0FA80F04009A04240F0C8804EB924E0EB
:102D200040693840C01BB0FA80F04009A04240F032
:102D3000BD80FEF775FDA0EB08012868B142EFD910
:102D400041693940C91BB1FA81F14909A142E7D172
:102D50009BE000BF40693840C01BB0FA80F04009DA
:102D6000A0424FF0000040F0A280FEF759FD286815
:102D700041693940C91BB1FA81F14909A142E9D140
:102D800083E000BFB2F5803F24D100BF41693940E4
:102D9000C91BB1FA81F14909A14240F0878041691C
:102DA0003940C91BB1FA81F14909A14240F07E8046
:102DB00041693940C91BB1FA81F14909A14275D174
:102DC00041693940C91BB1FA81F14909A142DDD0FD
:102DD0006CE000BF81693940C91BB1FA81F1490932
:102DE000A14263D181693940C91BB1FA81F1490916
:102DF000A1425BD181693940C91BB1FA81F149090E
:102E0000A14253D181693940C91BB1FA81F1490905
:102E1000A142DFD04AE000BF80693840C01BB0FA51
:102E200080F04009A04241D146B923E08069384092
:102E3000C01BB0FA80F04009A04237D1FEF7F0FC89
:102E4000A0EB08012868B142F0D981693940C91B5B
:102E5000B1FA81F14909A142E8D116E08069384010
:102E6000C01BB0FA80F04009A0424FF0000018BF2C
:102E7000BDE8F081FEF7D4FC286881693940C91BA0
:102E8000B1FA81F14909A142E8D10020202128634B
:102E900085F83D1085F83E00296C41F02001296439
:102EA00085F83C000120BDE8F08100BF0020BDE8AE
:102EB000F0810000F0B581B0044600681D4643690A
:102EC0008FB203EA0701B94202D1002001B0F0BD80
:102ED0004169164601323CD0490512D47EB300BF89
:102EE000FEF79EFC411B2068B14203D9416939407D
:102EF000B9422BD141693940B942E6D0416949050F
:102F0000EED5016841F4007101606FF480614161A8
:102F1000042000212022216384F83D2084F83E1003
:102F2000226C1043206484F83C10012001B0F0BDF5
:102F300041693940B942C8D041694905E1D4FEF739
:102F40006FFC206841693940B942F1D02020E0E7A8
:102F500041694905D5D441693940B942B5D0416983
:102F60004905CED441693940B942AED041694905DD
:102F7000C7D441693940B942A7D041694905C0D495
:102F800041693940B942E3D19FE7000070B5036859
:102F9000044653F8140F000611D40E46481C29D0DD
:102FA00086BB00BF1868400527D4FEF739FC2368AC
:102FB00053F8140F000637D518680006F2D5002024
:102FC00070BD00BF18680006F9D41868400514D415
:102FD00018680006F3D4186840050ED41868000677
:102FE000EDD41868400508D4186800064FF00000BA
:102FF00048BF70BD18684005E4D56FF48060186064
:10300000042012E0154603E053F8140F0006D6D44E
:1030100018684005F1D4FEF703FC401B2368B0425A
:10302000F2D958690006EFD4202000212022216324
:1030300084F83D2084F83E10226C10432064012067
:1030400084F83C1070BD0000FEE70000FEE70000C1
:103050007047000070470000FEF7BEBD70470000DB
:10306000FEE7000098B0FEF7C5FD01AC201D24214D
:10307000FDF7A7F9022001900120059010200025FE
:10308000069020461795CDE915550895FEF7CEFF19
:1030900020B1EFF3108072B6FEE700BF0F20CDE93C
:1030A0000B050BA80021CDE90D550F95FEF7CCFEC1
:1030B00020B1EFF3108072B6FEE700BF022014903B
:1030C000002414A81694FEF73DFE28B1EFF31080FB
:1030D00072B600BFFEE700BF41F21800C4F2020062
:1030E000016845F2004541F010010160016840F2BD
:1030F000700801F01001019101990168C4F2000506
:1031000041F0040101600168C2F2000801F004010D
:10311000019101990168012641F0080101600068F0
:1031200005F5504100F0080001900198404640F834
:103130001C1F4FF4602106730475C161C0E901448E
:103140000661FEF7FBF828B1EFF3108072B600BFFE
:10315000FEE700BF052008F11C04CDE9010603903D
:1031600001A92046FDF7A2FF20B1EFF3108072B64F
:10317000FEE700BF40F21010002105F55842C2F2F0
:1031800000004F2340F2E7371791CDE91511CDE943
:1031900012110791C0E90023C0E90217C0E9041128
:1031A0008161FFF7BFF928B1EFF3108072B600BF5D
:1031B000FEE700BF4FF48050149040F21010C2F2AE
:1031C000000014A9FFF744FA20B1EFF3108072B6A3
:1031D000FEE700BF40F21010C2F20000FFF736FC1D
:1031E00020B1EFF3108072B6FEE700BF40F210107E
:1031F000C2F2000012A9FFF755F928B1EFF31080D1
:1032000072B600BFFEE700BF60200B90C7200C9095
:1032100040F210100026C2F200000BA90022CDE9F6
:103220000D66CDE90F661196FFF70EFB20B1EFF3A7
:10323000108072B6FEE700BF4FF40050069040F2D7
:103240001010C2F2000001A90596CDE90366CDE990
:1032500001660896FFF700F920B1EFF3108072B60F
:10326000FEE700BF40F21010C2F20000FFF7C0FA04
:1032700040F2BC0048F2A061C2F20000C0F20101BD
:1032800000224FF48043C0E90051C0E90222C0E9A6
:103290000432C0E906220262FEF7C8FA20B1EFF359
:1032A000108072B6FEE700BF2046FEF731F940F20B
:1032B0001010C2F200000021FFF748FC08F11006D0
:1032C00040F2BC010227C2F2000130464E22102318
:1032D0000097FDF7FBFC304600210022FDF75EFE63
:1032E0002CA13046FDF7A0FE304600210122FDF75B
:1032F00055FE2AA13046FDF797FE46F266694FF269
:10330000004AC4F20A09C4F2AA0A08F108070FF237
:10331000940B26A540F21011C2F20001D8F800006B
:10332000096848632046FDF78DFFC8F8000000F0EB
:10333000C7FD4FF066324B4600F0D6FD00225346E3
:1033400000F062FC00F02EFCC8F8040000F0CAFE99
:1033500002460B4638465946FCF75CFF30460621CC
:103360000022FDF71BFE30463946FDF75DFED8F81A
:10337000002038462946FCF74DFF30460521012242
:10338000FDF70CFE30463946FDF74EFEFA20FEF7FB
:103390002BF9BFE7566F6C743A2000004144433A62
:1033A00020000000252E3266000000002564000089
:1033B0005FEA400C08BF91F0000F4FEA8C234FEA00
:1033C000C12243EA51514FEA1C5018BF00F5F040AA
:1033D0004FEA300018BF41F000415FEA6C5C00F03A
:1033E0002980BCF1FF3F08BF40F080407047130CBC
:1033F00006BF12044FF0100C4FF0000C130E04BF68
:1034000012020CF1080C130F04BF12010CF1040C92
:10341000930F04BF92000CF1020CD30F04BF5200B3
:103420000CF1010C11464FF00002A0F11F00A0EBBF
:103430000C00704711F0004F08BF704731F0004199
:103440003FF4D5AF0B0C06BF09044FF0100C4FF042
:10345000000C0B0E04BF09020CF1080C0B0F04BF8B
:1034600009010CF1040C8B0F04BF89000CF1020C54
:10347000CB0F04BF49000CF1010CCCF1200322FA60
:1034800003F341EA030102FA0CF2A0EB0C0000F195
:103490000100704723F07F4720F07F4C80EA030053
:1034A00000F00040ACEB070303F57C5303F1FF038E
:1034B0002DE9804909B44FEA144324EA03484FEA4E
:1034C000154B25EA0B4E0FF2042606EB13273E7828
:1034D00003FB0667C7F5000707FB06F64FEAD6466B
:1034E00006F102064FEA543707FB066CCCF1005C8C
:1034F0004FEA1C472CEA074C0CFB06F507FB06F4C9
:1035000004EB15464FEA961649085FEA320234BFCB
:1035100000204FF000404FEAD13706FB07FC4FEA8E
:103520001C4C0CFB0BF7D21B03FB0CF761EB0701E8
:103530000CFB0EF7B0EB074072EB17420CFB08F7E1
:1035400034BFA2EB0742B2EB074261EB17414FEAEF
:103550000C444FEA910706FB07FC4FEA1C4C0CFB9E
:103560000BF7B0EBC74072EB573203FB0CF734BFDD
:10357000A2EBC742B2EBC74261EB57310CFB0EF72F
:10358000B0EBC70072EB57720CFB08F734BFA2EB2D
:10359000C702B2EBC70261EB57714FEA816141EAA2
:1035A00092114FEA826242EA90124FEA806004EB85
:1035B000CC04039F4FEAD13706FB07FC4FEA1C4CB3
:1035C0000CFB0BF7D21B03FB0CF761EB07010CFBA9
:1035D0000EF7B0EB074072EB17420CFB08F734BF55
:1035E000A2EB0742B2EB074261EB17414FEA8C5561
:1035F00004EB9C244FEA910706FB07FC4FEA1C4CA6
:103600000CFB0BF7B0EBC74072EB573203FB0CF728
:1036100034BFA2EBC742B2EBC74261EB57310CFBA0
:103620000EF7B0EBC70072EB57720CFB08F734BF14
:10363000A2EBC702B2EBC70261EB57714FEA81619F
:1036400041EA92114FEA826242EA90124FEA8060A8
:1036500015EB4C2544F100044FEAD13706FB07FC7B
:103660004FEA1C4C0CFB0BF7D21B03FB0CF761EB76
:1036700007010CFB0EF7B0EB074072EB17420CFB97
:1036800008F734BFA2EB0742B2EB074261EB1741E8
:103690004FEA813141EA92414FEA823242EA904256
:1036A0004FEA80304FEA0C7615EB1C1544F100040C
:1036B00048EA03434EEA0B484FF0000EB2EB080C09
:1036C00071EB030724BF624639464EEB0E0E4FF0F6
:1036D000000B0018524149414BEB0B0BB2EB080CAD
:1036E00071EB03077BF1000B24BF624639464EEBBA
:1036F0000E0E4FF0000B0018524149414BEB0B0BE3
:10370000B2EB080C71EB03077BF1000B24BF6246A0
:1037100039464EEB0E0E51EA020718BF46F001067D
:1037200016EB0E7655F1000254F1000103D5BDE809
:103730008901BDE80088BDE88901BDE80048B619E7
:10374000524141EB0101A3F10103704780807F7E6C
:103750007D7C7B7A79787776767574737271717007
:103760006F6E6E6D6C6C6B6A6A69686867666665B9
:103770006464636362616160605F5F5E5E5D5D5C47
:103780005C5B5B5A5A5959585857575656555555B8
:103790005454535352525251515050504F4F4F4E18
:1037A0004E4D4D4D4C4C4C4B4B4B4A4A4A49494966
:1037B00048484847474747464646454545444444A8
:1037C0004443434343424242424141419C46002BD1
:1037D00030D477002BD04FEA37071CB503B44FF035
:1037E00010004FF01001BAF1000F06D0BCF1000F2D
:1037F000DCBF40F0080040F008014FF000000FBCB3
:10380000BDE810400BF1010BBBF1010F08BF5FEAEF
:10381000170722BF12F1010211F101014FF000411F
:1038200043F1000300F0004043EA00007047F9D381
:103830005708D0E746EA06464FEA164613F1400F0E
:103840001FDD13F1200FDFBF16430A46002120338E
:103850005B42BED0C3F1200746EA06464FEA164651
:1038600002FA07F746EA070622FA03F2C3F1200735
:1038700001FA07F742EA070221FA03F14FF00003C9
:10388000A7E746EA020646EA06464FEA164646EA31
:103890000106BCBF46EA0646360C4FF000034FF067
:1038A00000024FF0000194E72DE9804C70B49A4675
:1038B000934691E8380007C831EA400C48BF34EA23
:1038C000430C03D5FFF7E6FDFFF780FFF0BCBDE832
:1038D000008C2DE9804C70B49A46934691E83800EC
:1038E00007C810F0804F08BF13F0804F03D100F0DD
:1038F00005F8FFF76BFFF0BCBDE8008C20F07F47B8
:1039000023F07F4C80EA030000F0004007EB0C033B
:10391000A3F57C53A3F1FE0392F0000F00F0B380F7
:1039200095F0000F00F077802DE901494FEA114032
:1039300021EA00484FEA144624EA064700FB06FC49
:1039400008FB06F607FB08F818EB06484CEB164C8C
:1039500000FB07F718EB07484CEB17404FEA124BF8
:1039600022EA0B4E4FEA154625EA06470BFB06FCFA
:103970000EFB06F607FB0EFE1EEB064E4CEB164C3E
:103980000BFB07F71EEB074E4CEB174B18EB0B0826
:1039900040F1000018EB0E0B58EB000840F100005E
:1039A0008F1A4FF000014FF000063CBFC943661B61
:1039B00014BFB5EB040C00213CBFC943F61B4FEA12
:1039C000174427EA04454FEA1C472CEA074C04FB3E
:1039D000076205FB07F70CFB05F616EB074642EB03
:1039E000174204FB0CFC16EB0C4642EB1C421BEB93
:1039F000060658EB020241414EEA8E0E46EA9E064A
:103A000001D5BDE80189B619524141EB0101A3F18D
:103A10000103BDE801894FEA144524EA05464FEA4F
:103A2000114721EA074C05FB07F406FB07F70CFBDF
:103A300006F111EB074144EB174405FB0CFC11EBBD
:103A40000C4144EB1C444FEA124722EA074C05FBA9
:103A500007F206FB07F70CFB06F616EB074642EBF0
:103A6000174205FB0CFC16EB0C4642EB1C456A1892
:103A700054F1000148BF7047B619524141EB0101B2
:103A8000A3F10103704795F0000F37D04FEA1142C0
:103A900021EA02464FEA144724EA074C02FB07F1E9
:103AA00006FB07F70CFB06F414EB074441EB174148
:103AB00002FB0CFC14EB0C4441EB1C414FEA154794
:103AC00025EA074C02FB07F506FB07F70CFB06F699
:103AD00016EB074645EB174502FB0CFC16EB0C46B4
:103AE00045EB1C42121951F1000148BF7047B6194D
:103AF000524141EB0101A3F1010370474FEA144524
:103B000024EA05464FEA114721EA074C05FB07F175
:103B100006FB07F70CFB06F212EB074241EB1741DD
:103B200005FB0CFC12EB0C4251EB1C414FF0000664
:103B300048BF7047921841EB0101A3F101037047A0
:103B4000490050EAC12018BF04204A0D18BF40F0B8
:103B5000010040F2FF72B2EB515F08BF40F002007B
:103B6000012808BF0520704730380A2801D20120FB
:103B7000704700207047000010B500290AD008786F
:103B8000002807D005487844FCF7F8FF002801D04A
:103B9000002010BD0248784410BD00002E07000030
:103BA0002607000021F0004201F00043A2F160521C
:103BB000B2F5801F28BFD2F17F6C0BD95FEA001CE1
:103BC00043EAC20242EB507018BF704728BF20F092
:103BD00001007047B2F5801FBCBF184670474FEA1E
:103BE000410C1CF5001F02D2084600F0ECBA70B57B
:103BF00000F024FA00000089FFF7F6BF4FF0004004
:103C0000A0F58000704700002DE9C04130B4DFF816
:103C1000A8C23CEA111418BF3CEA131400F0F0806B
:103C20001CEA111481EA030544EAD57418BF1CEAA2
:103C3000131500F0CB80A4EB050404F17F7404F5A8
:103C400000344FF0004545EAC12145EAC32341EA6B
:103C5000505143EA52534FEAC0204FEAC2229942E0
:103C600008BF904200F0A0804FEA13650FF248169B
:103C7000765D4FEA134506FB05F7C7F1807706FB33
:103C800007F74FEAD737A7FB03687642A7FB06CEB4
:103C9000C8F5803838BFA8F1010807FB08E6A6FB85
:103CA000028C4FF0000EE6FB03CED8F100086FEA5D
:103CB0000C0C5CF1000C6FEA0E0E4EF1004EA6FBF0
:103CC0000C584FF00007E6FB0E87A1FB08C6A0FBCF
:103CD00007CE16EB0E064FF0000545F10005E1FB9F
:103CE000076515F1E04E7EBFA4F580345FEA460615
:103CF0006D4116F1800745F100054FEA172747EAA5
:103D000005674FEA15254FEA0666A6F1DE46B6F1CD
:103D1000805F20D9384605EBC47124F0010C01EB1B
:103D20000C11BCF1FE6F02D8F0BCBDE8008124424A
:103D30005CBF01F5801E9EEAC47F02D4F0BCBDE8E2
:103D40000081244200F13980A1F1C041F0BCBDE8FE
:103D5000004100F0C1B94FEAD02040EA41504FEA9B
:103D6000D1214FEAD22242EA43524FEAD323A7FBA2
:103D7000028607FB036605FB02661EEA0E0F58BFAC
:103D8000A6EB0056B6EB00564FEA520E4EEAC37E43
:103D900018EB0E0E56EB530EBCD518EB02085E4125
:103DA0007F1C55F10005B5E74FF480154FF0000773
:103DB0004FF000064FF00008ACE701F1C04101F000
:103DC00000414FF00000F0BCBDE800810CEA131583
:103DD00011EA0C1F00D00CE013EA0C1F00F0258044
:103DE0004FF0000081EA030101F00041F0BCBDE8A2
:103DF0000081F0BCBDE8004181EA030100F06CB92C
:103E0000F0BCBDE8004170B500F018F9097EFC3E39
:103E100000F007B84FF0000081EA030101F0004113
:103E2000704781EA030100F057B9F0BCBDE80041DA
:103E300022494FF000007047FFFDFBF9F7F5F4F25F
:103E4000F0EEEDEBE9E8E6E4E3E1E0DEDDDBDAD835
:103E5000D7D5D4D3D1D0CFCDCCCBCAC8C7C6C5C493
:103E6000C2C1C0BFBEBDBCBBBAB9B8B7B6B5B4B3AA
:103E7000B2B1B0AFAEADACABAAA9A8A8A7A6A5A495
:103E8000A3A3A2A1A09F9F9E9D9C9C9B9A99999859
:103E90009797969595949393929191908F8F8E8EFC
:103EA0008D8C8C8B8B8A8989888887878685858489
:103EB00084838382828181800000FF070000F87F75
:103EC000B0FA80F310FA03F10AD0C3F11D0303F531
:103ED00080634FEA03524FEA415002EBD121704711
:103EE0004FF000007047000070B5DFF848C11CEAD1
:103EF000111E1EBF1CEA13159EEA0C0F95EA0C0F4B
:103F000000F06F8081EA03044EEAD47EAE4421EAD9
:103F10004C1123EA4C1341F4801143F48013AEF1A9
:103F20007F7EA1FB024CA0FB0365361955EB0C0507
:103F3000A1FB034C4CF10003A0FB021C16EB0C068A
:103F4000654153F10003094218BF46F0010613F41E
:103F5000007F0BD14FEA03314FEA053041EA15519A
:103F600040EA165034036FF003020AE04FEAC3211F
:103F70004FEAC52041EA555140EA5650F4026FF02D
:103F8000020202EB2E4201EB025585EACE710AD005
:103F90005FEA440C18BF24F0004450F1000041F1E6
:103FA000000120EAD47040F2FE7C624500D270BD70
:103FB000A84214BF4FF080444FF04044002E08BF89
:103FC0000024BEF1806FA8BFA1F1C041BDE87040E0
:103FD00080F2828001F1C04101F000414FF0000009
:103FE00070470CEA13159EEA0C0F18BF95EA0C0FE8
:103FF00006D081EA030E4FF000000EF0004170BDC4
:1040000000F01CF88900013E00F007B800F009B884
:104010004FEA430C5FEA5C5C08D081EA030100F0E0
:104020005BB84FEA410C5FEA5C5CF6D102494FF0A5
:10403000000070470000FF070000F87F0EF1020E3D
:104040002EF0030E5EF8046B364205D4012A43EBD2
:10405000030515F5001F12D8012841EB010C1CF5D2
:10406000001F0CD80ED14FEAD17C0CEB4C0C0CF19C
:10407000020C15F5001F08BF4CEBD37C04E04FF099
:10408000080C01E04FEAD37C0CEB4C0526FA05F650
:1040900006F00706B6F1040C06D20EEB860CBDE85E
:1040A00070404CF0010C6047DFE80CF0090B020295
:1040B0004FF00041A1F500214FF0000070BD1946FE
:1040C0001046012851EB010418BFD4F5001484BF39
:1040D000002001F0004170BD0808A0F500114FEA72
:1040E0003101704743004FEAD30C4FEA3C0C434088
:1040F0001FBF40070CF1605113F0FE4F70471CF0DA
:10410000006F03D10CF00041002070470CF0004319
:1041100043EA507040EACC0010B500F00EF800BF42
:10412000000000924FEA0001FFF7D6BF4FF00041B8
:10413000A1F500214FF0000070470EF1020E2EF0A5
:10414000030E5EF8044B244204D44FEA4102B2F15C
:104150007F4F11D84FEA4003B3F17F4F0CD80ED1F7
:104160004FEAD07C0CEB4C0C0CF1020CB2F17F4FFF
:1041700008BF4CEBD17C04E04FF0080C01E04FEAA3
:10418000D17C0CEB4C0324FA03F404F00704B4F1E3
:10419000040C06D20EEB840CBDE810404CF0010C70
:1041A0006047DFE80CF0070802024FF00040A0F57E
:1041B000800010BD0846420018BFD2F1807288BF4F
:1041C00000F0004010BDFF2141EAD050C00570470B
:1041D000FCF752BA02400000000000A000000000FE
:1041E00005400000000000C8000000000C40000076
:1041F0000000409C00000000194000000020BCBEF0
:104200000000000034400000BFC91B8E0000000405
:10421000B5400000504BCFD06607E2CF0100000050
:104220006C4100003E8251AADFEEA734010000007D
:10423000D9420000DCB5A0E23A301F97FFFFFFFF34
:10424000B4450000FD25A0C8E9A3C14FFFFFFFFF53
:10425000FF3F00000000008000000000FF3F000062
:1042600000000080000000000000000000000000CE
:10427000010203040607080900000000010203040C
:10428000010202030405060708090A0B0C0D0E0FB4
:1042900010100000D04200080000002010000000B4
:1042A00050010008E0420008100000205007000004
:1042B000700100081C00000043000000F8FFFFFF31
:1042C0000C0000000E0000000F0000002E00000097
:1042D000010000001000000000127A000000000041
:04000005080000ED02
:00000001FF
